{
  "_format": "hh-sol-artifact-1",
  "contractName": "Chess",
  "sourceName": "contracts/Chess.sol",
  "abi": [
    {
      "inputs": [
        {
          "internalType": "bool",
          "name": "enableDebugging",
          "type": "bool"
        }
      ],
      "stateMutability": "nonpayable",
      "type": "constructor"
    },
    {
      "anonymous": false,
      "inputs": [
        {
          "indexed": false,
          "internalType": "string",
          "name": "message",
          "type": "string"
        },
        {
          "indexed": false,
          "internalType": "uint256",
          "name": "value1",
          "type": "uint256"
        },
        {
          "indexed": false,
          "internalType": "uint256",
          "name": "value2",
          "type": "uint256"
        },
        {
          "indexed": false,
          "internalType": "uint256",
          "name": "value3",
          "type": "uint256"
        }
      ],
      "name": "DebugInts",
      "type": "event"
    },
    {
      "anonymous": false,
      "inputs": [
        {
          "indexed": true,
          "internalType": "address",
          "name": "player",
          "type": "address"
        },
        {
          "indexed": false,
          "internalType": "uint256",
          "name": "score",
          "type": "uint256"
        }
      ],
      "name": "EloScoreUpdate",
      "type": "event"
    },
    {
      "anonymous": false,
      "inputs": [
        {
          "indexed": true,
          "internalType": "bytes32",
          "name": "gameId",
          "type": "bytes32"
        },
        {
          "indexed": true,
          "internalType": "address",
          "name": "player",
          "type": "address"
        }
      ],
      "name": "GameClosed",
      "type": "event"
    },
    {
      "anonymous": false,
      "inputs": [
        {
          "indexed": true,
          "internalType": "bytes32",
          "name": "gameId",
          "type": "bytes32"
        }
      ],
      "name": "GameDrawOfferRejected",
      "type": "event"
    },
    {
      "anonymous": false,
      "inputs": [
        {
          "indexed": true,
          "internalType": "bytes32",
          "name": "gameId",
          "type": "bytes32"
        }
      ],
      "name": "GameEnded",
      "type": "event"
    },
    {
      "anonymous": false,
      "inputs": [
        {
          "indexed": true,
          "internalType": "bytes32",
          "name": "gameId",
          "type": "bytes32"
        },
        {
          "indexed": true,
          "internalType": "address",
          "name": "player1",
          "type": "address"
        },
        {
          "indexed": false,
          "internalType": "string",
          "name": "player1Alias",
          "type": "string"
        },
        {
          "indexed": false,
          "internalType": "address",
          "name": "playerWhite",
          "type": "address"
        },
        {
          "indexed": false,
          "internalType": "uint256",
          "name": "turnTime",
          "type": "uint256"
        },
        {
          "indexed": false,
          "internalType": "uint256",
          "name": "pot",
          "type": "uint256"
        }
      ],
      "name": "GameInitialized",
      "type": "event"
    },
    {
      "anonymous": false,
      "inputs": [
        {
          "indexed": true,
          "internalType": "bytes32",
          "name": "gameId",
          "type": "bytes32"
        },
        {
          "indexed": true,
          "internalType": "address",
          "name": "player1",
          "type": "address"
        },
        {
          "indexed": false,
          "internalType": "string",
          "name": "player1Alias",
          "type": "string"
        },
        {
          "indexed": true,
          "internalType": "address",
          "name": "player2",
          "type": "address"
        },
        {
          "indexed": false,
          "internalType": "string",
          "name": "player2Alias",
          "type": "string"
        },
        {
          "indexed": false,
          "internalType": "address",
          "name": "playerWhite",
          "type": "address"
        },
        {
          "indexed": false,
          "internalType": "uint256",
          "name": "pot",
          "type": "uint256"
        }
      ],
      "name": "GameJoined",
      "type": "event"
    },
    {
      "anonymous": false,
      "inputs": [
        {
          "indexed": true,
          "internalType": "bytes32",
          "name": "gameId",
          "type": "bytes32"
        },
        {
          "indexed": false,
          "internalType": "int8[128]",
          "name": "state",
          "type": "int8[128]"
        }
      ],
      "name": "GameStateChanged",
      "type": "event"
    },
    {
      "anonymous": false,
      "inputs": [
        {
          "indexed": true,
          "internalType": "bytes32",
          "name": "gameId",
          "type": "bytes32"
        },
        {
          "indexed": false,
          "internalType": "uint256",
          "name": "timeoutStarted",
          "type": "uint256"
        },
        {
          "indexed": false,
          "internalType": "int8",
          "name": "timeoutState",
          "type": "int8"
        }
      ],
      "name": "GameTimeoutStarted",
      "type": "event"
    },
    {
      "anonymous": false,
      "inputs": [
        {
          "indexed": true,
          "internalType": "bytes32",
          "name": "gameId",
          "type": "bytes32"
        },
        {
          "indexed": true,
          "internalType": "address",
          "name": "player",
          "type": "address"
        },
        {
          "indexed": false,
          "internalType": "uint256",
          "name": "fromIndex",
          "type": "uint256"
        },
        {
          "indexed": false,
          "internalType": "uint256",
          "name": "toIndex",
          "type": "uint256"
        }
      ],
      "name": "Move",
      "type": "event"
    },
    {
      "inputs": [
        {
          "internalType": "bytes32",
          "name": "gameId",
          "type": "bytes32"
        }
      ],
      "name": "claimTimeoutEnded",
      "outputs": [],
      "stateMutability": "nonpayable",
      "type": "function"
    },
    {
      "inputs": [
        {
          "internalType": "bytes32",
          "name": "gameId",
          "type": "bytes32"
        },
        {
          "internalType": "uint256",
          "name": "fromIndex",
          "type": "uint256"
        },
        {
          "internalType": "uint256",
          "name": "toIndex",
          "type": "uint256"
        }
      ],
      "name": "claimTimeoutEndedWithMove",
      "outputs": [],
      "stateMutability": "nonpayable",
      "type": "function"
    },
    {
      "inputs": [
        {
          "internalType": "bytes32",
          "name": "gameId",
          "type": "bytes32"
        }
      ],
      "name": "claimWin",
      "outputs": [],
      "stateMutability": "nonpayable",
      "type": "function"
    },
    {
      "inputs": [
        {
          "internalType": "bytes32",
          "name": "gameId",
          "type": "bytes32"
        }
      ],
      "name": "confirmGameEnded",
      "outputs": [],
      "stateMutability": "nonpayable",
      "type": "function"
    },
    {
      "inputs": [
        {
          "internalType": "bytes32",
          "name": "",
          "type": "bytes32"
        }
      ],
      "name": "games",
      "outputs": [
        {
          "internalType": "address",
          "name": "player1",
          "type": "address"
        },
        {
          "internalType": "address",
          "name": "player2",
          "type": "address"
        },
        {
          "internalType": "string",
          "name": "player1Alias",
          "type": "string"
        },
        {
          "internalType": "string",
          "name": "player2Alias",
          "type": "string"
        },
        {
          "internalType": "address",
          "name": "nextPlayer",
          "type": "address"
        },
        {
          "internalType": "address",
          "name": "winner",
          "type": "address"
        },
        {
          "internalType": "bool",
          "name": "ended",
          "type": "bool"
        },
        {
          "internalType": "uint256",
          "name": "pot",
          "type": "uint256"
        },
        {
          "internalType": "uint256",
          "name": "player1Winnings",
          "type": "uint256"
        },
        {
          "internalType": "uint256",
          "name": "player2Winnings",
          "type": "uint256"
        },
        {
          "internalType": "uint256",
          "name": "turnTime",
          "type": "uint256"
        },
        {
          "internalType": "uint256",
          "name": "timeoutStarted",
          "type": "uint256"
        },
        {
          "internalType": "int8",
          "name": "timeoutState",
          "type": "int8"
        }
      ],
      "stateMutability": "view",
      "type": "function"
    },
    {
      "inputs": [
        {
          "internalType": "address",
          "name": "",
          "type": "address"
        },
        {
          "internalType": "bytes32",
          "name": "",
          "type": "bytes32"
        }
      ],
      "name": "gamesOfPlayers",
      "outputs": [
        {
          "internalType": "bytes32",
          "name": "",
          "type": "bytes32"
        }
      ],
      "stateMutability": "view",
      "type": "function"
    },
    {
      "inputs": [
        {
          "internalType": "address",
          "name": "",
          "type": "address"
        }
      ],
      "name": "gamesOfPlayersHeads",
      "outputs": [
        {
          "internalType": "bytes32",
          "name": "",
          "type": "bytes32"
        }
      ],
      "stateMutability": "view",
      "type": "function"
    },
    {
      "inputs": [
        {
          "internalType": "bytes32",
          "name": "gameId",
          "type": "bytes32"
        }
      ],
      "name": "getCurrentGameState",
      "outputs": [
        {
          "internalType": "int8[128]",
          "name": "",
          "type": "int8[128]"
        }
      ],
      "stateMutability": "view",
      "type": "function"
    },
    {
      "inputs": [
        {
          "internalType": "bytes32",
          "name": "gameId",
          "type": "bytes32"
        }
      ],
      "name": "getWhitePlayer",
      "outputs": [
        {
          "internalType": "address",
          "name": "",
          "type": "address"
        }
      ],
      "stateMutability": "view",
      "type": "function"
    },
    {
      "inputs": [],
      "name": "head",
      "outputs": [
        {
          "internalType": "bytes32",
          "name": "",
          "type": "bytes32"
        }
      ],
      "stateMutability": "view",
      "type": "function"
    },
    {
      "inputs": [
        {
          "internalType": "string",
          "name": "player1Alias",
          "type": "string"
        },
        {
          "internalType": "bool",
          "name": "playAsWhite",
          "type": "bool"
        },
        {
          "internalType": "uint256",
          "name": "turnTime",
          "type": "uint256"
        }
      ],
      "name": "initGame",
      "outputs": [
        {
          "internalType": "bytes32",
          "name": "",
          "type": "bytes32"
        }
      ],
      "stateMutability": "payable",
      "type": "function"
    },
    {
      "inputs": [
        {
          "internalType": "bytes32",
          "name": "gameId",
          "type": "bytes32"
        },
        {
          "internalType": "string",
          "name": "player2Alias",
          "type": "string"
        }
      ],
      "name": "joinGame",
      "outputs": [],
      "stateMutability": "nonpayable",
      "type": "function"
    },
    {
      "inputs": [
        {
          "internalType": "bytes32",
          "name": "gameId",
          "type": "bytes32"
        },
        {
          "internalType": "uint256",
          "name": "fromIndex",
          "type": "uint256"
        },
        {
          "internalType": "uint256",
          "name": "toIndex",
          "type": "uint256"
        }
      ],
      "name": "move",
      "outputs": [],
      "stateMutability": "nonpayable",
      "type": "function"
    },
    {
      "inputs": [
        {
          "internalType": "bytes32",
          "name": "gameId",
          "type": "bytes32"
        },
        {
          "internalType": "int8[128]",
          "name": "state",
          "type": "int8[128]"
        },
        {
          "internalType": "uint256",
          "name": "fromIndex",
          "type": "uint256"
        },
        {
          "internalType": "uint256",
          "name": "toIndex",
          "type": "uint256"
        },
        {
          "internalType": "bytes",
          "name": "sigState",
          "type": "bytes"
        }
      ],
      "name": "moveFromState",
      "outputs": [],
      "stateMutability": "nonpayable",
      "type": "function"
    },
    {
      "inputs": [
        {
          "internalType": "bytes32",
          "name": "",
          "type": "bytes32"
        }
      ],
      "name": "openGameIds",
      "outputs": [
        {
          "internalType": "bytes32",
          "name": "",
          "type": "bytes32"
        }
      ],
      "stateMutability": "view",
      "type": "function"
    },
    {
      "inputs": [
        {
          "internalType": "bytes32",
          "name": "gameId",
          "type": "bytes32"
        },
        {
          "internalType": "int8[128]",
          "name": "state",
          "type": "int8[128]"
        },
        {
          "internalType": "address",
          "name": "nextPlayer",
          "type": "address"
        }
      ],
      "name": "setGameState",
      "outputs": [],
      "stateMutability": "nonpayable",
      "type": "function"
    },
    {
      "inputs": [
        {
          "internalType": "bytes32",
          "name": "gameId",
          "type": "bytes32"
        }
      ],
      "name": "surrender",
      "outputs": [],
      "stateMutability": "nonpayable",
      "type": "function"
    }
  ],
  "bytecode": "0x608060405234801561001057600080fd5b50604051610df4380380610df483398101604081905261002f9161004f565b6000805460ff191691151591909117905562195b9960ea1b600355610078565b60006020828403121561006157600080fd5b8151801515811461007157600080fd5b9392505050565b610d6d806100876000396000f3fe60806040526004361061010e5760003560e01c8063996301e4116100a5578063af9c5e7a11610074578063e6378d3a11610059578063e6378d3a146102b4578063e6de139f146102d3578063f579f8821461030057600080fd5b8063af9c5e7a14610263578063b8ab98831461020b57600080fd5b8063996301e4146101535780639e7d24df1461020b578063a8608fc41461022b578063aec1914d1461015357600080fd5b80636f9b0b7d116100e15780636f9b0b7d146101a85780637e84adda146101d55780638f7dcfa3146101f557806395c0c3f61461015357600080fd5b80630a277d28146101135780630b5faf97146101535780636e939d05146101755780636ea6d76d14610195575b600080fd5b34801561011f57600080fd5b5061014061012e36600461083e565b60026020526000908152604090205481565b6040519081526020015b60405180910390f35b34801561015f57600080fd5b5061017361016e36600461083e565b610339565b005b34801561018157600080fd5b50610173610190366004610961565b610364565b6101406101a3366004610a0c565b610397565b3480156101b457600080fd5b506101c86101c336600461083e565b610541565b60405161014a9190610a6b565b3480156101e157600080fd5b506101736101f0366004610abd565b6105a6565b34801561020157600080fd5b5061014060035481565b34801561021757600080fd5b50610173610226366004610afc565b6105bd565b34801561023757600080fd5b50610140610246366004610b28565b600460209081526000928352604080842090915290825290205481565b34801561026f57600080fd5b5061029c61027e36600461083e565b6000908152600660205260409020600401546001600160a01b031690565b6040516001600160a01b03909116815260200161014a565b3480156102c057600080fd5b506101736102cf366004610b52565b5050565b3480156102df57600080fd5b506101406102ee366004610b99565b60056020526000908152604090205481565b34801561030c57600080fd5b5061032061031b36600461083e565b6105ee565b60405161014a9d9c9b9a99989796959493929190610c01565b6000818152600160205260409020600501548190600160a01b900460ff16156102cf576102cf610cb9565b6000858152600160205260409020600501548590600160a01b900460ff161561038f5761038f610cb9565b505050505050565b600060058210156103aa576103aa610cb9565b6040516bffffffffffffffffffffffff193360601b16602082015243603482015260009060540160408051601f198184030181529181528151602092830120600081815260018452919091206005810180547fffffffffffffffffffffff00ffffffffffffffffffffffffffffffffffffffff16905560098101869055600b8101805460ff19169055805473ffffffffffffffffffffffffffffffffffffffff19163317815587519193506104689260029091019190880190610786565b506000818152600160205260408120600781018290556008015561048d346002610ccf565b6000828152600160208181526040808420600601949094553383526005815283832080546004835285852087865283528585205585905560038054600290925293909220919091559082905584156105385760008281526006602090815260408083206004908101805473ffffffffffffffffffffffffffffffffffffffff199081163317909155600190935292208054920180549091166001600160a01b03929092169190911790555b50949350505050565b61054961080a565b60008281526006602052604080822081516110008101928390529290916080918390855b825461010083900a900460000b81526020600192830181810494850194909303909202910180841161056d575094979650505050505050565b60005460ff166105b8576105b8610cb9565b505050565b6000838152600160205260409020600501548390600160a01b900460ff16156105e8576105e8610cb9565b50505050565b60016020819052600091825260409091208054918101546002820180546001600160a01b0394851694909216929161062590610cfc565b80601f016020809104026020016040519081016040528092919081815260200182805461065190610cfc565b801561069e5780601f106106735761010080835404028352916020019161069e565b820191906000526020600020905b81548152906001019060200180831161068157829003601f168201915b5050505050908060030180546106b390610cfc565b80601f01602080910402602001604051908101604052809291908181526020018280546106df90610cfc565b801561072c5780601f106107015761010080835404028352916020019161072c565b820191906000526020600020905b81548152906001019060200180831161070f57829003601f168201915b50505050600483015460058401546006850154600786015460088701546009880154600a890154600b9099015497986001600160a01b03968716989686169750600160a01b90950460ff1695939492939192909160000b8d565b82805461079290610cfc565b90600052602060002090601f0160209004810192826107b457600085556107fa565b82601f106107cd57805160ff19168380011785556107fa565b828001600101855582156107fa579182015b828111156107fa5782518255916020019190600101906107df565b50610806929150610829565b5090565b6040518061100001604052806080906020820280368337509192915050565b5b80821115610806576000815560010161082a565b60006020828403121561085057600080fd5b5035919050565b634e487b7160e01b600052604160045260246000fd5b600082601f83011261087e57600080fd5b60405161100080820182811067ffffffffffffffff821117156108a3576108a3610857565b604052830181858211156108b657600080fd5b845b828110156108e0578035600081810b82146108d1578081fd5b508252602091820191016108b8565b509195945050505050565b600067ffffffffffffffff8084111561090657610906610857565b604051601f8501601f19908116603f0116810190828211818310171561092e5761092e610857565b8160405280935085815286868601111561094757600080fd5b858560208301376000602087830101525050509392505050565b6000806000806000611080868803121561097a57600080fd5b8535945061098b876020880161086d565b93506110208601359250611040860135915061106086013567ffffffffffffffff8111156109b857600080fd5b8601601f810188136109c957600080fd5b6109d8888235602084016108eb565b9150509295509295909350565b600082601f8301126109f657600080fd5b610a05838335602085016108eb565b9392505050565b600080600060608486031215610a2157600080fd5b833567ffffffffffffffff811115610a3857600080fd5b610a44868287016109e5565b93505060208401358015158114610a5a57600080fd5b929592945050506040919091013590565b611000810181836000805b6080811015610a97578251820b845260209384019390920191600101610a76565b5050505092915050565b80356001600160a01b0381168114610ab857600080fd5b919050565b60008060006110408486031215610ad357600080fd5b83359250610ae4856020860161086d565b9150610af36110208501610aa1565b90509250925092565b600080600060608486031215610b1157600080fd5b505081359360208301359350604090920135919050565b60008060408385031215610b3b57600080fd5b610b4483610aa1565b946020939093013593505050565b60008060408385031215610b6557600080fd5b82359150602083013567ffffffffffffffff811115610b8357600080fd5b610b8f858286016109e5565b9150509250929050565b600060208284031215610bab57600080fd5b610a0582610aa1565b6000815180845260005b81811015610bda57602081850181015186830182015201610bbe565b81811115610bec576000602083870101525b50601f01601f19169290920160200192915050565b6001600160a01b038e1681526001600160a01b038d1660208201526101a060408201526000610c346101a083018e610bb4565b8281036060840152610c46818e610bb4565b9150506001600160a01b038b166080830152610c6d60a083018b6001600160a01b03169052565b88151560c08301528760e083015286610100830152856101208301528461014083015283610160830152610ca761018083018460000b9052565b9e9d5050505050505050505050505050565b634e487b7160e01b600052600160045260246000fd5b6000816000190483118215151615610cf757634e487b7160e01b600052601160045260246000fd5b500290565b600181811c90821680610d1057607f821691505b60208210811415610d3157634e487b7160e01b600052602260045260246000fd5b5091905056fea26469706673582212201fc116042766e710faf72bccd7118291cd4a569b7aea73f99306294a650dcfcf64736f6c634300080a0033",
  "linkReferences": {},
  "deployedLinkReferences": {}
}