{
    "_format": "hh-sol-artifact-1",
    "contractName": "Chess",
    "sourceName": "contracts/Chess.sol",
    "abi": [
        {
            "inputs": [
                {
                    "internalType": "bool",
                    "name": "enableDebugging",
                    "type": "bool"
                }
            ],
            "stateMutability": "nonpayable",
            "type": "constructor"
        },
        {
            "anonymous": false,
            "inputs": [
                {
                    "indexed": false,
                    "internalType": "string",
                    "name": "message",
                    "type": "string"
                },
                {
                    "indexed": false,
                    "internalType": "uint256",
                    "name": "value1",
                    "type": "uint256"
                },
                {
                    "indexed": false,
                    "internalType": "uint256",
                    "name": "value2",
                    "type": "uint256"
                },
                {
                    "indexed": false,
                    "internalType": "uint256",
                    "name": "value3",
                    "type": "uint256"
                }
            ],
            "name": "DebugInts",
            "type": "event"
        },
        {
            "anonymous": false,
            "inputs": [
                {
                    "indexed": true,
                    "internalType": "address",
                    "name": "player",
                    "type": "address"
                },
                {
                    "indexed": false,
                    "internalType": "uint256",
                    "name": "score",
                    "type": "uint256"
                }
            ],
            "name": "EloScoreUpdate",
            "type": "event"
        },
        {
            "anonymous": false,
            "inputs": [
                {
                    "indexed": true,
                    "internalType": "bytes32",
                    "name": "gameId",
                    "type": "bytes32"
                },
                {
                    "indexed": true,
                    "internalType": "address",
                    "name": "player",
                    "type": "address"
                }
            ],
            "name": "GameClosed",
            "type": "event"
        },
        {
            "anonymous": false,
            "inputs": [
                {
                    "indexed": true,
                    "internalType": "bytes32",
                    "name": "gameId",
                    "type": "bytes32"
                }
            ],
            "name": "GameDrawOfferRejected",
            "type": "event"
        },
        {
            "anonymous": false,
            "inputs": [
                {
                    "indexed": true,
                    "internalType": "bytes32",
                    "name": "gameId",
                    "type": "bytes32"
                }
            ],
            "name": "GameEnded",
            "type": "event"
        },
        {
            "anonymous": false,
            "inputs": [
                {
                    "indexed": true,
                    "internalType": "bytes32",
                    "name": "gameId",
                    "type": "bytes32"
                },
                {
                    "indexed": true,
                    "internalType": "address",
                    "name": "player1",
                    "type": "address"
                },
                {
                    "indexed": false,
                    "internalType": "string",
                    "name": "player1Alias",
                    "type": "string"
                },
                {
                    "indexed": false,
                    "internalType": "address",
                    "name": "playerWhite",
                    "type": "address"
                },
                {
                    "indexed": false,
                    "internalType": "uint256",
                    "name": "turnTime",
                    "type": "uint256"
                },
                {
                    "indexed": false,
                    "internalType": "uint256",
                    "name": "pot",
                    "type": "uint256"
                }
            ],
            "name": "GameInitialized",
            "type": "event"
        },
        {
            "anonymous": false,
            "inputs": [
                {
                    "indexed": true,
                    "internalType": "bytes32",
                    "name": "gameId",
                    "type": "bytes32"
                },
                {
                    "indexed": true,
                    "internalType": "address",
                    "name": "player1",
                    "type": "address"
                },
                {
                    "indexed": false,
                    "internalType": "string",
                    "name": "player1Alias",
                    "type": "string"
                },
                {
                    "indexed": true,
                    "internalType": "address",
                    "name": "player2",
                    "type": "address"
                },
                {
                    "indexed": false,
                    "internalType": "string",
                    "name": "player2Alias",
                    "type": "string"
                },
                {
                    "indexed": false,
                    "internalType": "address",
                    "name": "playerWhite",
                    "type": "address"
                },
                {
                    "indexed": false,
                    "internalType": "uint256",
                    "name": "pot",
                    "type": "uint256"
                }
            ],
            "name": "GameJoined",
            "type": "event"
        },
        {
            "anonymous": false,
            "inputs": [
                {
                    "indexed": true,
                    "internalType": "bytes32",
                    "name": "gameId",
                    "type": "bytes32"
                },
                {
                    "indexed": false,
                    "internalType": "int8[128]",
                    "name": "state",
                    "type": "int8[128]"
                }
            ],
            "name": "GameStateChanged",
            "type": "event"
        },
        {
            "anonymous": false,
            "inputs": [
                {
                    "indexed": true,
                    "internalType": "bytes32",
                    "name": "gameId",
                    "type": "bytes32"
                },
                {
                    "indexed": false,
                    "internalType": "uint256",
                    "name": "timeoutStarted",
                    "type": "uint256"
                },
                {
                    "indexed": false,
                    "internalType": "int8",
                    "name": "timeoutState",
                    "type": "int8"
                }
            ],
            "name": "GameTimeoutStarted",
            "type": "event"
        },
        {
            "anonymous": false,
            "inputs": [
                {
                    "indexed": true,
                    "internalType": "bytes32",
                    "name": "gameId",
                    "type": "bytes32"
                },
                {
                    "indexed": true,
                    "internalType": "address",
                    "name": "player",
                    "type": "address"
                },
                {
                    "indexed": false,
                    "internalType": "uint256",
                    "name": "fromIndex",
                    "type": "uint256"
                },
                {
                    "indexed": false,
                    "internalType": "uint256",
                    "name": "toIndex",
                    "type": "uint256"
                }
            ],
            "name": "Move",
            "type": "event"
        },
        {
            "inputs": [
                {
                    "internalType": "bytes32",
                    "name": "gameId",
                    "type": "bytes32"
                }
            ],
            "name": "claimTimeout",
            "outputs": [],
            "stateMutability": "nonpayable",
            "type": "function"
        },
        {
            "inputs": [
                {
                    "internalType": "bytes32",
                    "name": "gameId",
                    "type": "bytes32"
                }
            ],
            "name": "claimTimeoutEnded",
            "outputs": [],
            "stateMutability": "nonpayable",
            "type": "function"
        },
        {
            "inputs": [
                {
                    "internalType": "bytes32",
                    "name": "gameId",
                    "type": "bytes32"
                },
                {
                    "internalType": "uint256",
                    "name": "fromIndex",
                    "type": "uint256"
                },
                {
                    "internalType": "uint256",
                    "name": "toIndex",
                    "type": "uint256"
                }
            ],
            "name": "claimTimeoutEndedWithMove",
            "outputs": [],
            "stateMutability": "nonpayable",
            "type": "function"
        },
        {
            "inputs": [
                {
                    "internalType": "bytes32",
                    "name": "gameId",
                    "type": "bytes32"
                }
            ],
            "name": "claimWin",
            "outputs": [],
            "stateMutability": "nonpayable",
            "type": "function"
        },
        {
            "inputs": [
                {
                    "internalType": "bytes32",
                    "name": "gameId",
                    "type": "bytes32"
                }
            ],
            "name": "closePlayerGame",
            "outputs": [],
            "stateMutability": "nonpayable",
            "type": "function"
        },
        {
            "inputs": [
                {
                    "internalType": "bytes32",
                    "name": "gameId",
                    "type": "bytes32"
                }
            ],
            "name": "confirmGameEnded",
            "outputs": [],
            "stateMutability": "nonpayable",
            "type": "function"
        },
        {
            "inputs": [
                {
                    "internalType": "bytes32",
                    "name": "",
                    "type": "bytes32"
                }
            ],
            "name": "games",
            "outputs": [
                {
                    "internalType": "address",
                    "name": "player1",
                    "type": "address"
                },
                {
                    "internalType": "address",
                    "name": "player2",
                    "type": "address"
                },
                {
                    "internalType": "string",
                    "name": "player1Alias",
                    "type": "string"
                },
                {
                    "internalType": "string",
                    "name": "player2Alias",
                    "type": "string"
                },
                {
                    "internalType": "address",
                    "name": "nextPlayer",
                    "type": "address"
                },
                {
                    "internalType": "address",
                    "name": "winner",
                    "type": "address"
                },
                {
                    "internalType": "bool",
                    "name": "ended",
                    "type": "bool"
                },
                {
                    "internalType": "uint256",
                    "name": "pot",
                    "type": "uint256"
                },
                {
                    "internalType": "uint256",
                    "name": "player1Winnings",
                    "type": "uint256"
                },
                {
                    "internalType": "uint256",
                    "name": "player2Winnings",
                    "type": "uint256"
                },
                {
                    "internalType": "uint256",
                    "name": "turnTime",
                    "type": "uint256"
                },
                {
                    "internalType": "uint256",
                    "name": "timeoutStarted",
                    "type": "uint256"
                },
                {
                    "internalType": "int8",
                    "name": "timeoutState",
                    "type": "int8"
                }
            ],
            "stateMutability": "view",
            "type": "function"
        },
        {
            "inputs": [
                {
                    "internalType": "address",
                    "name": "",
                    "type": "address"
                },
                {
                    "internalType": "bytes32",
                    "name": "",
                    "type": "bytes32"
                }
            ],
            "name": "gamesOfPlayers",
            "outputs": [
                {
                    "internalType": "bytes32",
                    "name": "",
                    "type": "bytes32"
                }
            ],
            "stateMutability": "view",
            "type": "function"
        },
        {
            "inputs": [
                {
                    "internalType": "address",
                    "name": "",
                    "type": "address"
                }
            ],
            "name": "gamesOfPlayersHeads",
            "outputs": [
                {
                    "internalType": "bytes32",
                    "name": "",
                    "type": "bytes32"
                }
            ],
            "stateMutability": "view",
            "type": "function"
        },
        {
            "inputs": [
                {
                    "internalType": "bytes32",
                    "name": "hash",
                    "type": "bytes32"
                },
                {
                    "internalType": "uint8",
                    "name": "v",
                    "type": "uint8"
                },
                {
                    "internalType": "bytes32",
                    "name": "r",
                    "type": "bytes32"
                },
                {
                    "internalType": "bytes32",
                    "name": "s",
                    "type": "bytes32"
                }
            ],
            "name": "getAddress",
            "outputs": [
                {
                    "internalType": "address",
                    "name": "",
                    "type": "address"
                }
            ],
            "stateMutability": "pure",
            "type": "function"
        },
        {
            "inputs": [
                {
                    "internalType": "bytes32",
                    "name": "gameId",
                    "type": "bytes32"
                }
            ],
            "name": "getCurrentGameState",
            "outputs": [
                {
                    "internalType": "int8[128]",
                    "name": "",
                    "type": "int8[128]"
                }
            ],
            "stateMutability": "view",
            "type": "function"
        },
        {
            "inputs": [
                {
                    "internalType": "address",
                    "name": "player",
                    "type": "address"
                }
            ],
            "name": "getEloScore",
            "outputs": [
                {
                    "internalType": "uint256",
                    "name": "",
                    "type": "uint256"
                }
            ],
            "stateMutability": "view",
            "type": "function"
        },
        {
            "inputs": [
                {
                    "internalType": "bytes32",
                    "name": "gameId",
                    "type": "bytes32"
                }
            ],
            "name": "getGameData",
            "outputs": [
                {
                    "components": [
                        {
                            "internalType": "address",
                            "name": "player1",
                            "type": "address"
                        },
                        {
                            "internalType": "address",
                            "name": "player2",
                            "type": "address"
                        },
                        {
                            "internalType": "string",
                            "name": "player1Alias",
                            "type": "string"
                        },
                        {
                            "internalType": "string",
                            "name": "player2Alias",
                            "type": "string"
                        },
                        {
                            "internalType": "address",
                            "name": "nextPlayer",
                            "type": "address"
                        },
                        {
                            "internalType": "address",
                            "name": "winner",
                            "type": "address"
                        },
                        {
                            "internalType": "bool",
                            "name": "ended",
                            "type": "bool"
                        },
                        {
                            "internalType": "uint256",
                            "name": "pot",
                            "type": "uint256"
                        },
                        {
                            "internalType": "uint256",
                            "name": "player1Winnings",
                            "type": "uint256"
                        },
                        {
                            "internalType": "uint256",
                            "name": "player2Winnings",
                            "type": "uint256"
                        },
                        {
                            "internalType": "uint256",
                            "name": "turnTime",
                            "type": "uint256"
                        },
                        {
                            "internalType": "uint256",
                            "name": "timeoutStarted",
                            "type": "uint256"
                        },
                        {
                            "internalType": "int8",
                            "name": "timeoutState",
                            "type": "int8"
                        }
                    ],
                    "internalType": "struct TurnBasedGame.Game",
                    "name": "",
                    "type": "tuple"
                }
            ],
            "stateMutability": "view",
            "type": "function"
        },
        {
            "inputs": [
                {
                    "internalType": "address",
                    "name": "player",
                    "type": "address"
                }
            ],
            "name": "getGamesOfPlayer",
            "outputs": [
                {
                    "internalType": "bytes32[]",
                    "name": "",
                    "type": "bytes32[]"
                }
            ],
            "stateMutability": "view",
            "type": "function"
        },
        {
            "inputs": [],
            "name": "getOpenGameIds",
            "outputs": [
                {
                    "internalType": "bytes32[]",
                    "name": "",
                    "type": "bytes32[]"
                }
            ],
            "stateMutability": "view",
            "type": "function"
        },
        {
            "inputs": [
                {
                    "internalType": "bytes32",
                    "name": "gameId",
                    "type": "bytes32"
                }
            ],
            "name": "getWhitePlayer",
            "outputs": [
                {
                    "internalType": "address",
                    "name": "",
                    "type": "address"
                }
            ],
            "stateMutability": "view",
            "type": "function"
        },
        {
            "inputs": [],
            "name": "head",
            "outputs": [
                {
                    "internalType": "bytes32",
                    "name": "",
                    "type": "bytes32"
                }
            ],
            "stateMutability": "view",
            "type": "function"
        },
        {
            "inputs": [
                {
                    "internalType": "string",
                    "name": "player1Alias",
                    "type": "string"
                },
                {
                    "internalType": "bool",
                    "name": "playAsWhite",
                    "type": "bool"
                },
                {
                    "internalType": "uint256",
                    "name": "turnTime",
                    "type": "uint256"
                }
            ],
            "name": "initGame",
            "outputs": [
                {
                    "internalType": "bytes32",
                    "name": "",
                    "type": "bytes32"
                }
            ],
            "stateMutability": "payable",
            "type": "function"
        },
        {
            "inputs": [
                {
                    "internalType": "bytes32",
                    "name": "gameId",
                    "type": "bytes32"
                }
            ],
            "name": "isGameEnded",
            "outputs": [
                {
                    "internalType": "bool",
                    "name": "",
                    "type": "bool"
                }
            ],
            "stateMutability": "view",
            "type": "function"
        },
        {
            "inputs": [
                {
                    "internalType": "bytes32",
                    "name": "gameId",
                    "type": "bytes32"
                },
                {
                    "internalType": "string",
                    "name": "player2Alias",
                    "type": "string"
                }
            ],
            "name": "joinGame",
            "outputs": [],
            "stateMutability": "payable",
            "type": "function"
        },
        {
            "inputs": [
                {
                    "internalType": "bytes32",
                    "name": "gameId",
                    "type": "bytes32"
                },
                {
                    "internalType": "uint256",
                    "name": "fromIndex",
                    "type": "uint256"
                },
                {
                    "internalType": "uint256",
                    "name": "toIndex",
                    "type": "uint256"
                }
            ],
            "name": "move",
            "outputs": [],
            "stateMutability": "nonpayable",
            "type": "function"
        },
        {
            "inputs": [
                {
                    "internalType": "bytes32",
                    "name": "gameId",
                    "type": "bytes32"
                },
                {
                    "internalType": "int8[128]",
                    "name": "state",
                    "type": "int8[128]"
                },
                {
                    "internalType": "uint256",
                    "name": "fromIndex",
                    "type": "uint256"
                },
                {
                    "internalType": "uint256",
                    "name": "toIndex",
                    "type": "uint256"
                },
                {
                    "internalType": "bytes",
                    "name": "sigState",
                    "type": "bytes"
                }
            ],
            "name": "moveFromState",
            "outputs": [],
            "stateMutability": "nonpayable",
            "type": "function"
        },
        {
            "inputs": [
                {
                    "internalType": "bytes32",
                    "name": "gameId",
                    "type": "bytes32"
                }
            ],
            "name": "offerDraw",
            "outputs": [],
            "stateMutability": "nonpayable",
            "type": "function"
        },
        {
            "inputs": [
                {
                    "internalType": "bytes32",
                    "name": "",
                    "type": "bytes32"
                }
            ],
            "name": "openGameIds",
            "outputs": [
                {
                    "internalType": "bytes32",
                    "name": "",
                    "type": "bytes32"
                }
            ],
            "stateMutability": "view",
            "type": "function"
        },
        {
            "inputs": [
                {
                    "internalType": "bytes32",
                    "name": "gameId",
                    "type": "bytes32"
                }
            ],
            "name": "rejectCurrentPlayerDraw",
            "outputs": [],
            "stateMutability": "nonpayable",
            "type": "function"
        },
        {
            "inputs": [
                {
                    "internalType": "bytes32",
                    "name": "gameId",
                    "type": "bytes32"
                },
                {
                    "internalType": "int8[128]",
                    "name": "state",
                    "type": "int8[128]"
                },
                {
                    "internalType": "address",
                    "name": "nextPlayer",
                    "type": "address"
                }
            ],
            "name": "setGameState",
            "outputs": [],
            "stateMutability": "nonpayable",
            "type": "function"
        },
        {
            "inputs": [
                {
                    "internalType": "bytes32",
                    "name": "gameId",
                    "type": "bytes32"
                }
            ],
            "name": "surrender",
            "outputs": [],
            "stateMutability": "nonpayable",
            "type": "function"
        },
        {
            "inputs": [
                {
                    "internalType": "address",
                    "name": "account",
                    "type": "address"
                },
                {
                    "internalType": "bytes32",
                    "name": "hash",
                    "type": "bytes32"
                },
                {
                    "internalType": "uint8",
                    "name": "v",
                    "type": "uint8"
                },
                {
                    "internalType": "bytes32",
                    "name": "r",
                    "type": "bytes32"
                },
                {
                    "internalType": "bytes32",
                    "name": "s",
                    "type": "bytes32"
                }
            ],
            "name": "verify",
            "outputs": [
                {
                    "internalType": "bool",
                    "name": "",
                    "type": "bool"
                }
            ],
            "stateMutability": "pure",
            "type": "function"
        },
        {
            "inputs": [
                {
                    "internalType": "address",
                    "name": "account",
                    "type": "address"
                },
                {
                    "internalType": "bytes32",
                    "name": "hash",
                    "type": "bytes32"
                },
                {
                    "internalType": "bytes",
                    "name": "sig",
                    "type": "bytes"
                }
            ],
            "name": "verifySig",
            "outputs": [
                {
                    "internalType": "bool",
                    "name": "",
                    "type": "bool"
                }
            ],
            "stateMutability": "pure",
            "type": "function"
        },
        {
            "inputs": [
                {
                    "internalType": "bytes32",
                    "name": "gameId",
                    "type": "bytes32"
                }
            ],
            "name": "withdraw",
            "outputs": [],
            "stateMutability": "nonpayable",
            "type": "function"
        }
    ],
    "bytecode": "0x60806040523480156200001157600080fd5b506040516200580638038062005806833981016040819052620000349162000055565b6000805460ff191691151591909117905562195b9960ea1b60035562000080565b6000602082840312156200006857600080fd5b815180151581146200007957600080fd5b9392505050565b61577680620000906000396000f3fe6080604052600436106101cd5760003560e01c8063996301e4116100f7578063b914594411610095578063e6de139f11610064578063e6de139f1461059f578063f0b05bfd146105cc578063f579f882146105ec578063f5b5af161461062557600080fd5b8063b91459441461052a578063d5fdb3341461054a578063e0db67811461056c578063e6378d3a1461058c57600080fd5b8063aaa5a02a116100d1578063aaa5a02a14610491578063aec1914d146104b1578063af9c5e7a146104d1578063b8ab98831461050a57600080fd5b8063996301e4146104195780639e7d24df14610439578063a8608fc41461045957600080fd5b80636143a80a1161016f5780637e84adda1161013e5780637e84adda146103a35780638e19899e146103c35780638f7dcfa3146103e357806395c0c3f6146103f957600080fd5b80636143a80a146103095780636e939d05146103435780636ea6d76d146103635780636f9b0b7d1461037657600080fd5b8063364d0b53116101ab578063364d0b53146102545780634ce8a6491461028c578063506535f3146102b957806354c91295146102e957600080fd5b80630a277d28146101d25780630b5faf971461021257806310cb4d6414610234575b600080fd5b3480156101de57600080fd5b506101ff6101ed36600461497a565b60026020526000908152604090205481565b6040519081526020015b60405180910390f35b34801561021e57600080fd5b5061023261022d36600461497a565b610645565b005b34801561024057600080fd5b5061023261024f36600461497a565b610777565b34801561026057600080fd5b5061027461026f3660046149a4565b610a16565b6040516001600160a01b039091168152602001610209565b34801561029857600080fd5b506102ac6102a736600461497a565b610a7e565b6040516102099190614a2c565b3480156102c557600080fd5b506102d96102d4366004614b52565b610cef565b6040519015158152602001610209565b3480156102f557600080fd5b506101ff610304366004614ba0565b610d1c565b34801561031557600080fd5b506102d961032436600461497a565b600090815260016020526040902060050154600160a01b900460ff1690565b34801561034f57600080fd5b5061023261035e366004614ce7565b610da8565b6101ff610371366004614d57565b61100b565b34801561038257600080fd5b5061039661039136600461497a565b6111cd565b6040516102099190614db6565b3480156103af57600080fd5b506102326103be366004614de2565b611232565b3480156103cf57600080fd5b506102326103de36600461497a565b61135e565b3480156103ef57600080fd5b506101ff60035481565b34801561040557600080fd5b5061023261041436600461497a565b611458565b34801561042557600080fd5b5061023261043436600461497a565b611874565b34801561044557600080fd5b50610232610454366004614e21565b6118a5565b34801561046557600080fd5b506101ff610474366004614e4d565b600460209081526000928352604080842090915290825290205481565b34801561049d57600080fd5b506102326104ac36600461497a565b611bee565b3480156104bd57600080fd5b506102326104cc36600461497a565b611e9d565b3480156104dd57600080fd5b506102746104ec36600461497a565b6000908152600660205260409020600401546001600160a01b031690565b34801561051657600080fd5b50610232610525366004614e21565b611ece565b34801561053657600080fd5b506102d9610545366004614e77565b61240d565b34801561055657600080fd5b5061055f61246c565b6040516102099190614ece565b34801561057857600080fd5b5061023261058736600461497a565b61254b565b61023261059a366004614f12565b61286f565b3480156105ab57600080fd5b506101ff6105ba366004614ba0565b60056020526000908152604090205481565b3480156105d857600080fd5b5061055f6105e7366004614ba0565b612969565b3480156105f857600080fd5b5061060c61060736600461497a565b612a7f565b6040516102099d9c9b9a99989796959493929190614f59565b34801561063157600080fd5b5061023261064036600461497a565b612c17565b6000818152600160205260409020600501548190600160a01b900460ff161561066d57600080fd5b61067682613084565b6000828152600660205260408120600401546001600160a01b0316331461069e5760016106a2565b6000195b60008481526006602052604080822090517fac54c06a000000000000000000000000000000000000000000000000000000008152600481019190915282820b60248201529192509073__$a35913077468e138cb65c110133d46955b$__9063ac54c06a90604401602060405180830381865af4158015610726573d6000803e3d6000fd5b505050506040513d601f19601f8201168201806040525081019061074a9190615011565b600085815260066020526040812091900b9150610768908284613333565b61077157600080fd5b50505050565b6000818152600160205260409020600501548190600160a01b900460ff161561079f57600080fd5b600082815260016020818152604080842081516101a08101835281546001600160a01b0390811682529482015490941692840192909252600282018054918401916107e99061502e565b80601f01602080910402602001604051908101604052809291908181526020018280546108159061502e565b80156108625780601f1061083757610100808354040283529160200191610862565b820191906000526020600020905b81548152906001019060200180831161084557829003601f168201915b5050505050815260200160038201805461087b9061502e565b80601f01602080910402602001604051908101604052809291908181526020018280546108a79061502e565b80156108f45780601f106108c9576101008083540402835291602001916108f4565b820191906000526020600020905b8154815290600101906020018083116108d757829003601f168201915b505050918352505060048201546001600160a01b03908116602083015260058301548082166040840152600160a01b900460ff161515606083015260068301546080830152600783015460a0830152600883015460c0830152600983015460e0830152600a830154610100830152600b9092015460000b61012090910152815191925016331480159061099d575080602001516001600160a01b0316336001600160a01b031614155b6109a657600080fd5b80610180015160000b60011914156109bd57600080fd5b80608001516001600160a01b0316336001600160a01b0316146109df57600080fd5b6000610180820181905260405184917f93fb7313237063c4e9125ede622021437dd841d96bb10a0074558c3c6fde333f91a2505050565b6040805160008082526020820180845287905260ff861692820192909252606081018490526080810183905260019060a0016020604051602081039080840390855afa158015610a6a573d6000803e3d6000fd5b5050604051601f1901519695505050505050565b610b11604051806101a0016040528060006001600160a01b0316815260200160006001600160a01b03168152602001606081526020016060815260200160006001600160a01b0316815260200160006001600160a01b0316815260200160001515815260200160008152602001600081526020016000815260200160008152602001600081526020016000800b81525090565b60008281526001602081815260409283902083516101a08101855281546001600160a01b03908116825293820154909316918301919091526002810180549293919291840191610b609061502e565b80601f0160208091040260200160405190810160405280929190818152602001828054610b8c9061502e565b8015610bd95780601f10610bae57610100808354040283529160200191610bd9565b820191906000526020600020905b815481529060010190602001808311610bbc57829003601f168201915b50505050508152602001600382018054610bf29061502e565b80601f0160208091040260200160405190810160405280929190818152602001828054610c1e9061502e565b8015610c6b5780601f10610c4057610100808354040283529160200191610c6b565b820191906000526020600020905b815481529060010190602001808311610c4e57829003601f168201915b505050918352505060048201546001600160a01b03908116602083015260058301549081166040830152600160a01b900460ff161515606082015260068201546080820152600782015460a0820152600882015460c0820152600982015460e0820152600a820154610100820152600b9091015460000b6101209091015292915050565b6000610cfd85858585610a16565b6001600160a01b0316866001600160a01b031614905095945050505050565b6040516360fa41b960e01b8152600760048201526001600160a01b038216602482015260009073__$a486789ff8c9d1035341fa2865e2dde439$__906360fa41b990604401602060405180830381865af4158015610d7e573d6000803e3d6000fd5b505050506040513d601f19601f82011682018060405250810190610da29190615069565b92915050565b6000858152600160205260409020600501548590600160a01b900460ff1615610dd057600080fd5b6000868152600160205260409020546001600160a01b03163314801590610e125750600086815260016020819052604090912001546001600160a01b03163314155b15610e1c57600080fd5b6000868152600160205260408120546001600160a01b0316331415610e5d5750600086815260016020819052604090912001546001600160a01b0316610e77565b506000868152600160205260409020546001600160a01b03165b610eaa818789604051602001610e8e929190615082565b604051602081830303815290604052805190602001208561240d565b610eb357600080fd5b60008781526006602052604081205469010000000000000000008104820b91610eed9160809168010000000000000000909104900b6150ed565b610ef7919061516e565b60000b866009602002015160808860086020020151610f1691906150ed565b610f20919061516e565b60000b1215610f2e57600080fd5b6000878152600660205260408120600401546001600160a01b03163314610f5757600019610f5a565b60015b600089815260066020526040908190209051631482911760e01b815291925073__$a35913077468e138cb65c110133d46955b$__91631482911791610fa5918b9086906004016151b1565b60006040518083038186803b158015610fbd57600080fd5b505af4158015610fd1573d6000803e3d6000fd5b505050600089815260016020526040902060040180546001600160a01b03191633179055506110018887876118a5565b5050505050505050565b6000806110198585856134df565b6000818152600660205260409081902090517f25b65940000000000000000000000000000000000000000000000000000000008152600481019190915260016024820181905291925073__$a35913077468e138cb65c110133d46955b$__906325b659409060440160006040518083038186803b15801561109957600080fd5b505af41580156110ad573d6000803e3d6000fd5b505050508415611103576000828152600660209081526040808320600490810180546001600160a01b03199081163317909155600190935292208054920180549091166001600160a01b03929092169190911790555b600082815260016020818152604080842080546006808552958390206004015494909352600981015494015490516001600160a01b039283169487947f162575592dab4c52028eda696846d3cd56c60b3cb8a2dc55dddf0953b8e3e39694611172948e949290911692916151f8565b60405180910390a360008281526006602052604090819020905183917fa90ab0b2ea4f4aa7bc1fe53bb56968e4909efc42a5b919f4bde19e4fcf7412f1916111ba9190615230565b60405180910390a25090505b9392505050565b6111d56148c2565b60008281526006602052604080822081516110008101928390529290916080918390855b825461010083900a900460000b8152602060019283018181049485019490930390920291018084116111f9575094979650505050505050565b60005460ff1661124157600080fd5b6000838152600660205260408120600401546001600160a01b0383811691161461126d57600019611270565b60015b600085815260066020526040908190209051631482911760e01b815291925073__$a35913077468e138cb65c110133d46955b$__916314829117916112bb91879086906004016151b1565b60006040518083038186803b1580156112d357600080fd5b505af41580156112e7573d6000803e3d6000fd5b505050600085815260016020908152604080832060040180546001600160a01b0319166001600160a01b03881617905560069091529081902090518692507fa90ab0b2ea4f4aa7bc1fe53bb56968e4909efc42a5b919f4bde19e4fcf7412f19161135091615230565b60405180910390a250505050565b6000818152600160205260408120546001600160a01b031633148015611394575060008281526001602052604090206007015415155b156113db575060008181526001602052604080822060070180549083905590519091339183156108fc0291849190818181858888f193505050506113d757600080fd5b5050565b600082815260016020819052604090912001546001600160a01b031633148015611415575060008281526001602052604090206008015415155b156101cd575060008181526001602052604080822060080180549083905590519091339183156108fc0291849190818181858888f193505050506113d757600080fd5b6000818152600160205260409020600501548190600160a01b900460ff161561148057600080fd5b611489826135fa565b600082815260016020818152604080842081516101a08101835281546001600160a01b0390811682529482015490941692840192909252600282018054918401916114d39061502e565b80601f01602080910402602001604051908101604052809291908181526020018280546114ff9061502e565b801561154c5780601f106115215761010080835404028352916020019161154c565b820191906000526020600020905b81548152906001019060200180831161152f57829003601f168201915b505050505081526020016003820180546115659061502e565b80601f01602080910402602001604051908101604052809291908181526020018280546115919061502e565b80156115de5780601f106115b3576101008083540402835291602001916115de565b820191906000526020600020905b8154815290600101906020018083116115c157829003601f168201915b50505091835250506004828101546001600160a01b039081166020808501919091526005850154808316604080870191909152600160a01b90910460ff16151560608601526006860154608086015260078087015460a080880191909152600888015460c0880152600988015460e0880152600a880154610100880152600b9097015460000b61012090960195909552865191870151958701519051638961807160e01b8152938401949094528116602483015292831660448201529116606482015290915073__$a486789ff8c9d1035341fa2865e2dde439$__9063896180719060840160006040518083038186803b1580156116db57600080fd5b505af41580156116ef573d6000803e3d6000fd5b505082516040516360fa41b960e01b8152600760048201526001600160a01b039091166024820181905292507f436cd2e07aa4cba8ae9d50f800c208d467149afb08b8724a312e2c301c336e82915073__$a486789ff8c9d1035341fa2865e2dde439$__906360fa41b990604401602060405180830381865af415801561177a573d6000803e3d6000fd5b505050506040513d601f19601f8201168201806040525081019061179e9190615069565b60405190815260200160405180910390a260208101516040516360fa41b960e01b8152600760048201526001600160a01b0390911660248201819052907f436cd2e07aa4cba8ae9d50f800c208d467149afb08b8724a312e2c301c336e829073__$a486789ff8c9d1035341fa2865e2dde439$__906360fa41b990604401602060405180830381865af4158015611839573d6000803e3d6000fd5b505050506040513d601f19601f8201168201806040525081019061185d9190615069565b6040519081526020015b60405180910390a2505050565b6000818152600160205260409020600501548190600160a01b900460ff161561189c57600080fd5b61148982613a12565b6000838152600160205260409020600501548390600160a01b900460ff16156118cd57600080fd5b6000848152600160205260408120600b01546002910b148015611928575060008481526001602052604090206009015461190890603c615455565b6000858152600160205260409020600a01546119249190615474565b4210155b801561194e57506000848152600160205260409020600401546001600160a01b03163314155b156119f1576000848152600660205260409081902060048082015492516356e024e560e11b81529081019190915260248101859052604481018490526001600160a01b03909116331415606482015273__$a35913077468e138cb65c110133d46955b$__9063adc049ca9060840160006040518083038186803b1580156119d457600080fd5b505af41580156119e8573d6000803e3d6000fd5b50505050611b71565b6000848152600160205260409020600401546001600160a01b03163314611a1757600080fd5b6000848152600160205260408120600b0154900b15611a4a576000848152600160205260409020600b01805460ff191690555b6000848152600660205260409081902060048082015492516356e024e560e11b81529081019190915260248101859052604481018490526001600160a01b039091163314606482015273__$a35913077468e138cb65c110133d46955b$__9063adc049ca9060840160006040518083038186803b158015611aca57600080fd5b505af4158015611ade573d6000803e3d6000fd5b5050506000858152600160205260409020546001600160a01b03163314159050611b3e57600084815260016020819052604090912090810154600490910180546001600160a01b0319166001600160a01b03909216919091179055611b71565b60008481526001602052604090208054600490910180546001600160a01b0319166001600160a01b039092169190911790555b6040805184815260208101849052339186917f8c96aa96b948031932de222ce53642a37def495d79ab00b4ada2b95c07d26583910160405180910390a360008481526006602052604090819020905185917fa90ab0b2ea4f4aa7bc1fe53bb56968e4909efc42a5b919f4bde19e4fcf7412f1916113509190615230565b6000818152600160205260409020600501548190600160a01b900460ff1615611c1657600080fd5b600082815260016020818152604080842081516101a08101835281546001600160a01b039081168252948201549094169284019290925260028201805491840191611c609061502e565b80601f0160208091040260200160405190810160405280929190818152602001828054611c8c9061502e565b8015611cd95780601f10611cae57610100808354040283529160200191611cd9565b820191906000526020600020905b815481529060010190602001808311611cbc57829003601f168201915b50505050508152602001600382018054611cf29061502e565b80601f0160208091040260200160405190810160405280929190818152602001828054611d1e9061502e565b8015611d6b5780601f10611d4057610100808354040283529160200191611d6b565b820191906000526020600020905b815481529060010190602001808311611d4e57829003601f168201915b505050918352505060048201546001600160a01b03908116602083015260058301548082166040840152600160a01b900460ff161515606083015260068301546080830152600783015460a0830152600883015460c0830152600983015460e0830152600a830154610100830152600b9092015460000b610120909101528151919250163314801590611e14575080602001516001600160a01b0316336001600160a01b031614155b611e1d57600080fd5b61018081015160000b611e2f57600080fd5b80608001516001600160a01b0316336001600160a01b031614611e5157600080fd5b4261016082018190526002610180830181905260408051928352602083019190915284917f12756c8b9561cc3ee7eda20b88ecf6fa8a596ebe05a1d19be769e2dd39da1cde9101611867565b6000818152600160205260409020600501548190600160a01b900460ff1615611ec557600080fd5b61148982613dca565b6000838152600160205260409020600501548390600160a01b900460ff1615611ef657600080fd5b600084815260016020818152604080842081516101a08101835281546001600160a01b039081168252948201549094169284019290925260028201805491840191611f409061502e565b80601f0160208091040260200160405190810160405280929190818152602001828054611f6c9061502e565b8015611fb95780601f10611f8e57610100808354040283529160200191611fb9565b820191906000526020600020905b815481529060010190602001808311611f9c57829003601f168201915b50505050508152602001600382018054611fd29061502e565b80601f0160208091040260200160405190810160405280929190818152602001828054611ffe9061502e565b801561204b5780601f106120205761010080835404028352916020019161204b565b820191906000526020600020905b81548152906001019060200180831161202e57829003601f168201915b505050918352505060048201546001600160a01b03908116602083015260058301548082166040840152600160a01b900460ff161515606083015260068301546080830152600783015460a0830152600883015460c0830152600983015460e0830152600a830154610100830152600b9092015460000b6101209091015281519192501633148015906120f4575080602001516001600160a01b0316336001600160a01b031614155b156120fe57600080fd5b61014081015161210f90603c615455565b81610160015161211f9190615474565b42101561212b57600080fd5b80608001516001600160a01b0316336001600160a01b0316141561214e57600080fd5b80610180015160000b60021461216357600080fd5b61216e8585856118a5565b600160c08201523360a0820181905281516001600160a01b031614156121b1576000858152600160205260408120600681018054600790920191909155556121d0565b6000858152600160205260408120600681018054600890920191909155555b8051602082015160a0830151604051638961807160e01b8152600760048201526001600160a01b039384166024820152918316604483015291909116606482015273__$a486789ff8c9d1035341fa2865e2dde439$__9063896180719060840160006040518083038186803b15801561224857600080fd5b505af415801561225c573d6000803e3d6000fd5b505082516040516360fa41b960e01b8152600760048201526001600160a01b039091166024820181905292507f436cd2e07aa4cba8ae9d50f800c208d467149afb08b8724a312e2c301c336e82915073__$a486789ff8c9d1035341fa2865e2dde439$__906360fa41b990604401602060405180830381865af41580156122e7573d6000803e3d6000fd5b505050506040513d601f19601f8201168201806040525081019061230b9190615069565b60405190815260200160405180910390a260208101516040516360fa41b960e01b8152600760048201526001600160a01b0390911660248201819052907f436cd2e07aa4cba8ae9d50f800c208d467149afb08b8724a312e2c301c336e829073__$a486789ff8c9d1035341fa2865e2dde439$__906360fa41b990604401602060405180830381865af41580156123a6573d6000803e3d6000fd5b505050506040513d601f19601f820116820180604052508101906123ca9190615069565b60405190815260200160405180910390a260405185907fdfbf0a97d8d3b796cd819f1c2fdebb01eabf975797feee4dc7c43b0794b7073f90600090a25050505050565b600080600080845160411461242857600093505050506111c6565b50505060208201516040830151604184015160ff16601b81101561245457612451601b8261548c565b90505b6124618787838686610cef565b979650505050505050565b6003546060906000905b8062195b9960ea1b146124a7578161248d816154b1565b600092835260026020526040909220549192506124769050565b5060008167ffffffffffffffff8111156124c3576124c3614bbb565b6040519080825280602002602001820160405280156124ec578160200160208202803683370190505b5060035490915060005b838110156125425781838281518110612511576125116150c1565b602090810291909101810191909152600092835260029052604090912054908061253a816154b1565b9150506124f6565b50909392505050565b6000818152600160205260409020600501548190600160a01b900460ff161561257357600080fd5b600082815260016020818152604080842081516101a08101835281546001600160a01b0390811682529482015490941692840192909252600282018054918401916125bd9061502e565b80601f01602080910402602001604051908101604052809291908181526020018280546125e99061502e565b80156126365780601f1061260b57610100808354040283529160200191612636565b820191906000526020600020905b81548152906001019060200180831161261957829003601f168201915b5050505050815260200160038201805461264f9061502e565b80601f016020809104026020016040519081016040528092919081815260200182805461267b9061502e565b80156126c85780601f1061269d576101008083540402835291602001916126c8565b820191906000526020600020905b8154815290600101906020018083116126ab57829003601f168201915b505050918352505060048201546001600160a01b03908116602083015260058301548082166040840152600160a01b900460ff161515606083015260068301546080830152600783015460a0830152600883015460c0830152600983015460e0830152600a830154610100830152600b9092015460000b610120909101528151919250163314801590612771575080602001516001600160a01b0316336001600160a01b031614155b61277a57600080fd5b61018081015160000b1580159061279a575080610180015160000b600214155b6127a357600080fd5b80610180015160000b60021480156127e557506101408101516127c7906002615455565b6127d290603c615455565b8161016001516127e29190615474565b42105b6127ee57600080fd5b80608001516001600160a01b0316336001600160a01b0316141561281a57600119610180820152612824565b6000196101808201525b42610160820181905261018082015160405185927f12756c8b9561cc3ee7eda20b88ecf6fa8a596ebe05a1d19be769e2dd39da1cde926118679291825260000b602082015260400190565b6128798282613f32565b6000828152600660205260409020600401546001600160a01b03166128e8576000828152600660209081526040808320600490810180546001600160a01b0319908116331790915560019384905291909320918201549190920180549092166001600160a01b03919091161790555b600082815260016020818152604080842080840154815460068086529684902060040154959094529481015491516001600160a01b03958616959384169488947f4b1c5f85898b84f7392653411c2d5a277fd3fb774a6e72e3756b2d460ea5332b9461295d94600201938a93909216916154cc565b60405180910390a45050565b6001600160a01b038116600090815260056020526040812054606091815b80156129c75781612997816154b1565b6001600160a01b038716600090815260046020908152604080832095835294905292909220549192506129879050565b5060008167ffffffffffffffff8111156129e3576129e3614bbb565b604051908082528060200260200182016040528015612a0c578160200160208202803683370190505b5090508260005b83811015612a745781838281518110612a2e57612a2e6150c1565b6020908102919091018101919091526001600160a01b03881660009081526004825260408082209482529390915291909120549080612a6c816154b1565b915050612a13565b509095945050505050565b60016020819052600091825260409091208054918101546002820180546001600160a01b03948516949092169291612ab69061502e565b80601f0160208091040260200160405190810160405280929190818152602001828054612ae29061502e565b8015612b2f5780601f10612b0457610100808354040283529160200191612b2f565b820191906000526020600020905b815481529060010190602001808311612b1257829003601f168201915b505050505090806003018054612b449061502e565b80601f0160208091040260200160405190810160405280929190818152602001828054612b709061502e565b8015612bbd5780601f10612b9257610100808354040283529160200191612bbd565b820191906000526020600020905b815481529060010190602001808311612ba057829003601f168201915b50505050600483015460058401546006850154600786015460088701546009880154600a890154600b9099015497986001600160a01b03968716989686169750600160a01b90950460ff1695939492939192909160000b8d565b600081815260016020818152604080842081516101a08101835281546001600160a01b039081168252948201549094169284019290925260028201805491840191612c619061502e565b80601f0160208091040260200160405190810160405280929190818152602001828054612c8d9061502e565b8015612cda5780601f10612caf57610100808354040283529160200191612cda565b820191906000526020600020905b815481529060010190602001808311612cbd57829003601f168201915b50505050508152602001600382018054612cf39061502e565b80601f0160208091040260200160405190810160405280929190818152602001828054612d1f9061502e565b8015612d6c5780601f10612d4157610100808354040283529160200191612d6c565b820191906000526020600020905b815481529060010190602001808311612d4f57829003601f168201915b505050918352505060048201546001600160a01b0390811660208084019190915260058401548083166040850152600160a01b900460ff161515606084015260068401546080840152600784015460a0840152600884015460c0840152600984015460e0840152600a840154610100840152600b9093015460000b6101209092019190915290820151919250161580612e0657508060c001515b612e0f57600080fd5b80516001600160a01b03163314801590612e3f575080602001516001600160a01b0316336001600160a01b031614155b15612e4957600080fd5b8060c00151612e75576000828152600160205260409020600501805460ff60a01b1916600160a01b1790555b60208101516001600160a01b0316612f5657816003541415612eb457600380546000908152600260205260408082205490925583815290812055612f37565b6003545b8062195b9960ea1b14158015612ee2575060008181526002602052604090205462195b9960ea1b14155b15612f3557600081815260026020526040902054831415612f215760008381526002602052604080822080548484529183209190915584825255612f35565b600090815260026020526040902054612eb8565b505b6000828152600160205260408120600681018054600790920191909155555b3360009081526005602052604090205482811415612fa957336000818152600460209081526040808320858452808352818420549484526005835281842094909455600354835292905290812055613052565b805b8015801590612fda575033600090815260046020908152604080832084845290915290205462195b9960ea1b14155b15613050573360009081526004602090815260408083208484529091529020548414156130315733600090815260046020908152604080832087845290915280822080548484529183209190915585825255613050565b3360009081526004602090815260408083209383529290522054612fab565b505b604051339084907f355481a0787ef046ee5e4c47a8cfd2b43e453bff08274f9dbba1a737218f423790600090a3505050565b6000818152600160205260409020600501548190600160a01b900460ff16156130ac57600080fd5b600082815260016020818152604080842081516101a08101835281546001600160a01b0390811682529482015490941692840192909252600282018054918401916130f69061502e565b80601f01602080910402602001604051908101604052809291908181526020018280546131229061502e565b801561316f5780601f106131445761010080835404028352916020019161316f565b820191906000526020600020905b81548152906001019060200180831161315257829003601f168201915b505050505081526020016003820180546131889061502e565b80601f01602080910402602001604051908101604052809291908181526020018280546131b49061502e565b80156132015780601f106131d657610100808354040283529160200191613201565b820191906000526020600020905b8154815290600101906020018083116131e457829003601f168201915b505050918352505060048201546001600160a01b03908116602083015260058301548082166040840152600160a01b900460ff161515606083015260068301546080830152600783015460a0830152600883015460c0830152600983015460e0830152600a830154610100830152600b9092015460000b6101209091015281519192501633148015906132aa575080602001516001600160a01b0316336001600160a01b031614155b6132b357600080fd5b61018081015160000b6132c557600080fd5b80608001516001600160a01b0316336001600160a01b0316146132e757600080fd5b4261016082018190526001610180830181905260408051928352602083019190915284917f12756c8b9561cc3ee7eda20b88ecf6fa8a596ebe05a1d19be769e2dd39da1cde9101611867565b6000805b600881101561340a5760006133668661336084600781111561335b5761335b6155a6565b6140ce565b8761413c565b90508060000b600019146133f75760008682820b6080811061338a5761338a6150c1565b6020810490910154601f9091166101000a9004600090810b91506133ae86836150ed565b60000b12156133f5576000856133c4600c6141b9565b6133ce91906150ed565b90506133e1888460ff168985858b6141d9565b156133f35760019450505050506111c6565b505b505b5080613402816154b1565b915050613337565b5060005b60088110156134d457600060408051806040016040528060088152602001671f212e324e525f6160c01b815250838151811061344c5761344c6150c1565b016020015161345e9060f81c8761516e565b61346891906155bc565b9050608881166134c15760006134918260000b600c81111561348c5761348c6155a6565b6141b9565b905061349d60086141b9565b60000b6134aa86836150ed565b60000b14156134bf57600193505050506111c6565b505b50806134cc816154b1565b91505061340e565b506000949350505050565b600060058210156134ef57600080fd5b6040516bffffffffffffffffffffffff193360601b16602082015243603482015260009060540160408051601f1981840301815291815281516020928301206000818152600184529190912060058101805460ff60a01b1916905560098101869055600b8101805460ff1916905580546001600160a01b03191633178155875191935061358592600290910191908801906148e1565b50600081815260016020526040812060078101829055600801556135aa346002615455565b600082815260016020908152604080832060060193909355338252600581528282208054600483528484208685528352848420558490556003805460029092529290912055819055949350505050565b6000818152600160205260409020600501548190600160a01b900460ff161561362257600080fd5b600082815260016020818152604080842081516101a08101835281546001600160a01b03908116825294820154909416928401929092526002820180549184019161366c9061502e565b80601f01602080910402602001604051908101604052809291908181526020018280546136989061502e565b80156136e55780601f106136ba576101008083540402835291602001916136e5565b820191906000526020600020905b8154815290600101906020018083116136c857829003601f168201915b505050505081526020016003820180546136fe9061502e565b80601f016020809104026020016040519081016040528092919081815260200182805461372a9061502e565b80156137775780601f1061374c57610100808354040283529160200191613777565b820191906000526020600020905b81548152906001019060200180831161375a57829003601f168201915b505050918352505060048201546001600160a01b03908116602083015260058301548082166040840152600160a01b900460ff161515606083015260068301546080830152600783015460a0830152600883015460c0830152600983015460e0830152600a830154610100830152600b9092015460000b610120909101528151919250163314801590613820575080602001516001600160a01b0316336001600160a01b031614155b61382957600080fd5b61018081015160000b1561383c57600080fd5b80608001516001600160a01b0316336001600160a01b0316146139045780610180015160000b60011914156101cd57600160c082018190526000848152602091909152604090206006015461389390600290615613565b60008481526001602052604090206007810191909155600601546138b990600290615613565b60008481526001602052604080822060088101939093556006909201819055905184917fdfbf0a97d8d3b796cd819f1c2fdebb01eabf975797feee4dc7c43b0794b7073f91a2505050565b80610180015160000b600019141561393e57600160c082018190526000848152602091909152604090206006015461389390600290615613565b80610180015160000b6001148061395d575080610180015160000b6002145b156101cd57600160c082015280516001600160a01b03163314156139b2576020808201516001600160a01b031660a08301526000848152600190915260408120600681018054600890920191909155556139e1565b80516001600160a01b031660a08201526000838152600160205260408120600681018054600790920191909155555b60405183907fdfbf0a97d8d3b796cd819f1c2fdebb01eabf975797feee4dc7c43b0794b7073f90600090a25b505050565b6000818152600160205260409020600501548190600160a01b900460ff1615613a3a57600080fd5b600082815260016020818152604080842081516101a08101835281546001600160a01b039081168252948201549094169284019290925260028201805491840191613a849061502e565b80601f0160208091040260200160405190810160405280929190818152602001828054613ab09061502e565b8015613afd5780601f10613ad257610100808354040283529160200191613afd565b820191906000526020600020905b815481529060010190602001808311613ae057829003601f168201915b50505050508152602001600382018054613b169061502e565b80601f0160208091040260200160405190810160405280929190818152602001828054613b429061502e565b8015613b8f5780601f10613b6457610100808354040283529160200191613b8f565b820191906000526020600020905b815481529060010190602001808311613b7257829003601f168201915b505050918352505060048201546001600160a01b03908116602083015260058301548082166040840152600160a01b900460ff161515606083015260068301546080830152600783015460a0830152600883015460c0830152600983015460e0830152600a830154610100830152600b9092015460000b610120909101528151919250163314801590613c38575080602001516001600160a01b0316336001600160a01b031614155b15613c4257600080fd5b61018081015160000b1580613c5f575080610180015160000b6002145b15613c6957600080fd5b610140810151613c7a90603c615455565b816101600151613c8a9190615474565b421015613c9657600080fd5b80608001516001600160a01b0316336001600160a01b03161415613cee5780610180015160000b60011914156101cd57600160c082018190526000848152602091909152604090206006015461389390600290615613565b80610180015160000b6000191415613d2857600160c082018190526000848152602091909152604090206006015461389390600290615613565b80610180015160000b600114156101cd57600160c08201523360a0820181905281516001600160a01b03161415613d7c576000838152600160205260408120600681018054600790920191909155556139e1565b60008381526001602052604081206006810180546008909201919091555560405183907fdfbf0a97d8d3b796cd819f1c2fdebb01eabf975797feee4dc7c43b0794b7073f90600090a2505050565b6000818152600160205260409020600501548190600160a01b900460ff1615613df257600080fd5b6000828152600160205260409020600501546001600160a01b031615613e1757600080fd5b6000828152600160205260409020546001600160a01b0316331415613e805760008281526001602081905260408220908101546005820180546001600160a01b0319166001600160a01b0390921691909117905560068101805460089092019190915555613ee5565b600082815260016020819052604090912001546001600160a01b03163314156101cd57600082815260016020526040812080546005820180546001600160a01b0319166001600160a01b03909216919091179055600681018054600790920191909155555b600082815260016020526040808220600501805460ff60a01b1916600160a01b1790555183917fdfbf0a97d8d3b796cd819f1c2fdebb01eabf975797feee4dc7c43b0794b7073f91a25050565b600082815260016020819052604090912001546001600160a01b031615613f5857600080fd5b6000828152600160205260409020600601543414613f7557600080fd5b60008281526001602052604081206006018054349290613f96908490615474565b9091555050600082815260016020818152604090922090810180546001600160a01b031916331790558251613fd3926003909201918401906148e1565b506000828152600160205260409020546001600160a01b03163314614023573360008181526005602081815260408084208054600484528286208987528452918520919091559390925290528290555b81600354141561404d57506003805460009081526002602052604080822054909255918252812055565b6003545b8062195b9960ea1b1415801561407b575060008181526002602052604090205462195b9960ea1b14155b15613a0d576000818152600260205260409020548314156140ba5760008381526002602052604080822080548484529183209190915584825255505050565b600090815260026020526040902054614051565b60006040518060400160405280600881526020017f30314151504f3f2f000000000000000000000000000000000000000000000000815250826007811115614118576141186155a6565b81518110614128576141286150c1565b0160200151610da29060f81c603f1961516e565b600080614149848461516e565b60000b90505b608881166141ad5761416160066141b9565b60000b858260808110614176576141766150c1565b6020810490910154601f9091166101000a900460000b146141985790506111c6565b6141a6600085900b82615627565b905061414f565b50600019949350505050565b600081600c8111156141cd576141cd6155a6565b610da290600519615627565b6000806141e68787614720565b60000b905060006141f682614802565b6010148061420c575061420882614802565b6001145b159050614219600c6141b9565b60000b6142288760000b614802565b14156143865786614239838a615627565b141561424a57600192505050614716565b614255898986613333565b1561426557600092505050614716565b61426f60006141b9565b60000b8660000b14156142f05787600414801561428f57508460000b6000145b156142f0578660021480156142b2575060006142ac8a6007614820565b60000b12155b156142c257600192505050614716565b8660061480156142e0575060006142da8a6008614820565b60000b12155b156142f057600192505050614716565b6142fa600c6141b9565b60000b8660000b141561437b5787607414801561431a57508460000b6000145b1561437b5786607214801561433d575060006143378a6005614820565b60000b12155b1561434d57600192505050614716565b86607614801561436b575060006143658a6006614820565b60000b12155b1561437b57600192505050614716565b600092505050614716565b61439060096141b9565b60000b61439f8760000b614802565b14806143c157506143b0600b6141b9565b60000b6143bf8760000b614802565b145b806143e257506143d1600a6141b9565b60000b6143e08760000b614802565b145b156144a7578015801561440b57506143fa60096141b9565b60000b6144098760000b614802565b145b8061443457508080156144345750614423600a6141b9565b60000b6144328760000b614802565b145b1561444457600092505050614716565b8760005b600881101561449a5788821415614466576001945050505050614716565b6144708483615627565b91506088821615614488576000945050505050614716565b80614492816154b1565b915050614448565b5060009350505050614716565b6144b160076141b9565b60000b6144c08760000b614802565b1415614670576144d060056141b9565b60000b8660000b1480156144e45750600082125b8061450857506144f460076141b9565b60000b8660000b1480156145085750600082135b1561451857600092505050614716565b806145da57600261452883614802565b101561453957600092505050614716565b86614544838a615627565b141561456c5761455460066141b9565b60000b8560000b141561456c57600192505050614716565b8682614578818b615627565b6145829190615627565b141561437b57600061459560108a615613565b905080600114806145a65750806006145b156145ce576145b560066141b9565b60000b8660000b14156145ce5760019350505050614716565b50600092505050614716565b866145e5838a615627565b141561437b576145f586866150ed565b60000b6146655761460660056141b9565b60000b8660000b1480156146265750866146218a600a614820565b60000b145b8061436b575061463660076141b9565b60000b8660000b14801561436b5750866146518a6009614820565b60000b141561437b57600192505050614716565b600192505050614716565b61467a60086141b9565b60000b6146898760000b614802565b141561470f5760005b60088110156145ce578760408051806040016040528060088152602001671f212e324e525f6160c01b81525083815181106146cf576146cf6150c1565b01602001516146e19060f81d8c615627565b6146eb9190615666565b14156146fd5760019350505050614716565b80614707816154b1565b915050614692565b6000925050505b9695505050505050565b600081831181600861473a6147358688615666565b614802565b109050600061474a6008866156a5565b6147556008886156a5565b14905060006147656008876156a5565b6147706008896156a5565b11905083156147be5781156147945761478960006140ce565b945050505050610da2565b82156147a45761478960066140ce565b80156147b45761478960076140ce565b61478960016140ce565b81156147ce5761478960046140ce565b82156147de5761478960026140ce565b80156147ee5761478960056140ce565b61478960036140ce565b5050505092915050565b600080821261480f575090565b610da2826000196156b9565b919050565b60008261482c8361485a565b6080811061483c5761483c6150c1565b6020810490910154601f9091166101000a900460000b905092915050565b60006040518060400160405280600b81526020017f08097b0b384e4f3e3f3d4d00000000000000000000000000000000000000000081525082600a8111156148a4576148a46155a6565b815181106148b4576148b46150c1565b016020015160f81c92915050565b6040518061100001604052806080906020820280368337509192915050565b8280546148ed9061502e565b90600052602060002090601f01602090048101928261490f5760008555614955565b82601f1061492857805160ff1916838001178555614955565b82800160010185558215614955579182015b8281111561495557825182559160200191906001019061493a565b50614961929150614965565b5090565b5b808211156149615760008155600101614966565b60006020828403121561498c57600080fd5b5035919050565b803560ff8116811461481b57600080fd5b600080600080608085870312156149ba57600080fd5b843593506149ca60208601614993565b93969395505050506040820135916060013590565b6000815180845260005b81811015614a05576020818501810151868301820152016149e9565b81811115614a17576000602083870101525b50601f01601f19169290920160200192915050565b60208152614a466020820183516001600160a01b03169052565b60006020830151614a6260408401826001600160a01b03169052565b5060408301516101a0806060850152614a7f6101c08501836149df565b91506060850151601f19858403016080860152614a9c83826149df565b9250506080850151614ab960a08601826001600160a01b03169052565b5060a08501516001600160a01b03811660c08601525060c085015180151560e08601525060e08501516101008581019190915285015161012080860191909152850151610140808601919091528501516101608086019190915285015161018080860191909152850151614b318286018260000b9052565b5090949350505050565b80356001600160a01b038116811461481b57600080fd5b600080600080600060a08688031215614b6a57600080fd5b614b7386614b3b565b945060208601359350614b8860408701614993565b94979396509394606081013594506080013592915050565b600060208284031215614bb257600080fd5b6111c682614b3b565b634e487b7160e01b600052604160045260246000fd5b8060000b8114614be057600080fd5b50565b600082601f830112614bf457600080fd5b60405161100080820182811067ffffffffffffffff82111715614c1957614c19614bbb565b60405283018185821115614c2c57600080fd5b845b82811015614c4f578035614c4181614bd1565b825260209182019101614c2e565b509195945050505050565b600082601f830112614c6b57600080fd5b813567ffffffffffffffff80821115614c8657614c86614bbb565b604051601f8301601f19908116603f01168101908282118183101715614cae57614cae614bbb565b81604052838152866020858801011115614cc757600080fd5b836020870160208301376000602085830101528094505050505092915050565b60008060008060006110808688031215614d0057600080fd5b85359450614d118760208801614be3565b93506110208601359250611040860135915061106086013567ffffffffffffffff811115614d3e57600080fd5b614d4a88828901614c5a565b9150509295509295909350565b600080600060608486031215614d6c57600080fd5b833567ffffffffffffffff811115614d8357600080fd5b614d8f86828701614c5a565b93505060208401358015158114614da557600080fd5b929592945050506040919091013590565b611000810181836000805b60808110156147f8578251820b845260209384019390920191600101614dc1565b60008060006110408486031215614df857600080fd5b83359250614e098560208601614be3565b9150614e186110208501614b3b565b90509250925092565b600080600060608486031215614e3657600080fd5b505081359360208301359350604090920135919050565b60008060408385031215614e6057600080fd5b614e6983614b3b565b946020939093013593505050565b600080600060608486031215614e8c57600080fd5b614e9584614b3b565b925060208401359150604084013567ffffffffffffffff811115614eb857600080fd5b614ec486828701614c5a565b9150509250925092565b6020808252825182820181905260009190848201906040850190845b81811015614f0657835183529284019291840191600101614eea565b50909695505050505050565b60008060408385031215614f2557600080fd5b82359150602083013567ffffffffffffffff811115614f4357600080fd5b614f4f85828601614c5a565b9150509250929050565b6001600160a01b038e1681526001600160a01b038d1660208201526101a060408201526000614f8c6101a083018e6149df565b8281036060840152614f9e818e6149df565b9150506001600160a01b038b166080830152614fc560a083018b6001600160a01b03169052565b88151560c08301528760e083015286610100830152856101208301528461014083015283610160830152614fff61018083018460000b9052565b9e9d5050505050505050505050505050565b60006020828403121561502357600080fd5b81516111c681614bd1565b600181811c9082168061504257607f821691505b6020821081141561506357634e487b7160e01b600052602260045260246000fd5b50919050565b60006020828403121561507b57600080fd5b5051919050565b6000818482805b60808110156150aa578251820b845260209384019390920191600101615089565b505050505061100081019190915261102001919050565b634e487b7160e01b600052603260045260246000fd5b634e487b7160e01b600052601160045260246000fd5b60008082810b84820b82811383831382607f0484118282161615615113576151136150d7565b607f198584128281168683058612161561512f5761512f6150d7565b9585129583871685830587121615615149576151496150d7565b84607f0586128188161615615160576151606150d7565b505050910295945050505050565b60008160000b8360000b6000821282607f03821381151615615192576151926150d7565b82607f190382128116156151a8576151a86150d7565b50019392505050565b83815261104081016020808301856000805b60808110156151e2578251820b845292840192918401916001016151c3565b5086810b61102087015250505050949350505050565b60808152600061520b60808301876149df565b6001600160a01b03959095166020830152506040810192909252606090910152919050565b6110008101818360005b608080601f83011061524c575061544c565b8254600081900b8552602061526b8187018360081c60000b60000b9052565b60406152818188018460101c60000b60000b9052565b60606152978189018560181c60000b60000b9052565b83831c60000b8886015260a092506152b98389018560281c60000b60000b9052565b60c06152cf818a018660301c60000b60000b9052565b60e06152e5818b018760381c60000b60000b9052565b85841c60000b6101008b0152604886901c60000b6101208b0152605086901c60000b6101408b0152605886901c60000b6101608b015285831c60000b6101808b0152606886901c60000b6101a08b0152607086901c60000b6101c08b0152607886901c60000b6101e08b015285871c60000b6102008b0152608886901c60000b6102208b0152609086901c60000b6102408b0152609886901c60000b6102608b015285851c60000b6102808b015260a886901c60000b6102a08b015260b086901c60000b6102c08b015260b886901c60000b6102e08b015285821c60000b6103008b015260c886901c60000b6103208b015260d086901c60000b6103408b015260d886901c60000b6103608b015285811c60000b6103808b0152505050505060e881901c60000b6103a086015260f081901c60000b6103c08601526154336103e086018260f81d60000b9052565b505061040092909201916001919091019060200161523a565b50505092915050565b600081600019048311821515161561546f5761546f6150d7565b500290565b60008219821115615487576154876150d7565b500190565b600060ff821660ff84168060ff038211156154a9576154a96150d7565b019392505050565b60006000198214156154c5576154c56150d7565b5060010190565b60808152600080865481600182811c9150808316806154ec57607f831692505b602080841082141561550c57634e487b7160e01b86526022600452602486fd5b6080880184905260a0880182801561552b576001811461553c57615567565b60ff19871682528282019750615567565b60008e81526020902060005b8781101561556157815484820152908601908401615548565b83019850505b505087860381890152505050505061557f81876149df565b91505061559760408301856001600160a01b03169052565b82606083015295945050505050565b634e487b7160e01b600052602160045260246000fd5b600081810b83820b8281128015607f198301841216156155de576155de6150d7565b81607f0183138116156155f3576155f36150d7565b5090039392505050565b634e487b7160e01b600052601260045260246000fd5b600082615622576156226155fd565b500490565b6000808212826001600160ff1b0303841381151615615648576156486150d7565b82600160ff1b038412811615615660576156606150d7565b50500190565b600080831283600160ff1b01831281151615615684576156846150d7565b836001600160ff1b0301831381161561569f5761569f6150d7565b50500390565b6000826156b4576156b46155fd565b500690565b60006001600160ff1b036000841360008413858304851182821616156156e1576156e16150d7565b600160ff1b6000871286820588128184161615615700576157006150d7565b6000871292508782058712848416161561571c5761571c6150d7565b87850587128184161615615732576157326150d7565b50505092909302939250505056fea2646970667358221220cbb8e9b17b364b16618001a684199cde3948d96df5b43d3572b65ed91aa6a86a64736f6c634300080a0033",
    "linkReferences": {
        "contracts/ChessLogic.sol": {
            "ChessLogic": [
                {
                    "length": 20,
                    "start": 1916
                },
                {
                    "length": 20,
                    "start": 4107
                },
                {
                    "length": 20,
                    "start": 4340
                },
                {
                    "length": 20,
                    "start": 4897
                },
                {
                    "length": 20,
                    "start": 6703
                },
                {
                    "length": 20,
                    "start": 6949
                }
            ]
        },
        "contracts/ELO.sol": {
            "ELO": [
                {
                    "length": 20,
                    "start": 3540
                },
                {
                    "length": 20,
                    "start": 5942
                },
                {
                    "length": 20,
                    "start": 6096
                },
                {
                    "length": 20,
                    "start": 6287
                },
                {
                    "length": 20,
                    "start": 8867
                },
                {
                    "length": 20,
                    "start": 9021
                },
                {
                    "length": 20,
                    "start": 9212
                }
            ]
        }
    },
    "deployedLinkReferences": {
        "contracts/ChessLogic.sol": {
            "ChessLogic": [
                {
                    "length": 20,
                    "start": 1772
                },
                {
                    "length": 20,
                    "start": 3963
                },
                {
                    "length": 20,
                    "start": 4196
                },
                {
                    "length": 20,
                    "start": 4753
                },
                {
                    "length": 20,
                    "start": 6559
                },
                {
                    "length": 20,
                    "start": 6805
                }
            ]
        },
        "contracts/ELO.sol": {
            "ELO": [
                {
                    "length": 20,
                    "start": 3396
                },
                {
                    "length": 20,
                    "start": 5798
                },
                {
                    "length": 20,
                    "start": 5952
                },
                {
                    "length": 20,
                    "start": 6143
                },
                {
                    "length": 20,
                    "start": 8723
                },
                {
                    "length": 20,
                    "start": 8877
                },
                {
                    "length": 20,
                    "start": 9068
                }
            ]
        }
    }
}