{
    "_format": "hh-sol-artifact-1",
    "contractName": "Chess",
    "sourceName": "contracts/Chess.sol",
    "abi": [
        {
            "inputs": [
                {
                    "internalType": "bool",
                    "name": "enableDebugging",
                    "type": "bool"
                }
            ],
            "stateMutability": "nonpayable",
            "type": "constructor"
        },
        {
            "anonymous": false,
            "inputs": [
                {
                    "indexed": false,
                    "internalType": "string",
                    "name": "message",
                    "type": "string"
                },
                {
                    "indexed": false,
                    "internalType": "uint256",
                    "name": "value1",
                    "type": "uint256"
                },
                {
                    "indexed": false,
                    "internalType": "uint256",
                    "name": "value2",
                    "type": "uint256"
                },
                {
                    "indexed": false,
                    "internalType": "uint256",
                    "name": "value3",
                    "type": "uint256"
                }
            ],
            "name": "DebugInts",
            "type": "event"
        },
        {
            "anonymous": false,
            "inputs": [
                {
                    "indexed": true,
                    "internalType": "address",
                    "name": "player",
                    "type": "address"
                },
                {
                    "indexed": false,
                    "internalType": "uint256",
                    "name": "score",
                    "type": "uint256"
                }
            ],
            "name": "EloScoreUpdate",
            "type": "event"
        },
        {
            "anonymous": false,
            "inputs": [
                {
                    "indexed": true,
                    "internalType": "bytes32",
                    "name": "gameId",
                    "type": "bytes32"
                },
                {
                    "indexed": true,
                    "internalType": "address",
                    "name": "player",
                    "type": "address"
                }
            ],
            "name": "GameClosed",
            "type": "event"
        },
        {
            "anonymous": false,
            "inputs": [
                {
                    "indexed": true,
                    "internalType": "bytes32",
                    "name": "gameId",
                    "type": "bytes32"
                }
            ],
            "name": "GameDrawOfferRejected",
            "type": "event"
        },
        {
            "anonymous": false,
            "inputs": [
                {
                    "indexed": true,
                    "internalType": "bytes32",
                    "name": "gameId",
                    "type": "bytes32"
                }
            ],
            "name": "GameEnded",
            "type": "event"
        },
        {
            "anonymous": false,
            "inputs": [
                {
                    "indexed": true,
                    "internalType": "bytes32",
                    "name": "gameId",
                    "type": "bytes32"
                },
                {
                    "indexed": true,
                    "internalType": "address",
                    "name": "player1",
                    "type": "address"
                },
                {
                    "indexed": false,
                    "internalType": "string",
                    "name": "player1Alias",
                    "type": "string"
                },
                {
                    "indexed": false,
                    "internalType": "address",
                    "name": "playerWhite",
                    "type": "address"
                },
                {
                    "indexed": false,
                    "internalType": "uint256",
                    "name": "turnTime",
                    "type": "uint256"
                },
                {
                    "indexed": false,
                    "internalType": "uint256",
                    "name": "pot",
                    "type": "uint256"
                }
            ],
            "name": "GameInitialized",
            "type": "event"
        },
        {
            "anonymous": false,
            "inputs": [
                {
                    "indexed": true,
                    "internalType": "bytes32",
                    "name": "gameId",
                    "type": "bytes32"
                },
                {
                    "indexed": true,
                    "internalType": "address",
                    "name": "player1",
                    "type": "address"
                },
                {
                    "indexed": false,
                    "internalType": "string",
                    "name": "player1Alias",
                    "type": "string"
                },
                {
                    "indexed": true,
                    "internalType": "address",
                    "name": "player2",
                    "type": "address"
                },
                {
                    "indexed": false,
                    "internalType": "string",
                    "name": "player2Alias",
                    "type": "string"
                },
                {
                    "indexed": false,
                    "internalType": "address",
                    "name": "playerWhite",
                    "type": "address"
                },
                {
                    "indexed": false,
                    "internalType": "uint256",
                    "name": "pot",
                    "type": "uint256"
                }
            ],
            "name": "GameJoined",
            "type": "event"
        },
        {
            "anonymous": false,
            "inputs": [
                {
                    "indexed": true,
                    "internalType": "bytes32",
                    "name": "gameId",
                    "type": "bytes32"
                },
                {
                    "indexed": false,
                    "internalType": "int8[128]",
                    "name": "state",
                    "type": "int8[128]"
                }
            ],
            "name": "GameStateChanged",
            "type": "event"
        },
        {
            "anonymous": false,
            "inputs": [
                {
                    "indexed": true,
                    "internalType": "bytes32",
                    "name": "gameId",
                    "type": "bytes32"
                },
                {
                    "indexed": false,
                    "internalType": "uint256",
                    "name": "timeoutStarted",
                    "type": "uint256"
                },
                {
                    "indexed": false,
                    "internalType": "int8",
                    "name": "timeoutState",
                    "type": "int8"
                }
            ],
            "name": "GameTimeoutStarted",
            "type": "event"
        },
        {
            "anonymous": false,
            "inputs": [
                {
                    "indexed": true,
                    "internalType": "bytes32",
                    "name": "gameId",
                    "type": "bytes32"
                },
                {
                    "indexed": true,
                    "internalType": "address",
                    "name": "player",
                    "type": "address"
                },
                {
                    "indexed": false,
                    "internalType": "uint256",
                    "name": "fromIndex",
                    "type": "uint256"
                },
                {
                    "indexed": false,
                    "internalType": "uint256",
                    "name": "toIndex",
                    "type": "uint256"
                }
            ],
            "name": "Move",
            "type": "event"
        },
        {
            "inputs": [
                {
                    "internalType": "bytes32",
                    "name": "gameId",
                    "type": "bytes32"
                }
            ],
            "name": "claimTimeout",
            "outputs": [],
            "stateMutability": "nonpayable",
            "type": "function"
        },
        {
            "inputs": [
                {
                    "internalType": "bytes32",
                    "name": "gameId",
                    "type": "bytes32"
                }
            ],
            "name": "claimTimeoutEnded",
            "outputs": [],
            "stateMutability": "nonpayable",
            "type": "function"
        },
        {
            "inputs": [
                {
                    "internalType": "bytes32",
                    "name": "gameId",
                    "type": "bytes32"
                },
                {
                    "internalType": "uint256",
                    "name": "fromIndex",
                    "type": "uint256"
                },
                {
                    "internalType": "uint256",
                    "name": "toIndex",
                    "type": "uint256"
                }
            ],
            "name": "claimTimeoutEndedWithMove",
            "outputs": [],
            "stateMutability": "nonpayable",
            "type": "function"
        },
        {
            "inputs": [
                {
                    "internalType": "bytes32",
                    "name": "gameId",
                    "type": "bytes32"
                }
            ],
            "name": "claimWin",
            "outputs": [],
            "stateMutability": "nonpayable",
            "type": "function"
        },
        {
            "inputs": [
                {
                    "internalType": "bytes32",
                    "name": "gameId",
                    "type": "bytes32"
                }
            ],
            "name": "closePlayerGame",
            "outputs": [],
            "stateMutability": "nonpayable",
            "type": "function"
        },
        {
            "inputs": [
                {
                    "internalType": "bytes32",
                    "name": "gameId",
                    "type": "bytes32"
                }
            ],
            "name": "confirmGameEnded",
            "outputs": [],
            "stateMutability": "nonpayable",
            "type": "function"
        },
        {
            "inputs": [
                {
                    "internalType": "bytes32",
                    "name": "",
                    "type": "bytes32"
                }
            ],
            "name": "games",
            "outputs": [
                {
                    "internalType": "address",
                    "name": "player1",
                    "type": "address"
                },
                {
                    "internalType": "address",
                    "name": "player2",
                    "type": "address"
                },
                {
                    "internalType": "string",
                    "name": "player1Alias",
                    "type": "string"
                },
                {
                    "internalType": "string",
                    "name": "player2Alias",
                    "type": "string"
                },
                {
                    "internalType": "address",
                    "name": "nextPlayer",
                    "type": "address"
                },
                {
                    "internalType": "address",
                    "name": "winner",
                    "type": "address"
                },
                {
                    "internalType": "bool",
                    "name": "ended",
                    "type": "bool"
                },
                {
                    "internalType": "uint256",
                    "name": "pot",
                    "type": "uint256"
                },
                {
                    "internalType": "uint256",
                    "name": "player1Winnings",
                    "type": "uint256"
                },
                {
                    "internalType": "uint256",
                    "name": "player2Winnings",
                    "type": "uint256"
                },
                {
                    "internalType": "uint256",
                    "name": "turnTime",
                    "type": "uint256"
                },
                {
                    "internalType": "uint256",
                    "name": "timeoutStarted",
                    "type": "uint256"
                },
                {
                    "internalType": "int8",
                    "name": "timeoutState",
                    "type": "int8"
                }
            ],
            "stateMutability": "view",
            "type": "function"
        },
        {
            "inputs": [
                {
                    "internalType": "address",
                    "name": "",
                    "type": "address"
                },
                {
                    "internalType": "bytes32",
                    "name": "",
                    "type": "bytes32"
                }
            ],
            "name": "gamesOfPlayers",
            "outputs": [
                {
                    "internalType": "bytes32",
                    "name": "",
                    "type": "bytes32"
                }
            ],
            "stateMutability": "view",
            "type": "function"
        },
        {
            "inputs": [
                {
                    "internalType": "address",
                    "name": "",
                    "type": "address"
                }
            ],
            "name": "gamesOfPlayersHeads",
            "outputs": [
                {
                    "internalType": "bytes32",
                    "name": "",
                    "type": "bytes32"
                }
            ],
            "stateMutability": "view",
            "type": "function"
        },
        {
            "inputs": [
                {
                    "internalType": "bytes32",
                    "name": "hash",
                    "type": "bytes32"
                },
                {
                    "internalType": "uint8",
                    "name": "v",
                    "type": "uint8"
                },
                {
                    "internalType": "bytes32",
                    "name": "r",
                    "type": "bytes32"
                },
                {
                    "internalType": "bytes32",
                    "name": "s",
                    "type": "bytes32"
                }
            ],
            "name": "getAddress",
            "outputs": [
                {
                    "internalType": "address",
                    "name": "",
                    "type": "address"
                }
            ],
            "stateMutability": "pure",
            "type": "function"
        },
        {
            "inputs": [
                {
                    "internalType": "bytes32",
                    "name": "gameId",
                    "type": "bytes32"
                }
            ],
            "name": "getCurrentGameState",
            "outputs": [
                {
                    "internalType": "int8[128]",
                    "name": "",
                    "type": "int8[128]"
                }
            ],
            "stateMutability": "view",
            "type": "function"
        },
        {
            "inputs": [
                {
                    "internalType": "address",
                    "name": "player",
                    "type": "address"
                }
            ],
            "name": "getEloScore",
            "outputs": [
                {
                    "internalType": "uint256",
                    "name": "",
                    "type": "uint256"
                }
            ],
            "stateMutability": "view",
            "type": "function"
        },
        {
            "inputs": [
                {
                    "internalType": "address",
                    "name": "player",
                    "type": "address"
                }
            ],
            "name": "getGamesOfPlayer",
            "outputs": [
                {
                    "internalType": "bytes32[]",
                    "name": "",
                    "type": "bytes32[]"
                }
            ],
            "stateMutability": "view",
            "type": "function"
        },
        {
            "inputs": [],
            "name": "getOpenGameIds",
            "outputs": [
                {
                    "internalType": "bytes32[]",
                    "name": "",
                    "type": "bytes32[]"
                }
            ],
            "stateMutability": "view",
            "type": "function"
        },
        {
            "inputs": [
                {
                    "internalType": "bytes32",
                    "name": "gameId",
                    "type": "bytes32"
                }
            ],
            "name": "getWhitePlayer",
            "outputs": [
                {
                    "internalType": "address",
                    "name": "",
                    "type": "address"
                }
            ],
            "stateMutability": "view",
            "type": "function"
        },
        {
            "inputs": [],
            "name": "head",
            "outputs": [
                {
                    "internalType": "bytes32",
                    "name": "",
                    "type": "bytes32"
                }
            ],
            "stateMutability": "view",
            "type": "function"
        },
        {
            "inputs": [
                {
                    "internalType": "string",
                    "name": "player1Alias",
                    "type": "string"
                },
                {
                    "internalType": "bool",
                    "name": "playAsWhite",
                    "type": "bool"
                },
                {
                    "internalType": "uint256",
                    "name": "turnTime",
                    "type": "uint256"
                }
            ],
            "name": "initGame",
            "outputs": [
                {
                    "internalType": "bytes32",
                    "name": "",
                    "type": "bytes32"
                }
            ],
            "stateMutability": "payable",
            "type": "function"
        },
        {
            "inputs": [
                {
                    "internalType": "bytes32",
                    "name": "gameId",
                    "type": "bytes32"
                }
            ],
            "name": "isGameEnded",
            "outputs": [
                {
                    "internalType": "bool",
                    "name": "",
                    "type": "bool"
                }
            ],
            "stateMutability": "view",
            "type": "function"
        },
        {
            "inputs": [
                {
                    "internalType": "bytes32",
                    "name": "gameId",
                    "type": "bytes32"
                },
                {
                    "internalType": "string",
                    "name": "player2Alias",
                    "type": "string"
                }
            ],
            "name": "joinGame",
            "outputs": [],
            "stateMutability": "payable",
            "type": "function"
        },
        {
            "inputs": [
                {
                    "internalType": "bytes32",
                    "name": "gameId",
                    "type": "bytes32"
                },
                {
                    "internalType": "uint256",
                    "name": "fromIndex",
                    "type": "uint256"
                },
                {
                    "internalType": "uint256",
                    "name": "toIndex",
                    "type": "uint256"
                }
            ],
            "name": "move",
            "outputs": [],
            "stateMutability": "nonpayable",
            "type": "function"
        },
        {
            "inputs": [
                {
                    "internalType": "bytes32",
                    "name": "gameId",
                    "type": "bytes32"
                },
                {
                    "internalType": "int8[128]",
                    "name": "state",
                    "type": "int8[128]"
                },
                {
                    "internalType": "uint256",
                    "name": "fromIndex",
                    "type": "uint256"
                },
                {
                    "internalType": "uint256",
                    "name": "toIndex",
                    "type": "uint256"
                },
                {
                    "internalType": "bytes",
                    "name": "sigState",
                    "type": "bytes"
                }
            ],
            "name": "moveFromState",
            "outputs": [],
            "stateMutability": "nonpayable",
            "type": "function"
        },
        {
            "inputs": [
                {
                    "internalType": "bytes32",
                    "name": "gameId",
                    "type": "bytes32"
                }
            ],
            "name": "offerDraw",
            "outputs": [],
            "stateMutability": "nonpayable",
            "type": "function"
        },
        {
            "inputs": [
                {
                    "internalType": "bytes32",
                    "name": "",
                    "type": "bytes32"
                }
            ],
            "name": "openGameIds",
            "outputs": [
                {
                    "internalType": "bytes32",
                    "name": "",
                    "type": "bytes32"
                }
            ],
            "stateMutability": "view",
            "type": "function"
        },
        {
            "inputs": [
                {
                    "internalType": "bytes32",
                    "name": "gameId",
                    "type": "bytes32"
                }
            ],
            "name": "rejectCurrentPlayerDraw",
            "outputs": [],
            "stateMutability": "nonpayable",
            "type": "function"
        },
        {
            "inputs": [
                {
                    "internalType": "bytes32",
                    "name": "gameId",
                    "type": "bytes32"
                },
                {
                    "internalType": "int8[128]",
                    "name": "state",
                    "type": "int8[128]"
                },
                {
                    "internalType": "address",
                    "name": "nextPlayer",
                    "type": "address"
                }
            ],
            "name": "setGameState",
            "outputs": [],
            "stateMutability": "nonpayable",
            "type": "function"
        },
        {
            "inputs": [
                {
                    "internalType": "bytes32",
                    "name": "gameId",
                    "type": "bytes32"
                }
            ],
            "name": "surrender",
            "outputs": [],
            "stateMutability": "nonpayable",
            "type": "function"
        },
        {
            "inputs": [
                {
                    "internalType": "address",
                    "name": "account",
                    "type": "address"
                },
                {
                    "internalType": "bytes32",
                    "name": "hash",
                    "type": "bytes32"
                },
                {
                    "internalType": "uint8",
                    "name": "v",
                    "type": "uint8"
                },
                {
                    "internalType": "bytes32",
                    "name": "r",
                    "type": "bytes32"
                },
                {
                    "internalType": "bytes32",
                    "name": "s",
                    "type": "bytes32"
                }
            ],
            "name": "verify",
            "outputs": [
                {
                    "internalType": "bool",
                    "name": "",
                    "type": "bool"
                }
            ],
            "stateMutability": "pure",
            "type": "function"
        },
        {
            "inputs": [
                {
                    "internalType": "address",
                    "name": "account",
                    "type": "address"
                },
                {
                    "internalType": "bytes32",
                    "name": "hash",
                    "type": "bytes32"
                },
                {
                    "internalType": "bytes",
                    "name": "sig",
                    "type": "bytes"
                }
            ],
            "name": "verifySig",
            "outputs": [
                {
                    "internalType": "bool",
                    "name": "",
                    "type": "bool"
                }
            ],
            "stateMutability": "pure",
            "type": "function"
        },
        {
            "inputs": [
                {
                    "internalType": "bytes32",
                    "name": "gameId",
                    "type": "bytes32"
                }
            ],
            "name": "withdraw",
            "outputs": [],
            "stateMutability": "nonpayable",
            "type": "function"
        }
    ],
    "bytecode": "0x60806040523480156200001157600080fd5b506040516200542f3803806200542f833981016040819052620000349162000055565b6000805460ff191691151591909117905562195b9960ea1b60035562000080565b6000602082840312156200006857600080fd5b815180151581146200007957600080fd5b9392505050565b61539f80620000906000396000f3fe6080604052600436106101c25760003560e01c8063996301e4116100f7578063b914594411610095578063e6de139f11610064578063e6de139f14610567578063f0b05bfd14610594578063f579f882146105b4578063f5b5af16146105ed57600080fd5b8063b9145944146104f2578063d5fdb33414610512578063e0db678114610534578063e6378d3a1461055457600080fd5b8063aaa5a02a116100d1578063aaa5a02a14610459578063aec1914d14610479578063af9c5e7a14610499578063b8ab9883146104d257600080fd5b8063996301e4146103e15780639e7d24df14610401578063a8608fc41461042157600080fd5b80636e939d05116101645780637e84adda1161013e5780637e84adda1461036b5780638e19899e1461038b5780638f7dcfa3146103ab57806395c0c3f6146103c157600080fd5b80636e939d051461030b5780636ea6d76d1461032b5780636f9b0b7d1461033e57600080fd5b8063364d0b53116101a0578063364d0b5314610249578063506535f31461028157806354c91295146102b15780636143a80a146102d157600080fd5b80630a277d28146101c75780630b5faf971461020757806310cb4d6414610229575b600080fd5b3480156101d357600080fd5b506101f46101e23660046146b2565b60026020526000908152604090205481565b6040519081526020015b60405180910390f35b34801561021357600080fd5b506102276102223660046146b2565b61060d565b005b34801561023557600080fd5b506102276102443660046146b2565b61073f565b34801561025557600080fd5b506102696102643660046146dc565b6109de565b6040516001600160a01b0390911681526020016101fe565b34801561028d57600080fd5b506102a161029c36600461472e565b610a46565b60405190151581526020016101fe565b3480156102bd57600080fd5b506101f46102cc36600461477c565b610a73565b3480156102dd57600080fd5b506102a16102ec3660046146b2565b600090815260016020526040902060050154600160a01b900460ff1690565b34801561031757600080fd5b506102276103263660046148c3565b610aff565b6101f4610339366004614933565b610d62565b34801561034a57600080fd5b5061035e6103593660046146b2565b610f24565b6040516101fe9190614992565b34801561037757600080fd5b506102276103863660046149be565b610f89565b34801561039757600080fd5b506102276103a63660046146b2565b6110b5565b3480156103b757600080fd5b506101f460035481565b3480156103cd57600080fd5b506102276103dc3660046146b2565b6111af565b3480156103ed57600080fd5b506102276103fc3660046146b2565b6115cb565b34801561040d57600080fd5b5061022761041c3660046149fd565b6115fc565b34801561042d57600080fd5b506101f461043c366004614a29565b600460209081526000928352604080842090915290825290205481565b34801561046557600080fd5b506102276104743660046146b2565b611945565b34801561048557600080fd5b506102276104943660046146b2565b611bf4565b3480156104a557600080fd5b506102696104b43660046146b2565b6000908152600660205260409020600401546001600160a01b031690565b3480156104de57600080fd5b506102276104ed3660046149fd565b611c25565b3480156104fe57600080fd5b506102a161050d366004614a53565b612164565b34801561051e57600080fd5b506105276121c3565b6040516101fe9190614aaa565b34801561054057600080fd5b5061022761054f3660046146b2565b6122a2565b610227610562366004614aee565b6125c6565b34801561057357600080fd5b506101f461058236600461477c565b60056020526000908152604090205481565b3480156105a057600080fd5b506105276105af36600461477c565b6126c0565b3480156105c057600080fd5b506105d46105cf3660046146b2565b6127d6565b6040516101fe9d9c9b9a99989796959493929190614b82565b3480156105f957600080fd5b506102276106083660046146b2565b61296e565b6000818152600160205260409020600501548190600160a01b900460ff161561063557600080fd5b61063e82612ddb565b6000828152600660205260408120600401546001600160a01b0316331461066657600161066a565b6000195b60008481526006602052604080822090517fac54c06a000000000000000000000000000000000000000000000000000000008152600481019190915282820b60248201529192509073__$a35913077468e138cb65c110133d46955b$__9063ac54c06a90604401602060405180830381865af41580156106ee573d6000803e3d6000fd5b505050506040513d601f19601f820116820180604052508101906107129190614c3a565b600085815260066020526040812091900b915061073090828461308a565b61073957600080fd5b50505050565b6000818152600160205260409020600501548190600160a01b900460ff161561076757600080fd5b600082815260016020818152604080842081516101a08101835281546001600160a01b0390811682529482015490941692840192909252600282018054918401916107b190614c57565b80601f01602080910402602001604051908101604052809291908181526020018280546107dd90614c57565b801561082a5780601f106107ff5761010080835404028352916020019161082a565b820191906000526020600020905b81548152906001019060200180831161080d57829003601f168201915b5050505050815260200160038201805461084390614c57565b80601f016020809104026020016040519081016040528092919081815260200182805461086f90614c57565b80156108bc5780601f10610891576101008083540402835291602001916108bc565b820191906000526020600020905b81548152906001019060200180831161089f57829003601f168201915b505050918352505060048201546001600160a01b03908116602083015260058301548082166040840152600160a01b900460ff161515606083015260068301546080830152600783015460a0830152600883015460c0830152600983015460e0830152600a830154610100830152600b9092015460000b610120909101528151919250163314801590610965575080602001516001600160a01b0316336001600160a01b031614155b61096e57600080fd5b80610180015160000b600119141561098557600080fd5b80608001516001600160a01b0316336001600160a01b0316146109a757600080fd5b6000610180820181905260405184917f93fb7313237063c4e9125ede622021437dd841d96bb10a0074558c3c6fde333f91a2505050565b6040805160008082526020820180845287905260ff861692820192909252606081018490526080810183905260019060a0016020604051602081039080840390855afa158015610a32573d6000803e3d6000fd5b5050604051601f1901519695505050505050565b6000610a54858585856109de565b6001600160a01b0316866001600160a01b031614905095945050505050565b6040516360fa41b960e01b8152600760048201526001600160a01b038216602482015260009073__$a486789ff8c9d1035341fa2865e2dde439$__906360fa41b990604401602060405180830381865af4158015610ad5573d6000803e3d6000fd5b505050506040513d601f19601f82011682018060405250810190610af99190614c92565b92915050565b6000858152600160205260409020600501548590600160a01b900460ff1615610b2757600080fd5b6000868152600160205260409020546001600160a01b03163314801590610b695750600086815260016020819052604090912001546001600160a01b03163314155b15610b7357600080fd5b6000868152600160205260408120546001600160a01b0316331415610bb45750600086815260016020819052604090912001546001600160a01b0316610bce565b506000868152600160205260409020546001600160a01b03165b610c01818789604051602001610be5929190614cab565b6040516020818303038152906040528051906020012085612164565b610c0a57600080fd5b60008781526006602052604081205469010000000000000000008104820b91610c449160809168010000000000000000909104900b614d16565b610c4e9190614d97565b60000b866009602002015160808860086020020151610c6d9190614d16565b610c779190614d97565b60000b1215610c8557600080fd5b6000878152600660205260408120600401546001600160a01b03163314610cae57600019610cb1565b60015b600089815260066020526040908190209051631482911760e01b815291925073__$a35913077468e138cb65c110133d46955b$__91631482911791610cfc918b908690600401614dda565b60006040518083038186803b158015610d1457600080fd5b505af4158015610d28573d6000803e3d6000fd5b505050600089815260016020526040902060040180546001600160a01b0319163317905550610d588887876115fc565b5050505050505050565b600080610d70858585613236565b6000818152600660205260409081902090517f25b65940000000000000000000000000000000000000000000000000000000008152600481019190915260016024820181905291925073__$a35913077468e138cb65c110133d46955b$__906325b659409060440160006040518083038186803b158015610df057600080fd5b505af4158015610e04573d6000803e3d6000fd5b505050508415610e5a576000828152600660209081526040808320600490810180546001600160a01b03199081163317909155600190935292208054920180549091166001600160a01b03929092169190911790555b600082815260016020818152604080842080546006808552958390206004015494909352600981015494015490516001600160a01b039283169487947f162575592dab4c52028eda696846d3cd56c60b3cb8a2dc55dddf0953b8e3e39694610ec9948e94929091169291614e21565b60405180910390a360008281526006602052604090819020905183917fa90ab0b2ea4f4aa7bc1fe53bb56968e4909efc42a5b919f4bde19e4fcf7412f191610f119190614e59565b60405180910390a25090505b9392505050565b610f2c6145fa565b60008281526006602052604080822081516110008101928390529290916080918390855b825461010083900a900460000b815260206001928301818104948501949093039092029101808411610f50575094979650505050505050565b60005460ff16610f9857600080fd5b6000838152600660205260408120600401546001600160a01b03838116911614610fc457600019610fc7565b60015b600085815260066020526040908190209051631482911760e01b815291925073__$a35913077468e138cb65c110133d46955b$__916314829117916110129187908690600401614dda565b60006040518083038186803b15801561102a57600080fd5b505af415801561103e573d6000803e3d6000fd5b505050600085815260016020908152604080832060040180546001600160a01b0319166001600160a01b03881617905560069091529081902090518692507fa90ab0b2ea4f4aa7bc1fe53bb56968e4909efc42a5b919f4bde19e4fcf7412f1916110a791614e59565b60405180910390a250505050565b6000818152600160205260408120546001600160a01b0316331480156110eb575060008281526001602052604090206007015415155b15611132575060008181526001602052604080822060070180549083905590519091339183156108fc0291849190818181858888f1935050505061112e57600080fd5b5050565b600082815260016020819052604090912001546001600160a01b03163314801561116c575060008281526001602052604090206008015415155b156101c2575060008181526001602052604080822060080180549083905590519091339183156108fc0291849190818181858888f1935050505061112e57600080fd5b6000818152600160205260409020600501548190600160a01b900460ff16156111d757600080fd5b6111e082613351565b600082815260016020818152604080842081516101a08101835281546001600160a01b03908116825294820154909416928401929092526002820180549184019161122a90614c57565b80601f016020809104026020016040519081016040528092919081815260200182805461125690614c57565b80156112a35780601f10611278576101008083540402835291602001916112a3565b820191906000526020600020905b81548152906001019060200180831161128657829003601f168201915b505050505081526020016003820180546112bc90614c57565b80601f01602080910402602001604051908101604052809291908181526020018280546112e890614c57565b80156113355780601f1061130a57610100808354040283529160200191611335565b820191906000526020600020905b81548152906001019060200180831161131857829003601f168201915b50505091835250506004828101546001600160a01b039081166020808501919091526005850154808316604080870191909152600160a01b90910460ff16151560608601526006860154608086015260078087015460a080880191909152600888015460c0880152600988015460e0880152600a880154610100880152600b9097015460000b61012090960195909552865191870151958701519051638961807160e01b8152938401949094528116602483015292831660448201529116606482015290915073__$a486789ff8c9d1035341fa2865e2dde439$__9063896180719060840160006040518083038186803b15801561143257600080fd5b505af4158015611446573d6000803e3d6000fd5b505082516040516360fa41b960e01b8152600760048201526001600160a01b039091166024820181905292507f436cd2e07aa4cba8ae9d50f800c208d467149afb08b8724a312e2c301c336e82915073__$a486789ff8c9d1035341fa2865e2dde439$__906360fa41b990604401602060405180830381865af41580156114d1573d6000803e3d6000fd5b505050506040513d601f19601f820116820180604052508101906114f59190614c92565b60405190815260200160405180910390a260208101516040516360fa41b960e01b8152600760048201526001600160a01b0390911660248201819052907f436cd2e07aa4cba8ae9d50f800c208d467149afb08b8724a312e2c301c336e829073__$a486789ff8c9d1035341fa2865e2dde439$__906360fa41b990604401602060405180830381865af4158015611590573d6000803e3d6000fd5b505050506040513d601f19601f820116820180604052508101906115b49190614c92565b6040519081526020015b60405180910390a2505050565b6000818152600160205260409020600501548190600160a01b900460ff16156115f357600080fd5b6111e082613769565b6000838152600160205260409020600501548390600160a01b900460ff161561162457600080fd5b6000848152600160205260408120600b01546002910b14801561167f575060008481526001602052604090206009015461165f90603c61507e565b6000858152600160205260409020600a015461167b919061509d565b4210155b80156116a557506000848152600160205260409020600401546001600160a01b03163314155b15611748576000848152600660205260409081902060048082015492516356e024e560e11b81529081019190915260248101859052604481018490526001600160a01b03909116331415606482015273__$a35913077468e138cb65c110133d46955b$__9063adc049ca9060840160006040518083038186803b15801561172b57600080fd5b505af415801561173f573d6000803e3d6000fd5b505050506118c8565b6000848152600160205260409020600401546001600160a01b0316331461176e57600080fd5b6000848152600160205260408120600b0154900b156117a1576000848152600160205260409020600b01805460ff191690555b6000848152600660205260409081902060048082015492516356e024e560e11b81529081019190915260248101859052604481018490526001600160a01b039091163314606482015273__$a35913077468e138cb65c110133d46955b$__9063adc049ca9060840160006040518083038186803b15801561182157600080fd5b505af4158015611835573d6000803e3d6000fd5b5050506000858152600160205260409020546001600160a01b0316331415905061189557600084815260016020819052604090912090810154600490910180546001600160a01b0319166001600160a01b039092169190911790556118c8565b60008481526001602052604090208054600490910180546001600160a01b0319166001600160a01b039092169190911790555b6040805184815260208101849052339186917f8c96aa96b948031932de222ce53642a37def495d79ab00b4ada2b95c07d26583910160405180910390a360008481526006602052604090819020905185917fa90ab0b2ea4f4aa7bc1fe53bb56968e4909efc42a5b919f4bde19e4fcf7412f1916110a79190614e59565b6000818152600160205260409020600501548190600160a01b900460ff161561196d57600080fd5b600082815260016020818152604080842081516101a08101835281546001600160a01b0390811682529482015490941692840192909252600282018054918401916119b790614c57565b80601f01602080910402602001604051908101604052809291908181526020018280546119e390614c57565b8015611a305780601f10611a0557610100808354040283529160200191611a30565b820191906000526020600020905b815481529060010190602001808311611a1357829003601f168201915b50505050508152602001600382018054611a4990614c57565b80601f0160208091040260200160405190810160405280929190818152602001828054611a7590614c57565b8015611ac25780601f10611a9757610100808354040283529160200191611ac2565b820191906000526020600020905b815481529060010190602001808311611aa557829003601f168201915b505050918352505060048201546001600160a01b03908116602083015260058301548082166040840152600160a01b900460ff161515606083015260068301546080830152600783015460a0830152600883015460c0830152600983015460e0830152600a830154610100830152600b9092015460000b610120909101528151919250163314801590611b6b575080602001516001600160a01b0316336001600160a01b031614155b611b7457600080fd5b61018081015160000b611b8657600080fd5b80608001516001600160a01b0316336001600160a01b031614611ba857600080fd5b4261016082018190526002610180830181905260408051928352602083019190915284917f12756c8b9561cc3ee7eda20b88ecf6fa8a596ebe05a1d19be769e2dd39da1cde91016115be565b6000818152600160205260409020600501548190600160a01b900460ff1615611c1c57600080fd5b6111e082613b21565b6000838152600160205260409020600501548390600160a01b900460ff1615611c4d57600080fd5b600084815260016020818152604080842081516101a08101835281546001600160a01b039081168252948201549094169284019290925260028201805491840191611c9790614c57565b80601f0160208091040260200160405190810160405280929190818152602001828054611cc390614c57565b8015611d105780601f10611ce557610100808354040283529160200191611d10565b820191906000526020600020905b815481529060010190602001808311611cf357829003601f168201915b50505050508152602001600382018054611d2990614c57565b80601f0160208091040260200160405190810160405280929190818152602001828054611d5590614c57565b8015611da25780601f10611d7757610100808354040283529160200191611da2565b820191906000526020600020905b815481529060010190602001808311611d8557829003601f168201915b505050918352505060048201546001600160a01b03908116602083015260058301548082166040840152600160a01b900460ff161515606083015260068301546080830152600783015460a0830152600883015460c0830152600983015460e0830152600a830154610100830152600b9092015460000b610120909101528151919250163314801590611e4b575080602001516001600160a01b0316336001600160a01b031614155b15611e5557600080fd5b610140810151611e6690603c61507e565b816101600151611e76919061509d565b421015611e8257600080fd5b80608001516001600160a01b0316336001600160a01b03161415611ea557600080fd5b80610180015160000b600214611eba57600080fd5b611ec58585856115fc565b600160c08201523360a0820181905281516001600160a01b03161415611f0857600085815260016020526040812060068101805460079092019190915555611f27565b6000858152600160205260408120600681018054600890920191909155555b8051602082015160a0830151604051638961807160e01b8152600760048201526001600160a01b039384166024820152918316604483015291909116606482015273__$a486789ff8c9d1035341fa2865e2dde439$__9063896180719060840160006040518083038186803b158015611f9f57600080fd5b505af4158015611fb3573d6000803e3d6000fd5b505082516040516360fa41b960e01b8152600760048201526001600160a01b039091166024820181905292507f436cd2e07aa4cba8ae9d50f800c208d467149afb08b8724a312e2c301c336e82915073__$a486789ff8c9d1035341fa2865e2dde439$__906360fa41b990604401602060405180830381865af415801561203e573d6000803e3d6000fd5b505050506040513d601f19601f820116820180604052508101906120629190614c92565b60405190815260200160405180910390a260208101516040516360fa41b960e01b8152600760048201526001600160a01b0390911660248201819052907f436cd2e07aa4cba8ae9d50f800c208d467149afb08b8724a312e2c301c336e829073__$a486789ff8c9d1035341fa2865e2dde439$__906360fa41b990604401602060405180830381865af41580156120fd573d6000803e3d6000fd5b505050506040513d601f19601f820116820180604052508101906121219190614c92565b60405190815260200160405180910390a260405185907fdfbf0a97d8d3b796cd819f1c2fdebb01eabf975797feee4dc7c43b0794b7073f90600090a25050505050565b600080600080845160411461217f5760009350505050610f1d565b50505060208201516040830151604184015160ff16601b8110156121ab576121a8601b826150b5565b90505b6121b88787838686610a46565b979650505050505050565b6003546060906000905b8062195b9960ea1b146121fe57816121e4816150da565b600092835260026020526040909220549192506121cd9050565b5060008167ffffffffffffffff81111561221a5761221a614797565b604051908082528060200260200182016040528015612243578160200160208202803683370190505b5060035490915060005b83811015612299578183828151811061226857612268614cea565b6020908102919091018101919091526000928352600290526040909120549080612291816150da565b91505061224d565b50909392505050565b6000818152600160205260409020600501548190600160a01b900460ff16156122ca57600080fd5b600082815260016020818152604080842081516101a08101835281546001600160a01b03908116825294820154909416928401929092526002820180549184019161231490614c57565b80601f016020809104026020016040519081016040528092919081815260200182805461234090614c57565b801561238d5780601f106123625761010080835404028352916020019161238d565b820191906000526020600020905b81548152906001019060200180831161237057829003601f168201915b505050505081526020016003820180546123a690614c57565b80601f01602080910402602001604051908101604052809291908181526020018280546123d290614c57565b801561241f5780601f106123f45761010080835404028352916020019161241f565b820191906000526020600020905b81548152906001019060200180831161240257829003601f168201915b505050918352505060048201546001600160a01b03908116602083015260058301548082166040840152600160a01b900460ff161515606083015260068301546080830152600783015460a0830152600883015460c0830152600983015460e0830152600a830154610100830152600b9092015460000b6101209091015281519192501633148015906124c8575080602001516001600160a01b0316336001600160a01b031614155b6124d157600080fd5b61018081015160000b158015906124f1575080610180015160000b600214155b6124fa57600080fd5b80610180015160000b600214801561253c575061014081015161251e90600261507e565b61252990603c61507e565b816101600151612539919061509d565b42105b61254557600080fd5b80608001516001600160a01b0316336001600160a01b031614156125715760011961018082015261257b565b6000196101808201525b42610160820181905261018082015160405185927f12756c8b9561cc3ee7eda20b88ecf6fa8a596ebe05a1d19be769e2dd39da1cde926115be9291825260000b602082015260400190565b6125d08282613c89565b6000828152600660205260409020600401546001600160a01b031661263f576000828152600660209081526040808320600490810180546001600160a01b0319908116331790915560019384905291909320918201549190920180549092166001600160a01b03919091161790555b600082815260016020818152604080842080840154815460068086529684902060040154959094529481015491516001600160a01b03958616959384169488947f4b1c5f85898b84f7392653411c2d5a277fd3fb774a6e72e3756b2d460ea5332b946126b494600201938a93909216916150f5565b60405180910390a45050565b6001600160a01b038116600090815260056020526040812054606091815b801561271e57816126ee816150da565b6001600160a01b038716600090815260046020908152604080832095835294905292909220549192506126de9050565b5060008167ffffffffffffffff81111561273a5761273a614797565b604051908082528060200260200182016040528015612763578160200160208202803683370190505b5090508260005b838110156127cb578183828151811061278557612785614cea565b6020908102919091018101919091526001600160a01b038816600090815260048252604080822094825293909152919091205490806127c3816150da565b91505061276a565b509095945050505050565b60016020819052600091825260409091208054918101546002820180546001600160a01b0394851694909216929161280d90614c57565b80601f016020809104026020016040519081016040528092919081815260200182805461283990614c57565b80156128865780601f1061285b57610100808354040283529160200191612886565b820191906000526020600020905b81548152906001019060200180831161286957829003601f168201915b50505050509080600301805461289b90614c57565b80601f01602080910402602001604051908101604052809291908181526020018280546128c790614c57565b80156129145780601f106128e957610100808354040283529160200191612914565b820191906000526020600020905b8154815290600101906020018083116128f757829003601f168201915b50505050600483015460058401546006850154600786015460088701546009880154600a890154600b9099015497986001600160a01b03968716989686169750600160a01b90950460ff1695939492939192909160000b8d565b600081815260016020818152604080842081516101a08101835281546001600160a01b0390811682529482015490941692840192909252600282018054918401916129b890614c57565b80601f01602080910402602001604051908101604052809291908181526020018280546129e490614c57565b8015612a315780601f10612a0657610100808354040283529160200191612a31565b820191906000526020600020905b815481529060010190602001808311612a1457829003601f168201915b50505050508152602001600382018054612a4a90614c57565b80601f0160208091040260200160405190810160405280929190818152602001828054612a7690614c57565b8015612ac35780601f10612a9857610100808354040283529160200191612ac3565b820191906000526020600020905b815481529060010190602001808311612aa657829003601f168201915b505050918352505060048201546001600160a01b0390811660208084019190915260058401548083166040850152600160a01b900460ff161515606084015260068401546080840152600784015460a0840152600884015460c0840152600984015460e0840152600a840154610100840152600b9093015460000b6101209092019190915290820151919250161580612b5d57508060c001515b612b6657600080fd5b80516001600160a01b03163314801590612b96575080602001516001600160a01b0316336001600160a01b031614155b15612ba057600080fd5b8060c00151612bcc576000828152600160205260409020600501805460ff60a01b1916600160a01b1790555b60208101516001600160a01b0316612cad57816003541415612c0b57600380546000908152600260205260408082205490925583815290812055612c8e565b6003545b8062195b9960ea1b14158015612c39575060008181526002602052604090205462195b9960ea1b14155b15612c8c57600081815260026020526040902054831415612c785760008381526002602052604080822080548484529183209190915584825255612c8c565b600090815260026020526040902054612c0f565b505b6000828152600160205260408120600681018054600790920191909155555b3360009081526005602052604090205482811415612d0057336000818152600460209081526040808320858452808352818420549484526005835281842094909455600354835292905290812055612da9565b805b8015801590612d31575033600090815260046020908152604080832084845290915290205462195b9960ea1b14155b15612da757336000908152600460209081526040808320848452909152902054841415612d885733600090815260046020908152604080832087845290915280822080548484529183209190915585825255612da7565b3360009081526004602090815260408083209383529290522054612d02565b505b604051339084907f355481a0787ef046ee5e4c47a8cfd2b43e453bff08274f9dbba1a737218f423790600090a3505050565b6000818152600160205260409020600501548190600160a01b900460ff1615612e0357600080fd5b600082815260016020818152604080842081516101a08101835281546001600160a01b039081168252948201549094169284019290925260028201805491840191612e4d90614c57565b80601f0160208091040260200160405190810160405280929190818152602001828054612e7990614c57565b8015612ec65780601f10612e9b57610100808354040283529160200191612ec6565b820191906000526020600020905b815481529060010190602001808311612ea957829003601f168201915b50505050508152602001600382018054612edf90614c57565b80601f0160208091040260200160405190810160405280929190818152602001828054612f0b90614c57565b8015612f585780601f10612f2d57610100808354040283529160200191612f58565b820191906000526020600020905b815481529060010190602001808311612f3b57829003601f168201915b505050918352505060048201546001600160a01b03908116602083015260058301548082166040840152600160a01b900460ff161515606083015260068301546080830152600783015460a0830152600883015460c0830152600983015460e0830152600a830154610100830152600b9092015460000b610120909101528151919250163314801590613001575080602001516001600160a01b0316336001600160a01b031614155b61300a57600080fd5b61018081015160000b61301c57600080fd5b80608001516001600160a01b0316336001600160a01b03161461303e57600080fd5b4261016082018190526001610180830181905260408051928352602083019190915284917f12756c8b9561cc3ee7eda20b88ecf6fa8a596ebe05a1d19be769e2dd39da1cde91016115be565b6000805b60088110156131615760006130bd866130b78460078111156130b2576130b26151cf565b613e06565b87613e74565b90508060000b6000191461314e5760008682820b608081106130e1576130e1614cea565b6020810490910154601f9091166101000a9004600090810b91506131058683614d16565b60000b121561314c5760008561311b600c613ef1565b6131259190614d16565b9050613138888460ff168985858b613f11565b1561314a576001945050505050610f1d565b505b505b5080613159816150da565b91505061308e565b5060005b600881101561322b57600060408051806040016040528060088152602001671f212e324e525f6160c01b81525083815181106131a3576131a3614cea565b01602001516131b59060f81c87614d97565b6131bf91906151e5565b9050608881166132185760006131e88260000b600c8111156131e3576131e36151cf565b613ef1565b90506131f46008613ef1565b60000b6132018683614d16565b60000b14156132165760019350505050610f1d565b505b5080613223816150da565b915050613165565b506000949350505050565b6000600582101561324657600080fd5b6040516bffffffffffffffffffffffff193360601b16602082015243603482015260009060540160408051601f1981840301815291815281516020928301206000818152600184529190912060058101805460ff60a01b1916905560098101869055600b8101805460ff1916905580546001600160a01b0319163317815587519193506132dc9260029091019190880190614619565b506000818152600160205260408120600781018290556008015561330134600261507e565b600082815260016020908152604080832060060193909355338252600581528282208054600483528484208685528352848420558490556003805460029092529290912055819055949350505050565b6000818152600160205260409020600501548190600160a01b900460ff161561337957600080fd5b600082815260016020818152604080842081516101a08101835281546001600160a01b0390811682529482015490941692840192909252600282018054918401916133c390614c57565b80601f01602080910402602001604051908101604052809291908181526020018280546133ef90614c57565b801561343c5780601f106134115761010080835404028352916020019161343c565b820191906000526020600020905b81548152906001019060200180831161341f57829003601f168201915b5050505050815260200160038201805461345590614c57565b80601f016020809104026020016040519081016040528092919081815260200182805461348190614c57565b80156134ce5780601f106134a3576101008083540402835291602001916134ce565b820191906000526020600020905b8154815290600101906020018083116134b157829003601f168201915b505050918352505060048201546001600160a01b03908116602083015260058301548082166040840152600160a01b900460ff161515606083015260068301546080830152600783015460a0830152600883015460c0830152600983015460e0830152600a830154610100830152600b9092015460000b610120909101528151919250163314801590613577575080602001516001600160a01b0316336001600160a01b031614155b61358057600080fd5b61018081015160000b1561359357600080fd5b80608001516001600160a01b0316336001600160a01b03161461365b5780610180015160000b60011914156101c257600160c08201819052600084815260209190915260409020600601546135ea9060029061523c565b60008481526001602052604090206007810191909155600601546136109060029061523c565b60008481526001602052604080822060088101939093556006909201819055905184917fdfbf0a97d8d3b796cd819f1c2fdebb01eabf975797feee4dc7c43b0794b7073f91a2505050565b80610180015160000b600019141561369557600160c08201819052600084815260209190915260409020600601546135ea9060029061523c565b80610180015160000b600114806136b4575080610180015160000b6002145b156101c257600160c082015280516001600160a01b0316331415613709576020808201516001600160a01b031660a0830152600084815260019091526040812060068101805460089092019190915555613738565b80516001600160a01b031660a08201526000838152600160205260408120600681018054600790920191909155555b60405183907fdfbf0a97d8d3b796cd819f1c2fdebb01eabf975797feee4dc7c43b0794b7073f90600090a25b505050565b6000818152600160205260409020600501548190600160a01b900460ff161561379157600080fd5b600082815260016020818152604080842081516101a08101835281546001600160a01b0390811682529482015490941692840192909252600282018054918401916137db90614c57565b80601f016020809104026020016040519081016040528092919081815260200182805461380790614c57565b80156138545780601f1061382957610100808354040283529160200191613854565b820191906000526020600020905b81548152906001019060200180831161383757829003601f168201915b5050505050815260200160038201805461386d90614c57565b80601f016020809104026020016040519081016040528092919081815260200182805461389990614c57565b80156138e65780601f106138bb576101008083540402835291602001916138e6565b820191906000526020600020905b8154815290600101906020018083116138c957829003601f168201915b505050918352505060048201546001600160a01b03908116602083015260058301548082166040840152600160a01b900460ff161515606083015260068301546080830152600783015460a0830152600883015460c0830152600983015460e0830152600a830154610100830152600b9092015460000b61012090910152815191925016331480159061398f575080602001516001600160a01b0316336001600160a01b031614155b1561399957600080fd5b61018081015160000b15806139b6575080610180015160000b6002145b156139c057600080fd5b6101408101516139d190603c61507e565b8161016001516139e1919061509d565b4210156139ed57600080fd5b80608001516001600160a01b0316336001600160a01b03161415613a455780610180015160000b60011914156101c257600160c08201819052600084815260209190915260409020600601546135ea9060029061523c565b80610180015160000b6000191415613a7f57600160c08201819052600084815260209190915260409020600601546135ea9060029061523c565b80610180015160000b600114156101c257600160c08201523360a0820181905281516001600160a01b03161415613ad357600083815260016020526040812060068101805460079092019190915555613738565b60008381526001602052604081206006810180546008909201919091555560405183907fdfbf0a97d8d3b796cd819f1c2fdebb01eabf975797feee4dc7c43b0794b7073f90600090a2505050565b6000818152600160205260409020600501548190600160a01b900460ff1615613b4957600080fd5b6000828152600160205260409020600501546001600160a01b031615613b6e57600080fd5b6000828152600160205260409020546001600160a01b0316331415613bd75760008281526001602081905260408220908101546005820180546001600160a01b0319166001600160a01b0390921691909117905560068101805460089092019190915555613c3c565b600082815260016020819052604090912001546001600160a01b03163314156101c257600082815260016020526040812080546005820180546001600160a01b0319166001600160a01b03909216919091179055600681018054600790920191909155555b600082815260016020526040808220600501805460ff60a01b1916600160a01b1790555183917fdfbf0a97d8d3b796cd819f1c2fdebb01eabf975797feee4dc7c43b0794b7073f91a25050565b600082815260016020819052604090912001546001600160a01b031615613caf57600080fd5b6000828152600160205260409020600601543414613ccc57600080fd5b60008281526001602052604081206006018054349290613ced90849061509d565b9091555050600082815260016020818152604090922090810180546001600160a01b031916331790558251613d2a92600390920191840190614619565b50336000818152600560208181526040808420805460048452828620898752845291852091909155939092529052829055600354821415613d8557506003805460009081526002602052604080822054909255918252812055565b6003545b8062195b9960ea1b14158015613db3575060008181526002602052604090205462195b9960ea1b14155b1561376457600081815260026020526040902054831415613df25760008381526002602052604080822080548484529183209190915584825255505050565b600090815260026020526040902054613d89565b60006040518060400160405280600881526020017f30314151504f3f2f000000000000000000000000000000000000000000000000815250826007811115613e5057613e506151cf565b81518110613e6057613e60614cea565b0160200151610af99060f81c603f19614d97565b600080613e818484614d97565b60000b90505b60888116613ee557613e996006613ef1565b60000b858260808110613eae57613eae614cea565b6020810490910154601f9091166101000a900460000b14613ed0579050610f1d565b613ede600085900b82615250565b9050613e87565b50600019949350505050565b600081600c811115613f0557613f056151cf565b610af990600519615250565b600080613f1e8787614458565b60000b90506000613f2e8261453a565b60101480613f445750613f408261453a565b6001145b159050613f51600c613ef1565b60000b613f608760000b61453a565b14156140be5786613f71838a615250565b1415613f825760019250505061444e565b613f8d89898661308a565b15613f9d5760009250505061444e565b613fa76000613ef1565b60000b8660000b141561402857876004148015613fc757508460000b6000145b1561402857866002148015613fea57506000613fe48a6007614558565b60000b12155b15613ffa5760019250505061444e565b866006148015614018575060006140128a6008614558565b60000b12155b156140285760019250505061444e565b614032600c613ef1565b60000b8660000b14156140b35787607414801561405257508460000b6000145b156140b3578660721480156140755750600061406f8a6005614558565b60000b12155b156140855760019250505061444e565b8660761480156140a35750600061409d8a6006614558565b60000b12155b156140b35760019250505061444e565b60009250505061444e565b6140c86009613ef1565b60000b6140d78760000b61453a565b14806140f957506140e8600b613ef1565b60000b6140f78760000b61453a565b145b8061411a5750614109600a613ef1565b60000b6141188760000b61453a565b145b156141df578015801561414357506141326009613ef1565b60000b6141418760000b61453a565b145b8061416c575080801561416c575061415b600a613ef1565b60000b61416a8760000b61453a565b145b1561417c5760009250505061444e565b8760005b60088110156141d2578882141561419e57600194505050505061444e565b6141a88483615250565b915060888216156141c057600094505050505061444e565b806141ca816150da565b915050614180565b506000935050505061444e565b6141e96007613ef1565b60000b6141f88760000b61453a565b14156143a8576142086005613ef1565b60000b8660000b14801561421c5750600082125b80614240575061422c6007613ef1565b60000b8660000b1480156142405750600082135b156142505760009250505061444e565b806143125760026142608361453a565b10156142715760009250505061444e565b8661427c838a615250565b14156142a45761428c6006613ef1565b60000b8560000b14156142a45760019250505061444e565b86826142b0818b615250565b6142ba9190615250565b14156140b35760006142cd60108a61523c565b905080600114806142de5750806006145b15614306576142ed6006613ef1565b60000b8660000b1415614306576001935050505061444e565b5060009250505061444e565b8661431d838a615250565b14156140b35761432d8686614d16565b60000b61439d5761433e6005613ef1565b60000b8660000b14801561435e5750866143598a600a614558565b60000b145b806140a3575061436e6007613ef1565b60000b8660000b1480156140a35750866143898a6009614558565b60000b14156140b35760019250505061444e565b60019250505061444e565b6143b26008613ef1565b60000b6143c18760000b61453a565b14156144475760005b6008811015614306578760408051806040016040528060088152602001671f212e324e525f6160c01b815250838151811061440757614407614cea565b01602001516144199060f81d8c615250565b614423919061528f565b1415614435576001935050505061444e565b8061443f816150da565b9150506143ca565b6000925050505b9695505050505050565b600081831181600861447261446d868861528f565b61453a565b10905060006144826008866152ce565b61448d6008886152ce565b149050600061449d6008876152ce565b6144a86008896152ce565b11905083156144f65781156144cc576144c16000613e06565b945050505050610af9565b82156144dc576144c16006613e06565b80156144ec576144c16007613e06565b6144c16001613e06565b8115614506576144c16004613e06565b8215614516576144c16002613e06565b8015614526576144c16005613e06565b6144c16003613e06565b5050505092915050565b6000808212614547575090565b610af9826000196152e2565b919050565b60008261456483614592565b6080811061457457614574614cea565b6020810490910154601f9091166101000a900460000b905092915050565b60006040518060400160405280600b81526020017f08097b0b384e4f3e3f3d4d00000000000000000000000000000000000000000081525082600a8111156145dc576145dc6151cf565b815181106145ec576145ec614cea565b016020015160f81c92915050565b6040518061100001604052806080906020820280368337509192915050565b82805461462590614c57565b90600052602060002090601f016020900481019282614647576000855561468d565b82601f1061466057805160ff191683800117855561468d565b8280016001018555821561468d579182015b8281111561468d578251825591602001919060010190614672565b5061469992915061469d565b5090565b5b80821115614699576000815560010161469e565b6000602082840312156146c457600080fd5b5035919050565b803560ff8116811461455357600080fd5b600080600080608085870312156146f257600080fd5b84359350614702602086016146cb565b93969395505050506040820135916060013590565b80356001600160a01b038116811461455357600080fd5b600080600080600060a0868803121561474657600080fd5b61474f86614717565b945060208601359350614764604087016146cb565b94979396509394606081013594506080013592915050565b60006020828403121561478e57600080fd5b610f1d82614717565b634e487b7160e01b600052604160045260246000fd5b8060000b81146147bc57600080fd5b50565b600082601f8301126147d057600080fd5b60405161100080820182811067ffffffffffffffff821117156147f5576147f5614797565b6040528301818582111561480857600080fd5b845b8281101561482b57803561481d816147ad565b82526020918201910161480a565b509195945050505050565b600082601f83011261484757600080fd5b813567ffffffffffffffff8082111561486257614862614797565b604051601f8301601f19908116603f0116810190828211818310171561488a5761488a614797565b816040528381528660208588010111156148a357600080fd5b836020870160208301376000602085830101528094505050505092915050565b600080600080600061108086880312156148dc57600080fd5b853594506148ed87602088016147bf565b93506110208601359250611040860135915061106086013567ffffffffffffffff81111561491a57600080fd5b61492688828901614836565b9150509295509295909350565b60008060006060848603121561494857600080fd5b833567ffffffffffffffff81111561495f57600080fd5b61496b86828701614836565b9350506020840135801515811461498157600080fd5b929592945050506040919091013590565b611000810181836000805b6080811015614530578251820b84526020938401939092019160010161499d565b600080600061104084860312156149d457600080fd5b833592506149e585602086016147bf565b91506149f46110208501614717565b90509250925092565b600080600060608486031215614a1257600080fd5b505081359360208301359350604090920135919050565b60008060408385031215614a3c57600080fd5b614a4583614717565b946020939093013593505050565b600080600060608486031215614a6857600080fd5b614a7184614717565b925060208401359150604084013567ffffffffffffffff811115614a9457600080fd5b614aa086828701614836565b9150509250925092565b6020808252825182820181905260009190848201906040850190845b81811015614ae257835183529284019291840191600101614ac6565b50909695505050505050565b60008060408385031215614b0157600080fd5b82359150602083013567ffffffffffffffff811115614b1f57600080fd5b614b2b85828601614836565b9150509250929050565b6000815180845260005b81811015614b5b57602081850181015186830182015201614b3f565b81811115614b6d576000602083870101525b50601f01601f19169290920160200192915050565b6001600160a01b038e1681526001600160a01b038d1660208201526101a060408201526000614bb56101a083018e614b35565b8281036060840152614bc7818e614b35565b9150506001600160a01b038b166080830152614bee60a083018b6001600160a01b03169052565b88151560c08301528760e083015286610100830152856101208301528461014083015283610160830152614c2861018083018460000b9052565b9e9d5050505050505050505050505050565b600060208284031215614c4c57600080fd5b8151610f1d816147ad565b600181811c90821680614c6b57607f821691505b60208210811415614c8c57634e487b7160e01b600052602260045260246000fd5b50919050565b600060208284031215614ca457600080fd5b5051919050565b6000818482805b6080811015614cd3578251820b845260209384019390920191600101614cb2565b505050505061100081019190915261102001919050565b634e487b7160e01b600052603260045260246000fd5b634e487b7160e01b600052601160045260246000fd5b60008082810b84820b82811383831382607f0484118282161615614d3c57614d3c614d00565b607f1985841282811686830586121615614d5857614d58614d00565b9585129583871685830587121615614d7257614d72614d00565b84607f0586128188161615614d8957614d89614d00565b505050910295945050505050565b60008160000b8360000b6000821282607f03821381151615614dbb57614dbb614d00565b82607f19038212811615614dd157614dd1614d00565b50019392505050565b83815261104081016020808301856000805b6080811015614e0b578251820b84529284019291840191600101614dec565b5086810b61102087015250505050949350505050565b608081526000614e346080830187614b35565b6001600160a01b03959095166020830152506040810192909252606090910152919050565b6110008101818360005b608080601f830110614e755750615075565b8254600081900b85526020614e948187018360081c60000b60000b9052565b6040614eaa8188018460101c60000b60000b9052565b6060614ec08189018560181c60000b60000b9052565b83831c60000b8886015260a09250614ee28389018560281c60000b60000b9052565b60c0614ef8818a018660301c60000b60000b9052565b60e0614f0e818b018760381c60000b60000b9052565b85841c60000b6101008b0152604886901c60000b6101208b0152605086901c60000b6101408b0152605886901c60000b6101608b015285831c60000b6101808b0152606886901c60000b6101a08b0152607086901c60000b6101c08b0152607886901c60000b6101e08b015285871c60000b6102008b0152608886901c60000b6102208b0152609086901c60000b6102408b0152609886901c60000b6102608b015285851c60000b6102808b015260a886901c60000b6102a08b015260b086901c60000b6102c08b015260b886901c60000b6102e08b015285821c60000b6103008b015260c886901c60000b6103208b015260d086901c60000b6103408b015260d886901c60000b6103608b015285811c60000b6103808b0152505050505060e881901c60000b6103a086015260f081901c60000b6103c086015261505c6103e086018260f81d60000b9052565b5050610400929092019160019190910190602001614e63565b50505092915050565b600081600019048311821515161561509857615098614d00565b500290565b600082198211156150b0576150b0614d00565b500190565b600060ff821660ff84168060ff038211156150d2576150d2614d00565b019392505050565b60006000198214156150ee576150ee614d00565b5060010190565b60808152600080865481600182811c91508083168061511557607f831692505b602080841082141561513557634e487b7160e01b86526022600452602486fd5b6080880184905260a08801828015615154576001811461516557615190565b60ff19871682528282019750615190565b60008e81526020902060005b8781101561518a57815484820152908601908401615171565b83019850505b50508786038189015250505050506151a88187614b35565b9150506151c060408301856001600160a01b03169052565b82606083015295945050505050565b634e487b7160e01b600052602160045260246000fd5b600081810b83820b8281128015607f1983018412161561520757615207614d00565b81607f01831381161561521c5761521c614d00565b5090039392505050565b634e487b7160e01b600052601260045260246000fd5b60008261524b5761524b615226565b500490565b6000808212826001600160ff1b030384138115161561527157615271614d00565b82600160ff1b03841281161561528957615289614d00565b50500190565b600080831283600160ff1b018312811516156152ad576152ad614d00565b836001600160ff1b030183138116156152c8576152c8614d00565b50500390565b6000826152dd576152dd615226565b500690565b60006001600160ff1b0360008413600084138583048511828216161561530a5761530a614d00565b600160ff1b600087128682058812818416161561532957615329614d00565b6000871292508782058712848416161561534557615345614d00565b8785058712818416161561535b5761535b614d00565b50505092909302939250505056fea2646970667358221220dcab05b515dc3c0c3bf4fbf31fdb996e0ed7b8b5675f99c1839c70dea4bd593064736f6c634300080a0033",
    "linkReferences": {
        "contracts/ChessLogic.sol": {
            "ChessLogic": [
                {
                    "length": 20,
                    "start": 1860
                },
                {
                    "length": 20,
                    "start": 3426
                },
                {
                    "length": 20,
                    "start": 3659
                },
                {
                    "length": 20,
                    "start": 4216
                },
                {
                    "length": 20,
                    "start": 6022
                },
                {
                    "length": 20,
                    "start": 6268
                }
            ]
        },
        "contracts/ELO.sol": {
            "ELO": [
                {
                    "length": 20,
                    "start": 2859
                },
                {
                    "length": 20,
                    "start": 5261
                },
                {
                    "length": 20,
                    "start": 5415
                },
                {
                    "length": 20,
                    "start": 5606
                },
                {
                    "length": 20,
                    "start": 8186
                },
                {
                    "length": 20,
                    "start": 8340
                },
                {
                    "length": 20,
                    "start": 8531
                }
            ]
        }
    },
    "deployedLinkReferences": {
        "contracts/ChessLogic.sol": {
            "ChessLogic": [
                {
                    "length": 20,
                    "start": 1716
                },
                {
                    "length": 20,
                    "start": 3282
                },
                {
                    "length": 20,
                    "start": 3515
                },
                {
                    "length": 20,
                    "start": 4072
                },
                {
                    "length": 20,
                    "start": 5878
                },
                {
                    "length": 20,
                    "start": 6124
                }
            ]
        },
        "contracts/ELO.sol": {
            "ELO": [
                {
                    "length": 20,
                    "start": 2715
                },
                {
                    "length": 20,
                    "start": 5117
                },
                {
                    "length": 20,
                    "start": 5271
                },
                {
                    "length": 20,
                    "start": 5462
                },
                {
                    "length": 20,
                    "start": 8042
                },
                {
                    "length": 20,
                    "start": 8196
                },
                {
                    "length": 20,
                    "start": 8387
                }
            ]
        }
    }
}