{
    "_format": "hh-sol-artifact-1",
    "contractName": "Chess",
    "sourceName": "contracts/Chess.sol",
    "abi": [
        {
            "inputs": [
                {
                    "internalType": "bool",
                    "name": "enableDebugging",
                    "type": "bool"
                }
            ],
            "stateMutability": "nonpayable",
            "type": "constructor"
        },
        {
            "anonymous": false,
            "inputs": [
                {
                    "indexed": false,
                    "internalType": "string",
                    "name": "message",
                    "type": "string"
                },
                {
                    "indexed": false,
                    "internalType": "uint256",
                    "name": "value1",
                    "type": "uint256"
                },
                {
                    "indexed": false,
                    "internalType": "uint256",
                    "name": "value2",
                    "type": "uint256"
                },
                {
                    "indexed": false,
                    "internalType": "uint256",
                    "name": "value3",
                    "type": "uint256"
                }
            ],
            "name": "DebugInts",
            "type": "event"
        },
        {
            "anonymous": false,
            "inputs": [
                {
                    "indexed": true,
                    "internalType": "address",
                    "name": "player",
                    "type": "address"
                },
                {
                    "indexed": false,
                    "internalType": "uint256",
                    "name": "score",
                    "type": "uint256"
                }
            ],
            "name": "EloScoreUpdate",
            "type": "event"
        },
        {
            "anonymous": false,
            "inputs": [
                {
                    "indexed": true,
                    "internalType": "bytes32",
                    "name": "gameId",
                    "type": "bytes32"
                },
                {
                    "indexed": true,
                    "internalType": "address",
                    "name": "player",
                    "type": "address"
                }
            ],
            "name": "GameClosed",
            "type": "event"
        },
        {
            "anonymous": false,
            "inputs": [
                {
                    "indexed": true,
                    "internalType": "bytes32",
                    "name": "gameId",
                    "type": "bytes32"
                }
            ],
            "name": "GameDrawOfferRejected",
            "type": "event"
        },
        {
            "anonymous": false,
            "inputs": [
                {
                    "indexed": true,
                    "internalType": "bytes32",
                    "name": "gameId",
                    "type": "bytes32"
                }
            ],
            "name": "GameEnded",
            "type": "event"
        },
        {
            "anonymous": false,
            "inputs": [
                {
                    "indexed": true,
                    "internalType": "bytes32",
                    "name": "gameId",
                    "type": "bytes32"
                },
                {
                    "indexed": true,
                    "internalType": "address",
                    "name": "player1",
                    "type": "address"
                },
                {
                    "indexed": false,
                    "internalType": "string",
                    "name": "player1Alias",
                    "type": "string"
                },
                {
                    "indexed": false,
                    "internalType": "address",
                    "name": "playerWhite",
                    "type": "address"
                },
                {
                    "indexed": false,
                    "internalType": "uint256",
                    "name": "turnTime",
                    "type": "uint256"
                }
            ],
            "name": "GameInitialized",
            "type": "event"
        },
        {
            "anonymous": false,
            "inputs": [
                {
                    "indexed": true,
                    "internalType": "bytes32",
                    "name": "gameId",
                    "type": "bytes32"
                },
                {
                    "indexed": true,
                    "internalType": "address",
                    "name": "player1",
                    "type": "address"
                },
                {
                    "indexed": false,
                    "internalType": "string",
                    "name": "player1Alias",
                    "type": "string"
                },
                {
                    "indexed": true,
                    "internalType": "address",
                    "name": "player2",
                    "type": "address"
                },
                {
                    "indexed": false,
                    "internalType": "string",
                    "name": "player2Alias",
                    "type": "string"
                },
                {
                    "indexed": false,
                    "internalType": "address",
                    "name": "playerWhite",
                    "type": "address"
                }
            ],
            "name": "GameJoined",
            "type": "event"
        },
        {
            "anonymous": false,
            "inputs": [
                {
                    "indexed": true,
                    "internalType": "bytes32",
                    "name": "gameId",
                    "type": "bytes32"
                },
                {
                    "indexed": false,
                    "internalType": "int8[128]",
                    "name": "state",
                    "type": "int8[128]"
                }
            ],
            "name": "GameStateChanged",
            "type": "event"
        },
        {
            "anonymous": false,
            "inputs": [
                {
                    "indexed": true,
                    "internalType": "bytes32",
                    "name": "gameId",
                    "type": "bytes32"
                },
                {
                    "indexed": false,
                    "internalType": "uint256",
                    "name": "timeoutStarted",
                    "type": "uint256"
                },
                {
                    "indexed": false,
                    "internalType": "int8",
                    "name": "timeoutState",
                    "type": "int8"
                }
            ],
            "name": "GameTimeoutStarted",
            "type": "event"
        },
        {
            "anonymous": false,
            "inputs": [
                {
                    "indexed": true,
                    "internalType": "bytes32",
                    "name": "gameId",
                    "type": "bytes32"
                },
                {
                    "indexed": true,
                    "internalType": "address",
                    "name": "player",
                    "type": "address"
                },
                {
                    "indexed": false,
                    "internalType": "uint256",
                    "name": "fromIndex",
                    "type": "uint256"
                },
                {
                    "indexed": false,
                    "internalType": "uint256",
                    "name": "toIndex",
                    "type": "uint256"
                }
            ],
            "name": "Move",
            "type": "event"
        },
        {
            "inputs": [
                {
                    "internalType": "bytes32",
                    "name": "gameId",
                    "type": "bytes32"
                }
            ],
            "name": "claimTimeout",
            "outputs": [],
            "stateMutability": "nonpayable",
            "type": "function"
        },
        {
            "inputs": [
                {
                    "internalType": "bytes32",
                    "name": "gameId",
                    "type": "bytes32"
                }
            ],
            "name": "claimTimeoutEnded",
            "outputs": [],
            "stateMutability": "nonpayable",
            "type": "function"
        },
        {
            "inputs": [
                {
                    "internalType": "bytes32",
                    "name": "gameId",
                    "type": "bytes32"
                },
                {
                    "internalType": "uint256",
                    "name": "fromIndex",
                    "type": "uint256"
                },
                {
                    "internalType": "uint256",
                    "name": "toIndex",
                    "type": "uint256"
                }
            ],
            "name": "claimTimeoutEndedWithMove",
            "outputs": [],
            "stateMutability": "nonpayable",
            "type": "function"
        },
        {
            "inputs": [
                {
                    "internalType": "bytes32",
                    "name": "gameId",
                    "type": "bytes32"
                }
            ],
            "name": "claimWin",
            "outputs": [],
            "stateMutability": "nonpayable",
            "type": "function"
        },
        {
            "inputs": [
                {
                    "internalType": "bytes32",
                    "name": "gameId",
                    "type": "bytes32"
                }
            ],
            "name": "closePlayerGame",
            "outputs": [],
            "stateMutability": "nonpayable",
            "type": "function"
        },
        {
            "inputs": [
                {
                    "internalType": "bytes32",
                    "name": "gameId",
                    "type": "bytes32"
                }
            ],
            "name": "confirmGameEnded",
            "outputs": [],
            "stateMutability": "nonpayable",
            "type": "function"
        },
        {
            "inputs": [
                {
                    "internalType": "bytes32",
                    "name": "",
                    "type": "bytes32"
                }
            ],
            "name": "games",
            "outputs": [
                {
                    "internalType": "address",
                    "name": "player1",
                    "type": "address"
                },
                {
                    "internalType": "address",
                    "name": "player2",
                    "type": "address"
                },
                {
                    "internalType": "string",
                    "name": "player1Alias",
                    "type": "string"
                },
                {
                    "internalType": "string",
                    "name": "player2Alias",
                    "type": "string"
                },
                {
                    "internalType": "address",
                    "name": "nextPlayer",
                    "type": "address"
                },
                {
                    "internalType": "address",
                    "name": "winner",
                    "type": "address"
                },
                {
                    "internalType": "bool",
                    "name": "ended",
                    "type": "bool"
                },
                {
                    "internalType": "uint256",
                    "name": "turnTime",
                    "type": "uint256"
                },
                {
                    "internalType": "uint256",
                    "name": "timeoutStarted",
                    "type": "uint256"
                },
                {
                    "internalType": "uint256",
                    "name": "nextPlayerIndex",
                    "type": "uint256"
                },
                {
                    "internalType": "int8",
                    "name": "timeoutState",
                    "type": "int8"
                }
            ],
            "stateMutability": "view",
            "type": "function"
        },
        {
            "inputs": [
                {
                    "internalType": "address",
                    "name": "",
                    "type": "address"
                },
                {
                    "internalType": "bytes32",
                    "name": "",
                    "type": "bytes32"
                }
            ],
            "name": "gamesOfPlayers",
            "outputs": [
                {
                    "internalType": "bytes32",
                    "name": "",
                    "type": "bytes32"
                }
            ],
            "stateMutability": "view",
            "type": "function"
        },
        {
            "inputs": [
                {
                    "internalType": "address",
                    "name": "",
                    "type": "address"
                }
            ],
            "name": "gamesOfPlayersHeads",
            "outputs": [
                {
                    "internalType": "bytes32",
                    "name": "",
                    "type": "bytes32"
                }
            ],
            "stateMutability": "view",
            "type": "function"
        },
        {
            "inputs": [
                {
                    "internalType": "bytes32",
                    "name": "hash",
                    "type": "bytes32"
                },
                {
                    "internalType": "uint8",
                    "name": "v",
                    "type": "uint8"
                },
                {
                    "internalType": "bytes32",
                    "name": "r",
                    "type": "bytes32"
                },
                {
                    "internalType": "bytes32",
                    "name": "s",
                    "type": "bytes32"
                }
            ],
            "name": "getAddress",
            "outputs": [
                {
                    "internalType": "address",
                    "name": "",
                    "type": "address"
                }
            ],
            "stateMutability": "pure",
            "type": "function"
        },
        {
            "inputs": [
                {
                    "internalType": "bytes32",
                    "name": "gameId",
                    "type": "bytes32"
                }
            ],
            "name": "getCurrentGameState",
            "outputs": [
                {
                    "internalType": "int8[128]",
                    "name": "",
                    "type": "int8[128]"
                }
            ],
            "stateMutability": "view",
            "type": "function"
        },
        {
            "inputs": [
                {
                    "internalType": "address",
                    "name": "player",
                    "type": "address"
                }
            ],
            "name": "getEloScore",
            "outputs": [
                {
                    "internalType": "uint256",
                    "name": "",
                    "type": "uint256"
                }
            ],
            "stateMutability": "view",
            "type": "function"
        },
        {
            "inputs": [
                {
                    "internalType": "bytes32",
                    "name": "gameId",
                    "type": "bytes32"
                }
            ],
            "name": "getGameData",
            "outputs": [
                {
                    "components": [
                        {
                            "internalType": "address",
                            "name": "player1",
                            "type": "address"
                        },
                        {
                            "internalType": "address",
                            "name": "player2",
                            "type": "address"
                        },
                        {
                            "internalType": "string",
                            "name": "player1Alias",
                            "type": "string"
                        },
                        {
                            "internalType": "string",
                            "name": "player2Alias",
                            "type": "string"
                        },
                        {
                            "internalType": "address",
                            "name": "nextPlayer",
                            "type": "address"
                        },
                        {
                            "internalType": "address",
                            "name": "winner",
                            "type": "address"
                        },
                        {
                            "internalType": "bool",
                            "name": "ended",
                            "type": "bool"
                        },
                        {
                            "internalType": "uint256",
                            "name": "turnTime",
                            "type": "uint256"
                        },
                        {
                            "internalType": "uint256",
                            "name": "timeoutStarted",
                            "type": "uint256"
                        },
                        {
                            "internalType": "uint256",
                            "name": "nextPlayerIndex",
                            "type": "uint256"
                        },
                        {
                            "internalType": "int8",
                            "name": "timeoutState",
                            "type": "int8"
                        }
                    ],
                    "internalType": "struct TurnBasedGame.Game",
                    "name": "",
                    "type": "tuple"
                }
            ],
            "stateMutability": "view",
            "type": "function"
        },
        {
            "inputs": [
                {
                    "internalType": "address",
                    "name": "player",
                    "type": "address"
                }
            ],
            "name": "getGamesOfPlayer",
            "outputs": [
                {
                    "internalType": "bytes32[]",
                    "name": "",
                    "type": "bytes32[]"
                }
            ],
            "stateMutability": "view",
            "type": "function"
        },
        {
            "inputs": [],
            "name": "getOpenGameIds",
            "outputs": [
                {
                    "internalType": "bytes32[]",
                    "name": "",
                    "type": "bytes32[]"
                }
            ],
            "stateMutability": "view",
            "type": "function"
        },
        {
            "inputs": [
                {
                    "internalType": "bytes32",
                    "name": "gameId",
                    "type": "bytes32"
                }
            ],
            "name": "getWhitePlayer",
            "outputs": [
                {
                    "internalType": "address",
                    "name": "",
                    "type": "address"
                }
            ],
            "stateMutability": "view",
            "type": "function"
        },
        {
            "inputs": [],
            "name": "head",
            "outputs": [
                {
                    "internalType": "bytes32",
                    "name": "",
                    "type": "bytes32"
                }
            ],
            "stateMutability": "view",
            "type": "function"
        },
        {
            "inputs": [
                {
                    "internalType": "string",
                    "name": "player1Alias",
                    "type": "string"
                },
                {
                    "internalType": "bool",
                    "name": "playAsWhite",
                    "type": "bool"
                },
                {
                    "internalType": "uint256",
                    "name": "turnTime",
                    "type": "uint256"
                }
            ],
            "name": "initGame",
            "outputs": [
                {
                    "internalType": "bytes32",
                    "name": "",
                    "type": "bytes32"
                }
            ],
            "stateMutability": "nonpayable",
            "type": "function"
        },
        {
            "inputs": [
                {
                    "internalType": "bytes32",
                    "name": "gameId",
                    "type": "bytes32"
                }
            ],
            "name": "isGameEnded",
            "outputs": [
                {
                    "internalType": "bool",
                    "name": "",
                    "type": "bool"
                }
            ],
            "stateMutability": "view",
            "type": "function"
        },
        {
            "inputs": [
                {
                    "internalType": "bytes32",
                    "name": "gameId",
                    "type": "bytes32"
                },
                {
                    "internalType": "string",
                    "name": "player2Alias",
                    "type": "string"
                }
            ],
            "name": "joinGame",
            "outputs": [],
            "stateMutability": "nonpayable",
            "type": "function"
        },
        {
            "inputs": [
                {
                    "internalType": "bytes32",
                    "name": "gameId",
                    "type": "bytes32"
                },
                {
                    "internalType": "uint256",
                    "name": "fromIndex",
                    "type": "uint256"
                },
                {
                    "internalType": "uint256",
                    "name": "toIndex",
                    "type": "uint256"
                }
            ],
            "name": "move",
            "outputs": [],
            "stateMutability": "nonpayable",
            "type": "function"
        },
        {
            "inputs": [
                {
                    "internalType": "bytes32",
                    "name": "gameId",
                    "type": "bytes32"
                },
                {
                    "internalType": "int8[128]",
                    "name": "state",
                    "type": "int8[128]"
                },
                {
                    "internalType": "uint256",
                    "name": "fromIndex",
                    "type": "uint256"
                },
                {
                    "internalType": "uint256",
                    "name": "toIndex",
                    "type": "uint256"
                },
                {
                    "internalType": "bytes",
                    "name": "sigState",
                    "type": "bytes"
                }
            ],
            "name": "moveFromState",
            "outputs": [],
            "stateMutability": "nonpayable",
            "type": "function"
        },
        {
            "inputs": [
                {
                    "internalType": "bytes32",
                    "name": "gameId",
                    "type": "bytes32"
                }
            ],
            "name": "offerDraw",
            "outputs": [],
            "stateMutability": "nonpayable",
            "type": "function"
        },
        {
            "inputs": [
                {
                    "internalType": "bytes32",
                    "name": "",
                    "type": "bytes32"
                }
            ],
            "name": "openGameIds",
            "outputs": [
                {
                    "internalType": "bytes32",
                    "name": "",
                    "type": "bytes32"
                }
            ],
            "stateMutability": "view",
            "type": "function"
        },
        {
            "inputs": [
                {
                    "internalType": "bytes32",
                    "name": "gameId",
                    "type": "bytes32"
                }
            ],
            "name": "rejectCurrentPlayerDraw",
            "outputs": [],
            "stateMutability": "nonpayable",
            "type": "function"
        },
        {
            "inputs": [
                {
                    "internalType": "bytes32",
                    "name": "gameId",
                    "type": "bytes32"
                },
                {
                    "internalType": "int8[128]",
                    "name": "state",
                    "type": "int8[128]"
                },
                {
                    "internalType": "address",
                    "name": "nextPlayer",
                    "type": "address"
                }
            ],
            "name": "setGameState",
            "outputs": [],
            "stateMutability": "nonpayable",
            "type": "function"
        },
        {
            "inputs": [
                {
                    "internalType": "bytes32",
                    "name": "gameId",
                    "type": "bytes32"
                }
            ],
            "name": "surrender",
            "outputs": [],
            "stateMutability": "nonpayable",
            "type": "function"
        },
        {
            "inputs": [
                {
                    "internalType": "address",
                    "name": "account",
                    "type": "address"
                },
                {
                    "internalType": "bytes32",
                    "name": "hash",
                    "type": "bytes32"
                },
                {
                    "internalType": "uint8",
                    "name": "v",
                    "type": "uint8"
                },
                {
                    "internalType": "bytes32",
                    "name": "r",
                    "type": "bytes32"
                },
                {
                    "internalType": "bytes32",
                    "name": "s",
                    "type": "bytes32"
                }
            ],
            "name": "verify",
            "outputs": [
                {
                    "internalType": "bool",
                    "name": "",
                    "type": "bool"
                }
            ],
            "stateMutability": "pure",
            "type": "function"
        },
        {
            "inputs": [
                {
                    "internalType": "address",
                    "name": "account",
                    "type": "address"
                },
                {
                    "internalType": "bytes32",
                    "name": "hash",
                    "type": "bytes32"
                },
                {
                    "internalType": "bytes",
                    "name": "sig",
                    "type": "bytes"
                }
            ],
            "name": "verifySig",
            "outputs": [
                {
                    "internalType": "bool",
                    "name": "",
                    "type": "bool"
                }
            ],
            "stateMutability": "pure",
            "type": "function"
        }
    ],
    "bytecode": "0x60806040523480156200001157600080fd5b506040516200533d3803806200533d833981016040819052620000349162000055565b6000805460ff191691151591909117905562195b9960ea1b60035562000080565b6000602082840312156200006857600080fd5b815180151581146200007957600080fd5b9392505050565b6152ad80620000906000396000f3fe608060405234801561001057600080fd5b50600436106101cf5760003560e01c8063996301e411610104578063b9145944116100a2578063e6de139f11610071578063e6de139f14610456578063f0b05bfd14610476578063f579f88214610489578063f5b5af16146104b357600080fd5b8063b914594414610408578063d5fdb3341461041b578063e0db678114610430578063e6378d3a1461044357600080fd5b8063aaa5a02a116100de578063aaa5a02a146103a3578063aec1914d146103b6578063af9c5e7a146103c9578063b8ab9883146103f557600080fd5b8063996301e4146103525780639e7d24df14610365578063a8608fc41461037857600080fd5b80636143a80a116101715780636f9b0b7d1161014b5780636f9b0b7d146103035780637e84adda146103235780638f7dcfa31461033657806395c0c3f61461033f57600080fd5b80636143a80a146102b05780636e939d05146102dd5780636ea6d76d146102f057600080fd5b8063364d0b53116101ad578063364d0b531461022f5780634ce8a6491461025a578063506535f31461027a57806354c912951461029d57600080fd5b80630a277d28146101d45780630b5faf971461020757806310cb4d641461021c575b600080fd5b6101f46101e2366004614518565b60026020526000908152604090205481565b6040519081526020015b60405180910390f35b61021a610215366004614518565b6104c6565b005b61021a61022a366004614518565b6105f8565b61024261023d366004614542565b610881565b6040516001600160a01b0390911681526020016101fe565b61026d610268366004614518565b6108ea565b6040516101fe91906145ca565b61028d6102883660046146d6565b610b37565b60405190151581526020016101fe565b6101f46102ab366004614724565b610b64565b61028d6102be366004614518565b600090815260016020526040902060050154600160a01b900460ff1690565b61021a6102eb36600461486b565b610bf0565b6101f46102fe3660046148db565b610e8c565b610316610311366004614518565b611054565b6040516101fe919061493a565b61021a610331366004614966565b6110b9565b6101f460035481565b61021a61034d366004614518565b611219565b61021a610360366004614518565b61161f565b61021a6103733660046149a5565b611650565b6101f46103863660046149d1565b600460209081526000928352604080842090915290825290205481565b61021a6103b1366004614518565b611a07565b61021a6103c4366004614518565b611ca0565b6102426103d7366004614518565b6000908152600660205260409020600401546001600160a01b031690565b61021a6104033660046149a5565b611cd1565b61028d6104163660046149fb565b61219f565b6104236121fe565b6040516101fe9190614a52565b61021a61043e366004614518565b6122dd565b61021a610451366004614a96565b6125ea565b6101f4610464366004614724565b60056020526000908152604090205481565b610423610484366004614724565b6126e9565b61049c610497366004614518565b6127ff565b6040516101fe9b9a99989796959493929190614add565b61021a6104c1366004614518565b612989565b6000818152600160205260409020600501548190600160a01b900460ff16156104ee57600080fd5b6104f782612dc1565b6000828152600660205260408120600401546001600160a01b0316331461051f576001610523565b6000195b60008481526006602052604080822090517fac54c06a000000000000000000000000000000000000000000000000000000008152600481019190915282820b60248201529192509073__$a35913077468e138cb65c110133d46955b$__9063ac54c06a90604401602060405180830381865af41580156105a7573d6000803e3d6000fd5b505050506040513d601f19601f820116820180604052508101906105cb9190614b61565b600085815260066020526040812091900b91506105e990828461305a565b6105f257600080fd5b50505050565b6000818152600160205260409020600501548190600160a01b900460ff161561062057600080fd5b600082815260016020818152604080842081516101608101835281546001600160a01b03908116825294820154909416928401929092526002820180549184019161066a90614b7e565b80601f016020809104026020016040519081016040528092919081815260200182805461069690614b7e565b80156106e35780601f106106b8576101008083540402835291602001916106e3565b820191906000526020600020905b8154815290600101906020018083116106c657829003601f168201915b505050505081526020016003820180546106fc90614b7e565b80601f016020809104026020016040519081016040528092919081815260200182805461072890614b7e565b80156107755780601f1061074a57610100808354040283529160200191610775565b820191906000526020600020905b81548152906001019060200180831161075857829003601f168201915b505050918352505060048201546001600160a01b03908116602083015260058301548082166040840152600160a01b900460ff161515606083015260068301546080830152600783015460a0830152600883015460c083015260099092015460000b60e0909101528151919250163314801590610808575080602001516001600160a01b0316336001600160a01b031614155b61081157600080fd5b80610140015160000b600119141561082857600080fd5b80608001516001600160a01b0316336001600160a01b03161461084a57600080fd5b6000610140820181905260405184917f93fb7313237063c4e9125ede622021437dd841d96bb10a0074558c3c6fde333f91a2505050565b6040805160008082526020820180845287905260ff861692820192909252606081018490526080810183905260019060a0016020604051602081039080840390855afa1580156108d5573d6000803e3d6000fd5b5050506020604051035190505b949350505050565b61096f60405180610160016040528060006001600160a01b0316815260200160006001600160a01b03168152602001606081526020016060815260200160006001600160a01b0316815260200160006001600160a01b031681526020016000151581526020016000815260200160008152602001600081526020016000800b81525090565b60008281526001602081815260409283902083516101608101855281546001600160a01b039081168252938201549093169183019190915260028101805492939192918401916109be90614b7e565b80601f01602080910402602001604051908101604052809291908181526020018280546109ea90614b7e565b8015610a375780601f10610a0c57610100808354040283529160200191610a37565b820191906000526020600020905b815481529060010190602001808311610a1a57829003601f168201915b50505050508152602001600382018054610a5090614b7e565b80601f0160208091040260200160405190810160405280929190818152602001828054610a7c90614b7e565b8015610ac95780601f10610a9e57610100808354040283529160200191610ac9565b820191906000526020600020905b815481529060010190602001808311610aac57829003601f168201915b505050918352505060048201546001600160a01b03908116602083015260058301549081166040830152600160a01b900460ff161515606082015260068201546080820152600782015460a0820152600882015460c082015260099091015460000b60e09091015292915050565b6000610b4585858585610881565b6001600160a01b0316866001600160a01b031614905095945050505050565b6040516360fa41b960e01b8152600760048201526001600160a01b038216602482015260009073__$a486789ff8c9d1035341fa2865e2dde439$__906360fa41b990604401602060405180830381865af4158015610bc6573d6000803e3d6000fd5b505050506040513d601f19601f82011682018060405250810190610bea9190614bb9565b92915050565b6000858152600160205260409020600501548590600160a01b900460ff1615610c1857600080fd5b6000868152600160205260409020546001600160a01b03163314801590610c5a5750600086815260016020819052604090912001546001600160a01b03163314155b15610c6457600080fd5b6000868152600160205260408120546001600160a01b0316331415610ca55750600086815260016020819052604090912001546001600160a01b0316610cbf565b506000868152600160205260409020546001600160a01b03165b610cf2818789604051602001610cd6929190614bd2565b604051602081830303815290604052805190602001208561219f565b610cfb57600080fd5b60008781526006602052604081205469010000000000000000008104820b91610d359160809168010000000000000000909104900b614c3d565b610d3f9190614cbe565b60000b866009602002015160808860086020020151610d5e9190614c3d565b610d689190614cbe565b60000b1215610d7657600080fd5b6000878152600660205260408120600401546001600160a01b03163314610d9f57600019610da2565b60015b600089815260066020526040908190209051631482911760e01b815291925073__$a35913077468e138cb65c110133d46955b$__91631482911791610ded918b908690600401614d01565b60006040518083038186803b158015610e0557600080fd5b505af4158015610e19573d6000803e3d6000fd5b50505060008981526001602052604090206004810180546001600160a01b0319163390811790915590546001600160a01b0316149050610e5a576002610e5d565b60015b600089815260016020526040902060ff91909116600890910155610e82888787611650565b5050505050505050565b600080610e9a858585613206565b6000818152600660205260409081902090517f25b65940000000000000000000000000000000000000000000000000000000008152600481019190915260016024820181905291925073__$a35913077468e138cb65c110133d46955b$__906325b659409060440160006040518083038186803b158015610f1a57600080fd5b505af4158015610f2e573d6000803e3d6000fd5b505050508415610f8e576000828152600660209081526040808320600490810180546001600160a01b0319908116331790915560019384905291909320805493810180549092166001600160a01b03949094169390931790556008909101555b600082815260016020818152604080842080546006808552958390206004015494909352939093015492516001600160a01b039182169386937ff678960e114cde53225a88ee04857c943915f0b3288eac8f93b65e32e764835993610ff9938d939190921691614d48565b60405180910390a360008281526006602052604090819020905183917fa90ab0b2ea4f4aa7bc1fe53bb56968e4909efc42a5b919f4bde19e4fcf7412f1916110419190614d76565b60405180910390a25090505b9392505050565b61105c614460565b60008281526006602052604080822081516110008101928390529290916080918390855b825461010083900a900460000b815260206001928301818104948501949093039092029101808411611080575094979650505050505050565b60005460ff166110c857600080fd5b6000838152600660205260408120600401546001600160a01b038381169116146110f4576000196110f7565b60015b600085815260066020526040908190209051631482911760e01b815291925073__$a35913077468e138cb65c110133d46955b$__916314829117916111429187908690600401614d01565b60006040518083038186803b15801561115a57600080fd5b505af415801561116e573d6000803e3d6000fd5b50505060008581526001602052604090206004810180546001600160a01b0319166001600160a01b038681169182179092559154161490506111b15760026111b4565b60015b600085815260016020908152604080832060ff9490941660089094019390935560069052819020905185917fa90ab0b2ea4f4aa7bc1fe53bb56968e4909efc42a5b919f4bde19e4fcf7412f19161120b9190614d76565b60405180910390a250505050565b6000818152600160205260409020600501548190600160a01b900460ff161561124157600080fd5b61124a826132eb565b600082815260016020818152604080842081516101608101835281546001600160a01b03908116825294820154909416928401929092526002820180549184019161129490614b7e565b80601f01602080910402602001604051908101604052809291908181526020018280546112c090614b7e565b801561130d5780601f106112e25761010080835404028352916020019161130d565b820191906000526020600020905b8154815290600101906020018083116112f057829003601f168201915b5050505050815260200160038201805461132690614b7e565b80601f016020809104026020016040519081016040528092919081815260200182805461135290614b7e565b801561139f5780601f106113745761010080835404028352916020019161139f565b820191906000526020600020905b81548152906001019060200180831161138257829003601f168201915b50505091835250506004828101546001600160a01b039081166020808501919091526005850154808316604080870191909152600160a01b90910460ff16151560608601526006860154608086015260078087015460a080880191909152600888015460c088015260099097015460000b60e090960195909552865191870151958701519051638961807160e01b8152938401949094528116602483015292831660448201529116606482015290915073__$a486789ff8c9d1035341fa2865e2dde439$__9063896180719060840160006040518083038186803b15801561148657600080fd5b505af415801561149a573d6000803e3d6000fd5b505082516040516360fa41b960e01b8152600760048201526001600160a01b039091166024820181905292507f436cd2e07aa4cba8ae9d50f800c208d467149afb08b8724a312e2c301c336e82915073__$a486789ff8c9d1035341fa2865e2dde439$__906360fa41b990604401602060405180830381865af4158015611525573d6000803e3d6000fd5b505050506040513d601f19601f820116820180604052508101906115499190614bb9565b60405190815260200160405180910390a260208101516040516360fa41b960e01b8152600760048201526001600160a01b0390911660248201819052907f436cd2e07aa4cba8ae9d50f800c208d467149afb08b8724a312e2c301c336e829073__$a486789ff8c9d1035341fa2865e2dde439$__906360fa41b990604401602060405180830381865af41580156115e4573d6000803e3d6000fd5b505050506040513d601f19601f820116820180604052508101906116089190614bb9565b6040519081526020015b60405180910390a2505050565b6000818152600160205260409020600501548190600160a01b900460ff161561164757600080fd5b61124a8261365d565b6000838152600160205260409020600501548390600160a01b900460ff161561167857600080fd5b6000848152600160205260408120600901546002910b1480156116d357506000848152600160205260409020600601546116b390603c614f9b565b6000858152600160205260409020600701546116cf9190614fba565b4210155b80156116f957506000848152600160205260409020600401546001600160a01b03163314155b1561179c576000848152600660205260409081902060048082015492516356e024e560e11b81529081019190915260248101859052604481018490526001600160a01b03909116331415606482015273__$a35913077468e138cb65c110133d46955b$__9063adc049ca9060840160006040518083038186803b15801561177f57600080fd5b505af4158015611793573d6000803e3d6000fd5b5050505061198a565b6000848152600160205260409020600401546001600160a01b03163314611823576040517f08c379a000000000000000000000000000000000000000000000000000000000815260206004820152600c60248201527f57726f6e6720706c617965720000000000000000000000000000000000000000604482015260640160405180910390fd5b600084815260016020526040812060090154900b15611856576000848152600160205260409020600901805460ff191690555b6000848152600660205260409081902060048082015492516356e024e560e11b81529081019190915260248101859052604481018490526001600160a01b039091163314606482015273__$a35913077468e138cb65c110133d46955b$__9063adc049ca9060840160006040518083038186803b1580156118d657600080fd5b505af41580156118ea573d6000803e3d6000fd5b5050506000858152600160205260409020546001600160a01b03163314159050611951576000848152600160208190526040909120908101546004820180546001600160a01b0319166001600160a01b03909216919091179055600260089091015561198a565b600084815260016020819052604090912080546004820180546001600160a01b0319166001600160a01b03909216919091179055600801555b6040805184815260208101849052339186917f8c96aa96b948031932de222ce53642a37def495d79ab00b4ada2b95c07d26583910160405180910390a360008481526006602052604090819020905185917fa90ab0b2ea4f4aa7bc1fe53bb56968e4909efc42a5b919f4bde19e4fcf7412f19161120b9190614d76565b6000818152600160205260409020600501548190600160a01b900460ff1615611a2f57600080fd5b600082815260016020818152604080842081516101608101835281546001600160a01b039081168252948201549094169284019290925260028201805491840191611a7990614b7e565b80601f0160208091040260200160405190810160405280929190818152602001828054611aa590614b7e565b8015611af25780601f10611ac757610100808354040283529160200191611af2565b820191906000526020600020905b815481529060010190602001808311611ad557829003601f168201915b50505050508152602001600382018054611b0b90614b7e565b80601f0160208091040260200160405190810160405280929190818152602001828054611b3790614b7e565b8015611b845780601f10611b5957610100808354040283529160200191611b84565b820191906000526020600020905b815481529060010190602001808311611b6757829003601f168201915b505050918352505060048201546001600160a01b03908116602083015260058301548082166040840152600160a01b900460ff161515606083015260068301546080830152600783015460a0830152600883015460c083015260099092015460000b60e0909101528151919250163314801590611c17575080602001516001600160a01b0316336001600160a01b031614155b611c2057600080fd5b61014081015160000b611c3257600080fd5b80608001516001600160a01b0316336001600160a01b031614611c5457600080fd5b4261010082018190526002610140830181905260408051928352602083019190915284917f12756c8b9561cc3ee7eda20b88ecf6fa8a596ebe05a1d19be769e2dd39da1cde9101611612565b6000818152600160205260409020600501548190600160a01b900460ff1615611cc857600080fd5b61124a826139c8565b6000838152600160205260409020600501548390600160a01b900460ff1615611cf957600080fd5b600084815260016020818152604080842081516101608101835281546001600160a01b039081168252948201549094169284019290925260028201805491840191611d4390614b7e565b80601f0160208091040260200160405190810160405280929190818152602001828054611d6f90614b7e565b8015611dbc5780601f10611d9157610100808354040283529160200191611dbc565b820191906000526020600020905b815481529060010190602001808311611d9f57829003601f168201915b50505050508152602001600382018054611dd590614b7e565b80601f0160208091040260200160405190810160405280929190818152602001828054611e0190614b7e565b8015611e4e5780601f10611e2357610100808354040283529160200191611e4e565b820191906000526020600020905b815481529060010190602001808311611e3157829003601f168201915b505050918352505060048201546001600160a01b03908116602083015260058301548082166040840152600160a01b900460ff161515606083015260068301546080830152600783015460a0830152600883015460c083015260099092015460000b60e0909101528151919250163314801590611ee1575080602001516001600160a01b0316336001600160a01b031614155b15611eeb57600080fd5b60e0810151611efb90603c614f9b565b816101000151611f0b9190614fba565b421015611f1757600080fd5b80608001516001600160a01b0316336001600160a01b03161415611f3a57600080fd5b80610140015160000b600214611f4f57600080fd5b611f5a858585611650565b600160c08201523360a0820181905281516020830151604051638961807160e01b8152600760048201526001600160a01b03928316602482015291166044820152606481019190915273__$a486789ff8c9d1035341fa2865e2dde439$__9063896180719060840160006040518083038186803b158015611fda57600080fd5b505af4158015611fee573d6000803e3d6000fd5b505082516040516360fa41b960e01b8152600760048201526001600160a01b039091166024820181905292507f436cd2e07aa4cba8ae9d50f800c208d467149afb08b8724a312e2c301c336e82915073__$a486789ff8c9d1035341fa2865e2dde439$__906360fa41b990604401602060405180830381865af4158015612079573d6000803e3d6000fd5b505050506040513d601f19601f8201168201806040525081019061209d9190614bb9565b60405190815260200160405180910390a260208101516040516360fa41b960e01b8152600760048201526001600160a01b0390911660248201819052907f436cd2e07aa4cba8ae9d50f800c208d467149afb08b8724a312e2c301c336e829073__$a486789ff8c9d1035341fa2865e2dde439$__906360fa41b990604401602060405180830381865af4158015612138573d6000803e3d6000fd5b505050506040513d601f19601f8201168201806040525081019061215c9190614bb9565b60405190815260200160405180910390a260405185907fdfbf0a97d8d3b796cd819f1c2fdebb01eabf975797feee4dc7c43b0794b7073f90600090a25050505050565b60008060008084516041146121ba576000935050505061104d565b50505060208201516040830151604184015160ff16601b8110156121e6576121e3601b82614fd2565b90505b6121f38787838686610b37565b979650505050505050565b6003546060906000905b8062195b9960ea1b14612239578161221f81614ff7565b600092835260026020526040909220549192506122089050565b5060008167ffffffffffffffff8111156122555761225561473f565b60405190808252806020026020018201604052801561227e578160200160208202803683370190505b5060035490915060005b838110156122d457818382815181106122a3576122a3614c11565b60209081029190910181019190915260009283526002905260409091205490806122cc81614ff7565b915050612288565b50909392505050565b6000818152600160205260409020600501548190600160a01b900460ff161561230557600080fd5b600082815260016020818152604080842081516101608101835281546001600160a01b03908116825294820154909416928401929092526002820180549184019161234f90614b7e565b80601f016020809104026020016040519081016040528092919081815260200182805461237b90614b7e565b80156123c85780601f1061239d576101008083540402835291602001916123c8565b820191906000526020600020905b8154815290600101906020018083116123ab57829003601f168201915b505050505081526020016003820180546123e190614b7e565b80601f016020809104026020016040519081016040528092919081815260200182805461240d90614b7e565b801561245a5780601f1061242f5761010080835404028352916020019161245a565b820191906000526020600020905b81548152906001019060200180831161243d57829003601f168201915b505050918352505060048201546001600160a01b03908116602083015260058301548082166040840152600160a01b900460ff161515606083015260068301546080830152600783015460a0830152600883015460c083015260099092015460000b60e09091015281519192501633148015906124ed575080602001516001600160a01b0316336001600160a01b031614155b6124f657600080fd5b61014081015160000b15801590612516575080610140015160000b600214155b61251f57600080fd5b80610140015160000b6002148015612560575060e0810151612542906002614f9b565b61254d90603c614f9b565b81610100015161255d9190614fba565b42105b61256957600080fd5b80608001516001600160a01b0316336001600160a01b031614156125955760011961014082015261259f565b6000196101408201525b42610100820181905261014082015160405185927f12756c8b9561cc3ee7eda20b88ecf6fa8a596ebe05a1d19be769e2dd39da1cde926116129291825260000b602082015260400190565b6125f48282613b13565b6000828152600660205260409020600401546001600160a01b031661266e576000828152600660209081526040808320600490810180546001600160a01b03199081163317909155600193849052919093209182015492820180549091166001600160a01b03939093169290921790915560026008909101555b60008281526001602081815260408084209283015483546006909352938190206004015490516001600160a01b03948516949283169387937ff6909f7b909a913d5e17179a238fb8bb2bebaeb52aa3f0c3ba833c6c8c9a68d6936126dd93600290930192899290911690615012565b60405180910390a45050565b6001600160a01b038116600090815260056020526040812054606091815b8015612747578161271781614ff7565b6001600160a01b038716600090815260046020908152604080832095835294905292909220549192506127079050565b5060008167ffffffffffffffff8111156127635761276361473f565b60405190808252806020026020018201604052801561278c578160200160208202803683370190505b5090508260005b838110156127f457818382815181106127ae576127ae614c11565b6020908102919091018101919091526001600160a01b038816600090815260048252604080822094825293909152919091205490806127ec81614ff7565b915050612793565b509095945050505050565b60016020819052600091825260409091208054918101546002820180546001600160a01b0394851694909216929161283690614b7e565b80601f016020809104026020016040519081016040528092919081815260200182805461286290614b7e565b80156128af5780601f10612884576101008083540402835291602001916128af565b820191906000526020600020905b81548152906001019060200180831161289257829003601f168201915b5050505050908060030180546128c490614b7e565b80601f01602080910402602001604051908101604052809291908181526020018280546128f090614b7e565b801561293d5780601f106129125761010080835404028352916020019161293d565b820191906000526020600020905b81548152906001019060200180831161292057829003601f168201915b505050506004830154600584015460068501546007860154600887015460099097015495966001600160a01b03948516969484169550600160a01b90930460ff16939192909160000b8b565b600081815260016020818152604080842081516101608101835281546001600160a01b0390811682529482015490941692840192909252600282018054918401916129d390614b7e565b80601f01602080910402602001604051908101604052809291908181526020018280546129ff90614b7e565b8015612a4c5780601f10612a2157610100808354040283529160200191612a4c565b820191906000526020600020905b815481529060010190602001808311612a2f57829003601f168201915b50505050508152602001600382018054612a6590614b7e565b80601f0160208091040260200160405190810160405280929190818152602001828054612a9190614b7e565b8015612ade5780601f10612ab357610100808354040283529160200191612ade565b820191906000526020600020905b815481529060010190602001808311612ac157829003601f168201915b505050918352505060048201546001600160a01b0390811660208084019190915260058401548083166040850152600160a01b900460ff161515606084015260068401546080840152600784015460a0840152600884015460c084015260099093015460000b60e09092019190915290820151919250161580612b6257508060c001515b612b6b57600080fd5b80516001600160a01b03163314801590612b9b575080602001516001600160a01b0316336001600160a01b031614155b15612ba557600080fd5b8060c00151612bd1576000828152600160205260409020600501805460ff60a01b1916600160a01b1790555b60208101516001600160a01b0316612c9357816003541415612c1057600380546000908152600260205260408082205490925583815290812055612c93565b6003545b8062195b9960ea1b14158015612c3e575060008181526002602052604090205462195b9960ea1b14155b15612c9157600081815260026020526040902054831415612c7d5760008381526002602052604080822080548484529183209190915584825255612c91565b600090815260026020526040902054612c14565b505b3360009081526005602052604090205482811415612ce657336000818152600460209081526040808320858452808352818420549484526005835281842094909455600354835292905290812055612d8f565b805b8015801590612d17575033600090815260046020908152604080832084845290915290205462195b9960ea1b14155b15612d8d57336000908152600460209081526040808320848452909152902054841415612d6e5733600090815260046020908152604080832087845290915280822080548484529183209190915585825255612d8d565b3360009081526004602090815260408083209383529290522054612ce8565b505b604051339084907f355481a0787ef046ee5e4c47a8cfd2b43e453bff08274f9dbba1a737218f423790600090a3505050565b6000818152600160205260409020600501548190600160a01b900460ff1615612de957600080fd5b600082815260016020818152604080842081516101608101835281546001600160a01b039081168252948201549094169284019290925260028201805491840191612e3390614b7e565b80601f0160208091040260200160405190810160405280929190818152602001828054612e5f90614b7e565b8015612eac5780601f10612e8157610100808354040283529160200191612eac565b820191906000526020600020905b815481529060010190602001808311612e8f57829003601f168201915b50505050508152602001600382018054612ec590614b7e565b80601f0160208091040260200160405190810160405280929190818152602001828054612ef190614b7e565b8015612f3e5780601f10612f1357610100808354040283529160200191612f3e565b820191906000526020600020905b815481529060010190602001808311612f2157829003601f168201915b505050918352505060048201546001600160a01b03908116602083015260058301548082166040840152600160a01b900460ff161515606083015260068301546080830152600783015460a0830152600883015460c083015260099092015460000b60e0909101528151919250163314801590612fd1575080602001516001600160a01b0316336001600160a01b031614155b612fda57600080fd5b61014081015160000b612fec57600080fd5b80608001516001600160a01b0316336001600160a01b03161461300e57600080fd5b4261010082018190526001610140830181905260408051928352602083019190915284917f12756c8b9561cc3ee7eda20b88ecf6fa8a596ebe05a1d19be769e2dd39da1cde9101611612565b6000805b600881101561313157600061308d86613087846007811115613082576130826150dd565b613c6c565b87613cda565b90508060000b6000191461311e5760008682820b608081106130b1576130b1614c11565b6020810490910154601f9091166101000a9004600090810b91506130d58683614c3d565b60000b121561311c576000856130eb600c613d57565b6130f59190614c3d565b9050613108888460ff168985858b613d77565b1561311a57600194505050505061104d565b505b505b508061312981614ff7565b91505061305e565b5060005b60088110156131fb57600060408051806040016040528060088152602001671f212e324e525f6160c01b815250838151811061317357613173614c11565b01602001516131859060f81c87614cbe565b61318f91906150f3565b9050608881166131e85760006131b88260000b600c8111156131b3576131b36150dd565b613d57565b90506131c46008613d57565b60000b6131d18683614c3d565b60000b14156131e6576001935050505061104d565b505b50806131f381614ff7565b915050613135565b506000949350505050565b6000600582101561321657600080fd5b6040516bffffffffffffffffffffffff193360601b16602082015243603482015260009060540160408051601f1981840301815291815281516020928301206000818152600184529190912060058101805460ff60a01b191690556006810186905560098101805460ff1916905580546001600160a01b0319163317815587519193506132ac926002909101919088019061447f565b50336000908152600560209081526040808320805460048452828520868652845282852055849055600380546002909352922055819055949350505050565b6000818152600160205260409020600501548190600160a01b900460ff161561331357600080fd5b600082815260016020818152604080842081516101608101835281546001600160a01b03908116825294820154909416928401929092526002820180549184019161335d90614b7e565b80601f016020809104026020016040519081016040528092919081815260200182805461338990614b7e565b80156133d65780601f106133ab576101008083540402835291602001916133d6565b820191906000526020600020905b8154815290600101906020018083116133b957829003601f168201915b505050505081526020016003820180546133ef90614b7e565b80601f016020809104026020016040519081016040528092919081815260200182805461341b90614b7e565b80156134685780601f1061343d57610100808354040283529160200191613468565b820191906000526020600020905b81548152906001019060200180831161344b57829003601f168201915b505050918352505060048201546001600160a01b03908116602083015260058301548082166040840152600160a01b900460ff161515606083015260068301546080830152600783015460a0830152600883015460c083015260099092015460000b60e09091015281519192501633148015906134fb575080602001516001600160a01b0316336001600160a01b031614155b61350457600080fd5b61014081015160000b1561351757600080fd5b80608001516001600160a01b0316336001600160a01b03161461357d5780610140015160000b60011914156101cf57600160c082015260405183907fdfbf0a97d8d3b796cd819f1c2fdebb01eabf975797feee4dc7c43b0794b7073f90600090a2505050565b80610140015160000b60001914156135c657600160c082015260405183907fdfbf0a97d8d3b796cd819f1c2fdebb01eabf975797feee4dc7c43b0794b7073f90600090a2505050565b80610140015160000b600114806135e5575080610140015160000b6002145b156101cf57600160c082015280516001600160a01b031633141561361b5760208101516001600160a01b031660a082015261362c565b80516001600160a01b031660a08201525b60405183907fdfbf0a97d8d3b796cd819f1c2fdebb01eabf975797feee4dc7c43b0794b7073f90600090a25b505050565b6000818152600160205260409020600501548190600160a01b900460ff161561368557600080fd5b600082815260016020818152604080842081516101608101835281546001600160a01b0390811682529482015490941692840192909252600282018054918401916136cf90614b7e565b80601f01602080910402602001604051908101604052809291908181526020018280546136fb90614b7e565b80156137485780601f1061371d57610100808354040283529160200191613748565b820191906000526020600020905b81548152906001019060200180831161372b57829003601f168201915b5050505050815260200160038201805461376190614b7e565b80601f016020809104026020016040519081016040528092919081815260200182805461378d90614b7e565b80156137da5780601f106137af576101008083540402835291602001916137da565b820191906000526020600020905b8154815290600101906020018083116137bd57829003601f168201915b505050918352505060048201546001600160a01b03908116602083015260058301548082166040840152600160a01b900460ff161515606083015260068301546080830152600783015460a0830152600883015460c083015260099092015460000b60e090910152815191925016331480159061386d575080602001516001600160a01b0316336001600160a01b031614155b1561387757600080fd5b61014081015160000b1580613894575080610140015160000b6002145b1561389e57600080fd5b60e08101516138ae90603c614f9b565b8161010001516138be9190614fba565b4210156138ca57600080fd5b80608001516001600160a01b0316336001600160a01b031614156139315780610140015160000b60011914156101cf57600160c082015260405183907fdfbf0a97d8d3b796cd819f1c2fdebb01eabf975797feee4dc7c43b0794b7073f90600090a2505050565b80610140015160000b600019141561397a57600160c082015260405183907fdfbf0a97d8d3b796cd819f1c2fdebb01eabf975797feee4dc7c43b0794b7073f90600090a2505050565b80610140015160000b600114156101cf57600160c08201523360a082015260405183907fdfbf0a97d8d3b796cd819f1c2fdebb01eabf975797feee4dc7c43b0794b7073f90600090a2505050565b6000818152600160205260409020600501548190600160a01b900460ff16156139f057600080fd5b6000828152600160205260409020600501546001600160a01b031615613a1557600080fd5b6000828152600160205260409020546001600160a01b0316331415613a7057600082815260016020819052604090912090810154600590910180546001600160a01b0319166001600160a01b03909216919091179055613ac6565b600082815260016020819052604090912001546001600160a01b03163314156101cf5760008281526001602052604090208054600590910180546001600160a01b0319166001600160a01b039092169190911790555b600082815260016020526040808220600501805460ff60a01b1916600160a01b1790555183917fdfbf0a97d8d3b796cd819f1c2fdebb01eabf975797feee4dc7c43b0794b7073f91a25050565b600082815260016020819052604090912001546001600160a01b031615613b3957600080fd5b600082815260016020818152604090922090810180546001600160a01b031916331790558251613b719260039092019184019061447f565b506000828152600160205260409020546001600160a01b03163314613bc1573360008181526005602081815260408084208054600484528286208987528452918520919091559390925290528290555b816003541415613beb57506003805460009081526002602052604080822054909255918252812055565b6003545b8062195b9960ea1b14158015613c19575060008181526002602052604090205462195b9960ea1b14155b1561365857600081815260026020526040902054831415613c585760008381526002602052604080822080548484529183209190915584825255505050565b600090815260026020526040902054613bef565b60006040518060400160405280600881526020017f30314151504f3f2f000000000000000000000000000000000000000000000000815250826007811115613cb657613cb66150dd565b81518110613cc657613cc6614c11565b0160200151610bea9060f81c603f19614cbe565b600080613ce78484614cbe565b60000b90505b60888116613d4b57613cff6006613d57565b60000b858260808110613d1457613d14614c11565b6020810490910154601f9091166101000a900460000b14613d3657905061104d565b613d44600085900b82615134565b9050613ced565b50600019949350505050565b600081600c811115613d6b57613d6b6150dd565b610bea90600519615134565b600080613d8487876142be565b60000b90506000613d94826143a0565b60101480613daa5750613da6826143a0565b6001145b159050613db7600c613d57565b60000b613dc68760000b6143a0565b1415613f245786613dd7838a615134565b1415613de8576001925050506142b4565b613df389898661305a565b15613e03576000925050506142b4565b613e0d6000613d57565b60000b8660000b1415613e8e57876004148015613e2d57508460000b6000145b15613e8e57866002148015613e5057506000613e4a8a60076143be565b60000b12155b15613e60576001925050506142b4565b866006148015613e7e57506000613e788a60086143be565b60000b12155b15613e8e576001925050506142b4565b613e98600c613d57565b60000b8660000b1415613f1957876074148015613eb857508460000b6000145b15613f1957866072148015613edb57506000613ed58a60056143be565b60000b12155b15613eeb576001925050506142b4565b866076148015613f0957506000613f038a60066143be565b60000b12155b15613f19576001925050506142b4565b6000925050506142b4565b613f2e6009613d57565b60000b613f3d8760000b6143a0565b1480613f5f5750613f4e600b613d57565b60000b613f5d8760000b6143a0565b145b80613f805750613f6f600a613d57565b60000b613f7e8760000b6143a0565b145b156140455780158015613fa95750613f986009613d57565b60000b613fa78760000b6143a0565b145b80613fd25750808015613fd25750613fc1600a613d57565b60000b613fd08760000b6143a0565b145b15613fe2576000925050506142b4565b8760005b600881101561403857888214156140045760019450505050506142b4565b61400e8483615134565b915060888216156140265760009450505050506142b4565b8061403081614ff7565b915050613fe6565b50600093505050506142b4565b61404f6007613d57565b60000b61405e8760000b6143a0565b141561420e5761406e6005613d57565b60000b8660000b1480156140825750600082125b806140a657506140926007613d57565b60000b8660000b1480156140a65750600082135b156140b6576000925050506142b4565b806141785760026140c6836143a0565b10156140d7576000925050506142b4565b866140e2838a615134565b141561410a576140f26006613d57565b60000b8560000b141561410a576001925050506142b4565b8682614116818b615134565b6141209190615134565b1415613f1957600061413360108a615189565b905080600114806141445750806006145b1561416c576141536006613d57565b60000b8660000b141561416c57600193505050506142b4565b506000925050506142b4565b86614183838a615134565b1415613f19576141938686614c3d565b60000b614203576141a46005613d57565b60000b8660000b1480156141c45750866141bf8a600a6143be565b60000b145b80613f0957506141d46007613d57565b60000b8660000b148015613f095750866141ef8a60096143be565b60000b1415613f19576001925050506142b4565b6001925050506142b4565b6142186008613d57565b60000b6142278760000b6143a0565b14156142ad5760005b600881101561416c578760408051806040016040528060088152602001671f212e324e525f6160c01b815250838151811061426d5761426d614c11565b016020015161427f9060f81d8c615134565b614289919061519d565b141561429b57600193505050506142b4565b806142a581614ff7565b915050614230565b6000925050505b9695505050505050565b60008183118160086142d86142d3868861519d565b6143a0565b10905060006142e86008866151dc565b6142f36008886151dc565b14905060006143036008876151dc565b61430e6008896151dc565b119050831561435c578115614332576143276000613c6c565b945050505050610bea565b8215614342576143276006613c6c565b8015614352576143276007613c6c565b6143276001613c6c565b811561436c576143276004613c6c565b821561437c576143276002613c6c565b801561438c576143276005613c6c565b6143276003613c6c565b5050505092915050565b60008082126143ad575090565b610bea826000196151f0565b919050565b6000826143ca836143f8565b608081106143da576143da614c11565b6020810490910154601f9091166101000a900460000b905092915050565b60006040518060400160405280600b81526020017f08097b0b384e4f3e3f3d4d00000000000000000000000000000000000000000081525082600a811115614442576144426150dd565b8151811061445257614452614c11565b016020015160f81c92915050565b6040518061100001604052806080906020820280368337509192915050565b82805461448b90614b7e565b90600052602060002090601f0160209004810192826144ad57600085556144f3565b82601f106144c657805160ff19168380011785556144f3565b828001600101855582156144f3579182015b828111156144f35782518255916020019190600101906144d8565b506144ff929150614503565b5090565b5b808211156144ff5760008155600101614504565b60006020828403121561452a57600080fd5b5035919050565b803560ff811681146143b957600080fd5b6000806000806080858703121561455857600080fd5b8435935061456860208601614531565b93969395505050506040820135916060013590565b6000815180845260005b818110156145a357602081850181015186830182015201614587565b818111156145b5576000602083870101525b50601f01601f19169290920160200192915050565b602081526145e46020820183516001600160a01b03169052565b6000602083015161460060408401826001600160a01b03169052565b50604083015161016080606085015261461d61018085018361457d565b91506060850151601f1985840301608086015261463a838261457d565b925050608085015161465760a08601826001600160a01b03169052565b5060a08501516001600160a01b03811660c08601525060c085015180151560e08601525060e08501516101008581019190915285015161012080860191909152850151610140808601919091528501516146b58286018260000b9052565b5090949350505050565b80356001600160a01b03811681146143b957600080fd5b600080600080600060a086880312156146ee57600080fd5b6146f7866146bf565b94506020860135935061470c60408701614531565b94979396509394606081013594506080013592915050565b60006020828403121561473657600080fd5b61104d826146bf565b634e487b7160e01b600052604160045260246000fd5b8060000b811461476457600080fd5b50565b600082601f83011261477857600080fd5b60405161100080820182811067ffffffffffffffff8211171561479d5761479d61473f565b604052830181858211156147b057600080fd5b845b828110156147d35780356147c581614755565b8252602091820191016147b2565b509195945050505050565b600082601f8301126147ef57600080fd5b813567ffffffffffffffff8082111561480a5761480a61473f565b604051601f8301601f19908116603f011681019082821181831017156148325761483261473f565b8160405283815286602085880101111561484b57600080fd5b836020870160208301376000602085830101528094505050505092915050565b6000806000806000611080868803121561488457600080fd5b853594506148958760208801614767565b93506110208601359250611040860135915061106086013567ffffffffffffffff8111156148c257600080fd5b6148ce888289016147de565b9150509295509295909350565b6000806000606084860312156148f057600080fd5b833567ffffffffffffffff81111561490757600080fd5b614913868287016147de565b9350506020840135801515811461492957600080fd5b929592945050506040919091013590565b611000810181836000805b6080811015614396578251820b845260209384019390920191600101614945565b6000806000611040848603121561497c57600080fd5b8335925061498d8560208601614767565b915061499c61102085016146bf565b90509250925092565b6000806000606084860312156149ba57600080fd5b505081359360208301359350604090920135919050565b600080604083850312156149e457600080fd5b6149ed836146bf565b946020939093013593505050565b600080600060608486031215614a1057600080fd5b614a19846146bf565b925060208401359150604084013567ffffffffffffffff811115614a3c57600080fd5b614a48868287016147de565b9150509250925092565b6020808252825182820181905260009190848201906040850190845b81811015614a8a57835183529284019291840191600101614a6e565b50909695505050505050565b60008060408385031215614aa957600080fd5b82359150602083013567ffffffffffffffff811115614ac757600080fd5b614ad3858286016147de565b9150509250929050565b60006101606001600160a01b03808f168452808e166020850152816040850152614b098285018e61457d565b91508382036060850152614b1d828d61457d565b9a811660808501529890981660a08301525094151560c086015260e085019390935261010084019190915261012083015260000b6101409091015250949350505050565b600060208284031215614b7357600080fd5b815161104d81614755565b600181811c90821680614b9257607f821691505b60208210811415614bb357634e487b7160e01b600052602260045260246000fd5b50919050565b600060208284031215614bcb57600080fd5b5051919050565b6000818482805b6080811015614bfa578251820b845260209384019390920191600101614bd9565b505050505061100081019190915261102001919050565b634e487b7160e01b600052603260045260246000fd5b634e487b7160e01b600052601160045260246000fd5b60008082810b84820b82811383831382607f0484118282161615614c6357614c63614c27565b607f1985841282811686830586121615614c7f57614c7f614c27565b9585129583871685830587121615614c9957614c99614c27565b84607f0586128188161615614cb057614cb0614c27565b505050910295945050505050565b60008160000b8360000b6000821282607f03821381151615614ce257614ce2614c27565b82607f19038212811615614cf857614cf8614c27565b50019392505050565b83815261104081016020808301856000805b6080811015614d32578251820b84529284019291840191600101614d13565b5086810b61102087015250505050949350505050565b606081526000614d5b606083018661457d565b6001600160a01b039490941660208301525060400152919050565b6110008101818360005b608080601f830110614d925750614f92565b8254600081900b85526020614db18187018360081c60000b60000b9052565b6040614dc78188018460101c60000b60000b9052565b6060614ddd8189018560181c60000b60000b9052565b83831c60000b8886015260a09250614dff8389018560281c60000b60000b9052565b60c0614e15818a018660301c60000b60000b9052565b60e0614e2b818b018760381c60000b60000b9052565b85841c60000b6101008b0152604886901c60000b6101208b0152605086901c60000b6101408b0152605886901c60000b6101608b015285831c60000b6101808b0152606886901c60000b6101a08b0152607086901c60000b6101c08b0152607886901c60000b6101e08b015285871c60000b6102008b0152608886901c60000b6102208b0152609086901c60000b6102408b0152609886901c60000b6102608b015285851c60000b6102808b015260a886901c60000b6102a08b015260b086901c60000b6102c08b015260b886901c60000b6102e08b015285821c60000b6103008b015260c886901c60000b6103208b015260d086901c60000b6103408b015260d886901c60000b6103608b015285811c60000b6103808b0152505050505060e881901c60000b6103a086015260f081901c60000b6103c0860152614f796103e086018260f81d60000b9052565b5050610400929092019160019190910190602001614d80565b50505092915050565b6000816000190483118215151615614fb557614fb5614c27565b500290565b60008219821115614fcd57614fcd614c27565b500190565b600060ff821660ff84168060ff03821115614fef57614fef614c27565b019392505050565b600060001982141561500b5761500b614c27565b5060010190565b60608152600080855481600182811c91508083168061503257607f831692505b602080841082141561505257634e487b7160e01b86526022600452602486fd5b60608801849052608088018280156150715760018114615082576150ad565b60ff198716825282820197506150ad565b60008d81526020902060005b878110156150a75781548482015290860190840161508e565b83019850505b50508786038189015250505050506150c5818661457d565b9150506108e260408301846001600160a01b03169052565b634e487b7160e01b600052602160045260246000fd5b600081810b83820b8281128015607f1983018412161561511557615115614c27565b81607f01831381161561512a5761512a614c27565b5090039392505050565b6000808212826001600160ff1b030384138115161561515557615155614c27565b82600160ff1b03841281161561516d5761516d614c27565b50500190565b634e487b7160e01b600052601260045260246000fd5b60008261519857615198615173565b500490565b600080831283600160ff1b018312811516156151bb576151bb614c27565b836001600160ff1b030183138116156151d6576151d6614c27565b50500390565b6000826151eb576151eb615173565b500690565b60006001600160ff1b0360008413600084138583048511828216161561521857615218614c27565b600160ff1b600087128682058812818416161561523757615237614c27565b6000871292508782058712848416161561525357615253614c27565b8785058712818416161561526957615269614c27565b50505092909302939250505056fea264697066735822122073698101b0e6d8b518a80bde8b6d8ef36a18374112e5559eeb5c0036afafddf164736f6c634300080a0033",
    "linkReferences": {
        "contracts/ChessLogic.sol": {
            "ChessLogic": [
                {
                    "length": 20,
                    "start": 1533
                },
                {
                    "length": 20,
                    "start": 3667
                },
                {
                    "length": 20,
                    "start": 3957
                },
                {
                    "length": 20,
                    "start": 4520
                },
                {
                    "length": 20,
                    "start": 6106
                },
                {
                    "length": 20,
                    "start": 6449
                }
            ]
        },
        "contracts/ELO.sol": {
            "ELO": [
                {
                    "length": 20,
                    "start": 3100
                },
                {
                    "length": 20,
                    "start": 5345
                },
                {
                    "length": 20,
                    "start": 5499
                },
                {
                    "length": 20,
                    "start": 5690
                },
                {
                    "length": 20,
                    "start": 8245
                },
                {
                    "length": 20,
                    "start": 8399
                },
                {
                    "length": 20,
                    "start": 8590
                }
            ]
        }
    },
    "deployedLinkReferences": {
        "contracts/ChessLogic.sol": {
            "ChessLogic": [
                {
                    "length": 20,
                    "start": 1389
                },
                {
                    "length": 20,
                    "start": 3523
                },
                {
                    "length": 20,
                    "start": 3813
                },
                {
                    "length": 20,
                    "start": 4376
                },
                {
                    "length": 20,
                    "start": 5962
                },
                {
                    "length": 20,
                    "start": 6305
                }
            ]
        },
        "contracts/ELO.sol": {
            "ELO": [
                {
                    "length": 20,
                    "start": 2956
                },
                {
                    "length": 20,
                    "start": 5201
                },
                {
                    "length": 20,
                    "start": 5355
                },
                {
                    "length": 20,
                    "start": 5546
                },
                {
                    "length": 20,
                    "start": 8101
                },
                {
                    "length": 20,
                    "start": 8255
                },
                {
                    "length": 20,
                    "start": 8446
                }
            ]
        }
    }
}