{
    "_format": "hh-sol-artifact-1",
    "contractName": "Chess",
    "sourceName": "contracts/Chess.sol",
    "abi": [
        {
            "inputs": [
                {
                    "internalType": "bool",
                    "name": "enableDebugging",
                    "type": "bool"
                }
            ],
            "stateMutability": "nonpayable",
            "type": "constructor"
        },
        {
            "anonymous": false,
            "inputs": [
                {
                    "indexed": false,
                    "internalType": "string",
                    "name": "message",
                    "type": "string"
                },
                {
                    "indexed": false,
                    "internalType": "uint256",
                    "name": "value1",
                    "type": "uint256"
                },
                {
                    "indexed": false,
                    "internalType": "uint256",
                    "name": "value2",
                    "type": "uint256"
                },
                {
                    "indexed": false,
                    "internalType": "uint256",
                    "name": "value3",
                    "type": "uint256"
                }
            ],
            "name": "DebugInts",
            "type": "event"
        },
        {
            "anonymous": false,
            "inputs": [
                {
                    "indexed": true,
                    "internalType": "address",
                    "name": "player",
                    "type": "address"
                },
                {
                    "indexed": false,
                    "internalType": "uint256",
                    "name": "score",
                    "type": "uint256"
                }
            ],
            "name": "EloScoreUpdate",
            "type": "event"
        },
        {
            "anonymous": false,
            "inputs": [
                {
                    "indexed": true,
                    "internalType": "bytes32",
                    "name": "gameId",
                    "type": "bytes32"
                },
                {
                    "indexed": true,
                    "internalType": "address",
                    "name": "player",
                    "type": "address"
                }
            ],
            "name": "GameClosed",
            "type": "event"
        },
        {
            "anonymous": false,
            "inputs": [
                {
                    "indexed": true,
                    "internalType": "bytes32",
                    "name": "gameId",
                    "type": "bytes32"
                }
            ],
            "name": "GameDrawOfferRejected",
            "type": "event"
        },
        {
            "anonymous": false,
            "inputs": [
                {
                    "indexed": true,
                    "internalType": "bytes32",
                    "name": "gameId",
                    "type": "bytes32"
                }
            ],
            "name": "GameEnded",
            "type": "event"
        },
        {
            "anonymous": false,
            "inputs": [
                {
                    "indexed": true,
                    "internalType": "bytes32",
                    "name": "gameId",
                    "type": "bytes32"
                },
                {
                    "indexed": true,
                    "internalType": "address",
                    "name": "player1",
                    "type": "address"
                },
                {
                    "indexed": false,
                    "internalType": "string",
                    "name": "player1Alias",
                    "type": "string"
                },
                {
                    "indexed": false,
                    "internalType": "address",
                    "name": "playerWhite",
                    "type": "address"
                },
                {
                    "indexed": false,
                    "internalType": "uint256",
                    "name": "turnTime",
                    "type": "uint256"
                },
                {
                    "indexed": false,
                    "internalType": "uint256",
                    "name": "pot",
                    "type": "uint256"
                }
            ],
            "name": "GameInitialized",
            "type": "event"
        },
        {
            "anonymous": false,
            "inputs": [
                {
                    "indexed": true,
                    "internalType": "bytes32",
                    "name": "gameId",
                    "type": "bytes32"
                },
                {
                    "indexed": true,
                    "internalType": "address",
                    "name": "player1",
                    "type": "address"
                },
                {
                    "indexed": false,
                    "internalType": "string",
                    "name": "player1Alias",
                    "type": "string"
                },
                {
                    "indexed": true,
                    "internalType": "address",
                    "name": "player2",
                    "type": "address"
                },
                {
                    "indexed": false,
                    "internalType": "string",
                    "name": "player2Alias",
                    "type": "string"
                },
                {
                    "indexed": false,
                    "internalType": "address",
                    "name": "playerWhite",
                    "type": "address"
                },
                {
                    "indexed": false,
                    "internalType": "uint256",
                    "name": "pot",
                    "type": "uint256"
                }
            ],
            "name": "GameJoined",
            "type": "event"
        },
        {
            "anonymous": false,
            "inputs": [
                {
                    "indexed": true,
                    "internalType": "bytes32",
                    "name": "gameId",
                    "type": "bytes32"
                },
                {
                    "indexed": false,
                    "internalType": "int8[128]",
                    "name": "state",
                    "type": "int8[128]"
                }
            ],
            "name": "GameStateChanged",
            "type": "event"
        },
        {
            "anonymous": false,
            "inputs": [
                {
                    "indexed": true,
                    "internalType": "bytes32",
                    "name": "gameId",
                    "type": "bytes32"
                },
                {
                    "indexed": false,
                    "internalType": "uint256",
                    "name": "timeoutStarted",
                    "type": "uint256"
                },
                {
                    "indexed": false,
                    "internalType": "int8",
                    "name": "timeoutState",
                    "type": "int8"
                }
            ],
            "name": "GameTimeoutStarted",
            "type": "event"
        },
        {
            "anonymous": false,
            "inputs": [
                {
                    "indexed": true,
                    "internalType": "bytes32",
                    "name": "gameId",
                    "type": "bytes32"
                },
                {
                    "indexed": true,
                    "internalType": "address",
                    "name": "player",
                    "type": "address"
                },
                {
                    "indexed": false,
                    "internalType": "uint256",
                    "name": "fromIndex",
                    "type": "uint256"
                },
                {
                    "indexed": false,
                    "internalType": "uint256",
                    "name": "toIndex",
                    "type": "uint256"
                }
            ],
            "name": "Move",
            "type": "event"
        },
        {
            "inputs": [
                {
                    "internalType": "bytes32",
                    "name": "gameId",
                    "type": "bytes32"
                }
            ],
            "name": "claimTimeout",
            "outputs": [],
            "stateMutability": "nonpayable",
            "type": "function"
        },
        {
            "inputs": [
                {
                    "internalType": "bytes32",
                    "name": "gameId",
                    "type": "bytes32"
                }
            ],
            "name": "claimTimeoutEnded",
            "outputs": [],
            "stateMutability": "nonpayable",
            "type": "function"
        },
        {
            "inputs": [
                {
                    "internalType": "bytes32",
                    "name": "gameId",
                    "type": "bytes32"
                },
                {
                    "internalType": "uint256",
                    "name": "fromIndex",
                    "type": "uint256"
                },
                {
                    "internalType": "uint256",
                    "name": "toIndex",
                    "type": "uint256"
                }
            ],
            "name": "claimTimeoutEndedWithMove",
            "outputs": [],
            "stateMutability": "nonpayable",
            "type": "function"
        },
        {
            "inputs": [
                {
                    "internalType": "bytes32",
                    "name": "gameId",
                    "type": "bytes32"
                }
            ],
            "name": "claimWin",
            "outputs": [],
            "stateMutability": "nonpayable",
            "type": "function"
        },
        {
            "inputs": [
                {
                    "internalType": "bytes32",
                    "name": "gameId",
                    "type": "bytes32"
                }
            ],
            "name": "closePlayerGame",
            "outputs": [],
            "stateMutability": "nonpayable",
            "type": "function"
        },
        {
            "inputs": [
                {
                    "internalType": "bytes32",
                    "name": "gameId",
                    "type": "bytes32"
                }
            ],
            "name": "confirmGameEnded",
            "outputs": [],
            "stateMutability": "nonpayable",
            "type": "function"
        },
        {
            "inputs": [
                {
                    "internalType": "bytes32",
                    "name": "",
                    "type": "bytes32"
                }
            ],
            "name": "games",
            "outputs": [
                {
                    "internalType": "address",
                    "name": "player1",
                    "type": "address"
                },
                {
                    "internalType": "address",
                    "name": "player2",
                    "type": "address"
                },
                {
                    "internalType": "string",
                    "name": "player1Alias",
                    "type": "string"
                },
                {
                    "internalType": "string",
                    "name": "player2Alias",
                    "type": "string"
                },
                {
                    "internalType": "address",
                    "name": "nextPlayer",
                    "type": "address"
                },
                {
                    "internalType": "address",
                    "name": "winner",
                    "type": "address"
                },
                {
                    "internalType": "bool",
                    "name": "ended",
                    "type": "bool"
                },
                {
                    "internalType": "uint256",
                    "name": "pot",
                    "type": "uint256"
                },
                {
                    "internalType": "uint256",
                    "name": "player1Winnings",
                    "type": "uint256"
                },
                {
                    "internalType": "uint256",
                    "name": "player2Winnings",
                    "type": "uint256"
                },
                {
                    "internalType": "uint256",
                    "name": "turnTime",
                    "type": "uint256"
                },
                {
                    "internalType": "uint256",
                    "name": "timeoutStarted",
                    "type": "uint256"
                },
                {
                    "internalType": "uint256",
                    "name": "nextPlayerIndex",
                    "type": "uint256"
                },
                {
                    "internalType": "int8",
                    "name": "timeoutState",
                    "type": "int8"
                }
            ],
            "stateMutability": "view",
            "type": "function"
        },
        {
            "inputs": [
                {
                    "internalType": "address",
                    "name": "",
                    "type": "address"
                },
                {
                    "internalType": "bytes32",
                    "name": "",
                    "type": "bytes32"
                }
            ],
            "name": "gamesOfPlayers",
            "outputs": [
                {
                    "internalType": "bytes32",
                    "name": "",
                    "type": "bytes32"
                }
            ],
            "stateMutability": "view",
            "type": "function"
        },
        {
            "inputs": [
                {
                    "internalType": "address",
                    "name": "",
                    "type": "address"
                }
            ],
            "name": "gamesOfPlayersHeads",
            "outputs": [
                {
                    "internalType": "bytes32",
                    "name": "",
                    "type": "bytes32"
                }
            ],
            "stateMutability": "view",
            "type": "function"
        },
        {
            "inputs": [
                {
                    "internalType": "bytes32",
                    "name": "hash",
                    "type": "bytes32"
                },
                {
                    "internalType": "uint8",
                    "name": "v",
                    "type": "uint8"
                },
                {
                    "internalType": "bytes32",
                    "name": "r",
                    "type": "bytes32"
                },
                {
                    "internalType": "bytes32",
                    "name": "s",
                    "type": "bytes32"
                }
            ],
            "name": "getAddress",
            "outputs": [
                {
                    "internalType": "address",
                    "name": "",
                    "type": "address"
                }
            ],
            "stateMutability": "pure",
            "type": "function"
        },
        {
            "inputs": [
                {
                    "internalType": "bytes32",
                    "name": "gameId",
                    "type": "bytes32"
                }
            ],
            "name": "getCurrentGameState",
            "outputs": [
                {
                    "internalType": "int8[128]",
                    "name": "",
                    "type": "int8[128]"
                }
            ],
            "stateMutability": "view",
            "type": "function"
        },
        {
            "inputs": [
                {
                    "internalType": "address",
                    "name": "player",
                    "type": "address"
                }
            ],
            "name": "getEloScore",
            "outputs": [
                {
                    "internalType": "uint256",
                    "name": "",
                    "type": "uint256"
                }
            ],
            "stateMutability": "view",
            "type": "function"
        },
        {
            "inputs": [
                {
                    "internalType": "bytes32",
                    "name": "gameId",
                    "type": "bytes32"
                }
            ],
            "name": "getGameData",
            "outputs": [
                {
                    "components": [
                        {
                            "internalType": "address",
                            "name": "player1",
                            "type": "address"
                        },
                        {
                            "internalType": "address",
                            "name": "player2",
                            "type": "address"
                        },
                        {
                            "internalType": "string",
                            "name": "player1Alias",
                            "type": "string"
                        },
                        {
                            "internalType": "string",
                            "name": "player2Alias",
                            "type": "string"
                        },
                        {
                            "internalType": "address",
                            "name": "nextPlayer",
                            "type": "address"
                        },
                        {
                            "internalType": "address",
                            "name": "winner",
                            "type": "address"
                        },
                        {
                            "internalType": "bool",
                            "name": "ended",
                            "type": "bool"
                        },
                        {
                            "internalType": "uint256",
                            "name": "pot",
                            "type": "uint256"
                        },
                        {
                            "internalType": "uint256",
                            "name": "player1Winnings",
                            "type": "uint256"
                        },
                        {
                            "internalType": "uint256",
                            "name": "player2Winnings",
                            "type": "uint256"
                        },
                        {
                            "internalType": "uint256",
                            "name": "turnTime",
                            "type": "uint256"
                        },
                        {
                            "internalType": "uint256",
                            "name": "timeoutStarted",
                            "type": "uint256"
                        },
                        {
                            "internalType": "uint256",
                            "name": "nextPlayerIndex",
                            "type": "uint256"
                        },
                        {
                            "internalType": "int8",
                            "name": "timeoutState",
                            "type": "int8"
                        }
                    ],
                    "internalType": "struct TurnBasedGame.Game",
                    "name": "",
                    "type": "tuple"
                }
            ],
            "stateMutability": "view",
            "type": "function"
        },
        {
            "inputs": [
                {
                    "internalType": "address",
                    "name": "player",
                    "type": "address"
                }
            ],
            "name": "getGamesOfPlayer",
            "outputs": [
                {
                    "internalType": "bytes32[]",
                    "name": "",
                    "type": "bytes32[]"
                }
            ],
            "stateMutability": "view",
            "type": "function"
        },
        {
            "inputs": [],
            "name": "getOpenGameIds",
            "outputs": [
                {
                    "internalType": "bytes32[]",
                    "name": "",
                    "type": "bytes32[]"
                }
            ],
            "stateMutability": "view",
            "type": "function"
        },
        {
            "inputs": [
                {
                    "internalType": "bytes32",
                    "name": "gameId",
                    "type": "bytes32"
                }
            ],
            "name": "getWhitePlayer",
            "outputs": [
                {
                    "internalType": "address",
                    "name": "",
                    "type": "address"
                }
            ],
            "stateMutability": "view",
            "type": "function"
        },
        {
            "inputs": [],
            "name": "head",
            "outputs": [
                {
                    "internalType": "bytes32",
                    "name": "",
                    "type": "bytes32"
                }
            ],
            "stateMutability": "view",
            "type": "function"
        },
        {
            "inputs": [
                {
                    "internalType": "string",
                    "name": "player1Alias",
                    "type": "string"
                },
                {
                    "internalType": "bool",
                    "name": "playAsWhite",
                    "type": "bool"
                },
                {
                    "internalType": "uint256",
                    "name": "turnTime",
                    "type": "uint256"
                }
            ],
            "name": "initGame",
            "outputs": [
                {
                    "internalType": "bytes32",
                    "name": "",
                    "type": "bytes32"
                }
            ],
            "stateMutability": "payable",
            "type": "function"
        },
        {
            "inputs": [
                {
                    "internalType": "bytes32",
                    "name": "gameId",
                    "type": "bytes32"
                }
            ],
            "name": "isGameEnded",
            "outputs": [
                {
                    "internalType": "bool",
                    "name": "",
                    "type": "bool"
                }
            ],
            "stateMutability": "view",
            "type": "function"
        },
        {
            "inputs": [
                {
                    "internalType": "bytes32",
                    "name": "gameId",
                    "type": "bytes32"
                },
                {
                    "internalType": "string",
                    "name": "player2Alias",
                    "type": "string"
                }
            ],
            "name": "joinGame",
            "outputs": [],
            "stateMutability": "payable",
            "type": "function"
        },
        {
            "inputs": [
                {
                    "internalType": "bytes32",
                    "name": "gameId",
                    "type": "bytes32"
                },
                {
                    "internalType": "uint256",
                    "name": "fromIndex",
                    "type": "uint256"
                },
                {
                    "internalType": "uint256",
                    "name": "toIndex",
                    "type": "uint256"
                }
            ],
            "name": "move",
            "outputs": [],
            "stateMutability": "nonpayable",
            "type": "function"
        },
        {
            "inputs": [
                {
                    "internalType": "bytes32",
                    "name": "gameId",
                    "type": "bytes32"
                },
                {
                    "internalType": "int8[128]",
                    "name": "state",
                    "type": "int8[128]"
                },
                {
                    "internalType": "uint256",
                    "name": "fromIndex",
                    "type": "uint256"
                },
                {
                    "internalType": "uint256",
                    "name": "toIndex",
                    "type": "uint256"
                },
                {
                    "internalType": "bytes",
                    "name": "sigState",
                    "type": "bytes"
                }
            ],
            "name": "moveFromState",
            "outputs": [],
            "stateMutability": "nonpayable",
            "type": "function"
        },
        {
            "inputs": [
                {
                    "internalType": "bytes32",
                    "name": "gameId",
                    "type": "bytes32"
                }
            ],
            "name": "offerDraw",
            "outputs": [],
            "stateMutability": "nonpayable",
            "type": "function"
        },
        {
            "inputs": [
                {
                    "internalType": "bytes32",
                    "name": "",
                    "type": "bytes32"
                }
            ],
            "name": "openGameIds",
            "outputs": [
                {
                    "internalType": "bytes32",
                    "name": "",
                    "type": "bytes32"
                }
            ],
            "stateMutability": "view",
            "type": "function"
        },
        {
            "inputs": [
                {
                    "internalType": "bytes32",
                    "name": "gameId",
                    "type": "bytes32"
                }
            ],
            "name": "rejectCurrentPlayerDraw",
            "outputs": [],
            "stateMutability": "nonpayable",
            "type": "function"
        },
        {
            "inputs": [
                {
                    "internalType": "bytes32",
                    "name": "gameId",
                    "type": "bytes32"
                },
                {
                    "internalType": "int8[128]",
                    "name": "state",
                    "type": "int8[128]"
                },
                {
                    "internalType": "address",
                    "name": "nextPlayer",
                    "type": "address"
                }
            ],
            "name": "setGameState",
            "outputs": [],
            "stateMutability": "nonpayable",
            "type": "function"
        },
        {
            "inputs": [
                {
                    "internalType": "bytes32",
                    "name": "gameId",
                    "type": "bytes32"
                }
            ],
            "name": "surrender",
            "outputs": [],
            "stateMutability": "nonpayable",
            "type": "function"
        },
        {
            "inputs": [
                {
                    "internalType": "address",
                    "name": "account",
                    "type": "address"
                },
                {
                    "internalType": "bytes32",
                    "name": "hash",
                    "type": "bytes32"
                },
                {
                    "internalType": "uint8",
                    "name": "v",
                    "type": "uint8"
                },
                {
                    "internalType": "bytes32",
                    "name": "r",
                    "type": "bytes32"
                },
                {
                    "internalType": "bytes32",
                    "name": "s",
                    "type": "bytes32"
                }
            ],
            "name": "verify",
            "outputs": [
                {
                    "internalType": "bool",
                    "name": "",
                    "type": "bool"
                }
            ],
            "stateMutability": "pure",
            "type": "function"
        },
        {
            "inputs": [
                {
                    "internalType": "address",
                    "name": "account",
                    "type": "address"
                },
                {
                    "internalType": "bytes32",
                    "name": "hash",
                    "type": "bytes32"
                },
                {
                    "internalType": "bytes",
                    "name": "sig",
                    "type": "bytes"
                }
            ],
            "name": "verifySig",
            "outputs": [
                {
                    "internalType": "bool",
                    "name": "",
                    "type": "bool"
                }
            ],
            "stateMutability": "pure",
            "type": "function"
        },
        {
            "inputs": [
                {
                    "internalType": "bytes32",
                    "name": "gameId",
                    "type": "bytes32"
                }
            ],
            "name": "withdraw",
            "outputs": [],
            "stateMutability": "nonpayable",
            "type": "function"
        }
    ],
    "bytecode": "0x60806040523480156200001157600080fd5b506040516200598238038062005982833981016040819052620000349162000055565b6000805460ff191691151591909117905562195b9960ea1b60035562000080565b6000602082840312156200006857600080fd5b815180151581146200007957600080fd5b9392505050565b6158f280620000906000396000f3fe6080604052600436106101cd5760003560e01c8063996301e4116100f7578063b914594411610095578063e6de139f11610064578063e6de139f1461059f578063f0b05bfd146105cc578063f579f882146105ec578063f5b5af161461062657600080fd5b8063b91459441461052a578063d5fdb3341461054a578063e0db67811461056c578063e6378d3a1461058c57600080fd5b8063aaa5a02a116100d1578063aaa5a02a14610491578063aec1914d146104b1578063af9c5e7a146104d1578063b8ab98831461050a57600080fd5b8063996301e4146104195780639e7d24df14610439578063a8608fc41461045957600080fd5b80636143a80a1161016f5780637e84adda1161013e5780637e84adda146103a35780638e19899e146103c35780638f7dcfa3146103e357806395c0c3f6146103f957600080fd5b80636143a80a146103095780636e939d05146103435780636ea6d76d146103635780636f9b0b7d1461037657600080fd5b8063364d0b53116101ab578063364d0b53146102545780634ce8a6491461028c578063506535f3146102b957806354c91295146102e957600080fd5b80630a277d28146101d25780630b5faf971461021257806310cb4d6414610234575b600080fd5b3480156101de57600080fd5b506101ff6101ed366004614ae8565b60026020526000908152604090205481565b6040519081526020015b60405180910390f35b34801561021e57600080fd5b5061023261022d366004614ae8565b610646565b005b34801561024057600080fd5b5061023261024f366004614ae8565b610778565b34801561026057600080fd5b5061027461026f366004614b12565b610a22565b6040516001600160a01b039091168152602001610209565b34801561029857600080fd5b506102ac6102a7366004614ae8565b610a8a565b6040516102099190614b9a565b3480156102c557600080fd5b506102d96102d4366004614ccd565b610d0d565b6040519015158152602001610209565b3480156102f557600080fd5b506101ff610304366004614d1b565b610d3a565b34801561031557600080fd5b506102d9610324366004614ae8565b600090815260016020526040902060050154600160a01b900460ff1690565b34801561034f57600080fd5b5061023261035e366004614e62565b610dc6565b6101ff610371366004614ed2565b611062565b34801561038257600080fd5b50610396610391366004614ae8565b61122e565b6040516102099190614f31565b3480156103af57600080fd5b506102326103be366004614f5d565b611293565b3480156103cf57600080fd5b506102326103de366004614ae8565b6113f3565b3480156103ef57600080fd5b506101ff60035481565b34801561040557600080fd5b50610232610414366004614ae8565b6114ed565b34801561042557600080fd5b50610232610434366004614ae8565b611914565b34801561044557600080fd5b50610232610454366004614f9c565b611945565b34801561046557600080fd5b506101ff610474366004614fc8565b600460209081526000928352604080842090915290825290205481565b34801561049d57600080fd5b506102326104ac366004614ae8565b611cfc565b3480156104bd57600080fd5b506102326104cc366004614ae8565b611fb6565b3480156104dd57600080fd5b506102746104ec366004614ae8565b6000908152600660205260409020600401546001600160a01b031690565b34801561051657600080fd5b50610232610525366004614f9c565b611fe7565b34801561053657600080fd5b506102d9610545366004614ff2565b612531565b34801561055657600080fd5b5061055f612590565b6040516102099190615049565b34801561057857600080fd5b50610232610587366004614ae8565b61266f565b61023261059a36600461508d565b61299e565b3480156105ab57600080fd5b506101ff6105ba366004614d1b565b60056020526000908152604090205481565b3480156105d857600080fd5b5061055f6105e7366004614d1b565b612aa3565b3480156105f857600080fd5b5061060c610607366004614ae8565b612bb9565b6040516102099e9d9c9b9a999897969594939291906150d4565b34801561063257600080fd5b50610232610641366004614ae8565b612d59565b6000818152600160205260409020600501548190600160a01b900460ff161561066e57600080fd5b610677826131d1565b6000828152600660205260408120600401546001600160a01b0316331461069f5760016106a3565b6000195b60008481526006602052604080822090517fac54c06a000000000000000000000000000000000000000000000000000000008152600481019190915282820b60248201529192509073__$a35913077468e138cb65c110133d46955b$__9063ac54c06a90604401602060405180830381865af4158015610727573d6000803e3d6000fd5b505050506040513d601f19601f8201168201806040525081019061074b919061518d565b600085815260066020526040812091900b915061076990828461348b565b61077257600080fd5b50505050565b6000818152600160205260409020600501548190600160a01b900460ff16156107a057600080fd5b600082815260016020818152604080842081516101c08101835281546001600160a01b0390811682529482015490941692840192909252600282018054918401916107ea906151aa565b80601f0160208091040260200160405190810160405280929190818152602001828054610816906151aa565b80156108635780601f1061083857610100808354040283529160200191610863565b820191906000526020600020905b81548152906001019060200180831161084657829003601f168201915b5050505050815260200160038201805461087c906151aa565b80601f01602080910402602001604051908101604052809291908181526020018280546108a8906151aa565b80156108f55780601f106108ca576101008083540402835291602001916108f5565b820191906000526020600020905b8154815290600101906020018083116108d857829003601f168201915b505050918352505060048201546001600160a01b03908116602083015260058301548082166040840152600160a01b900460ff161515606083015260068301546080830152600783015460a0830152600883015460c0830152600983015460e0830152600a830154610100830152600b830154610120830152600c9092015460000b6101409091015281519192501633148015906109a9575080602001516001600160a01b0316336001600160a01b031614155b6109b257600080fd5b806101a0015160000b60011914156109c957600080fd5b80608001516001600160a01b0316336001600160a01b0316146109eb57600080fd5b60006101a0820181905260405184917f93fb7313237063c4e9125ede622021437dd841d96bb10a0074558c3c6fde333f91a2505050565b6040805160008082526020820180845287905260ff861692820192909252606081018490526080810183905260019060a0016020604051602081039080840390855afa158015610a76573d6000803e3d6000fd5b5050604051601f1901519695505050505050565b610b24604051806101c0016040528060006001600160a01b0316815260200160006001600160a01b03168152602001606081526020016060815260200160006001600160a01b0316815260200160006001600160a01b031681526020016000151581526020016000815260200160008152602001600081526020016000815260200160008152602001600081526020016000800b81525090565b60008281526001602081815260409283902083516101c08101855281546001600160a01b03908116825293820154909316918301919091526002810180549293919291840191610b73906151aa565b80601f0160208091040260200160405190810160405280929190818152602001828054610b9f906151aa565b8015610bec5780601f10610bc157610100808354040283529160200191610bec565b820191906000526020600020905b815481529060010190602001808311610bcf57829003601f168201915b50505050508152602001600382018054610c05906151aa565b80601f0160208091040260200160405190810160405280929190818152602001828054610c31906151aa565b8015610c7e5780601f10610c5357610100808354040283529160200191610c7e565b820191906000526020600020905b815481529060010190602001808311610c6157829003601f168201915b505050918352505060048201546001600160a01b03908116602083015260058301549081166040830152600160a01b900460ff161515606082015260068201546080820152600782015460a0820152600882015460c0820152600982015460e0820152600a820154610100820152600b820154610120820152600c9091015460000b6101409091015292915050565b6000610d1b85858585610a22565b6001600160a01b0316866001600160a01b031614905095945050505050565b6040516360fa41b960e01b8152600760048201526001600160a01b038216602482015260009073__$a486789ff8c9d1035341fa2865e2dde439$__906360fa41b990604401602060405180830381865af4158015610d9c573d6000803e3d6000fd5b505050506040513d601f19601f82011682018060405250810190610dc091906151e5565b92915050565b6000858152600160205260409020600501548590600160a01b900460ff1615610dee57600080fd5b6000868152600160205260409020546001600160a01b03163314801590610e305750600086815260016020819052604090912001546001600160a01b03163314155b15610e3a57600080fd5b6000868152600160205260408120546001600160a01b0316331415610e7b5750600086815260016020819052604090912001546001600160a01b0316610e95565b506000868152600160205260409020546001600160a01b03165b610ec8818789604051602001610eac9291906151fe565b6040516020818303038152906040528051906020012085612531565b610ed157600080fd5b60008781526006602052604081205469010000000000000000008104820b91610f0b9160809168010000000000000000909104900b615269565b610f1591906152ea565b60000b866009602002015160808860086020020151610f349190615269565b610f3e91906152ea565b60000b1215610f4c57600080fd5b6000878152600660205260408120600401546001600160a01b03163314610f7557600019610f78565b60015b600089815260066020526040908190209051631482911760e01b815291925073__$a35913077468e138cb65c110133d46955b$__91631482911791610fc3918b90869060040161532d565b60006040518083038186803b158015610fdb57600080fd5b505af4158015610fef573d6000803e3d6000fd5b50505060008981526001602052604090206004810180546001600160a01b0319163390811790915590546001600160a01b0316149050611030576002611033565b60015b600089815260016020526040902060ff91909116600b90910155611058888787611945565b5050505050505050565b600080611070858585613637565b6000818152600660205260409081902090517f25b65940000000000000000000000000000000000000000000000000000000008152600481019190915260016024820181905291925073__$a35913077468e138cb65c110133d46955b$__906325b659409060440160006040518083038186803b1580156110f057600080fd5b505af4158015611104573d6000803e3d6000fd5b505050508415611164576000828152600660209081526040808320600490810180546001600160a01b0319908116331790915560019384905291909320805493810180549092166001600160a01b0394909416939093179055600b909101555b600082815260016020818152604080842080546006808552958390206004015494909352600981015494015490516001600160a01b039283169487947f162575592dab4c52028eda696846d3cd56c60b3cb8a2dc55dddf0953b8e3e396946111d3948e94929091169291615374565b60405180910390a360008281526006602052604090819020905183917fa90ab0b2ea4f4aa7bc1fe53bb56968e4909efc42a5b919f4bde19e4fcf7412f19161121b91906153ac565b60405180910390a25090505b9392505050565b611236614a30565b60008281526006602052604080822081516110008101928390529290916080918390855b825461010083900a900460000b81526020600192830181810494850194909303909202910180841161125a575094979650505050505050565b60005460ff166112a257600080fd5b6000838152600660205260408120600401546001600160a01b038381169116146112ce576000196112d1565b60015b600085815260066020526040908190209051631482911760e01b815291925073__$a35913077468e138cb65c110133d46955b$__9163148291179161131c918790869060040161532d565b60006040518083038186803b15801561133457600080fd5b505af4158015611348573d6000803e3d6000fd5b50505060008581526001602052604090206004810180546001600160a01b0319166001600160a01b0386811691821790925591541614905061138b57600261138e565b60015b600085815260016020908152604080832060ff94909416600b9094019390935560069052819020905185917fa90ab0b2ea4f4aa7bc1fe53bb56968e4909efc42a5b919f4bde19e4fcf7412f1916113e591906153ac565b60405180910390a250505050565b6000818152600160205260408120546001600160a01b031633148015611429575060008281526001602052604090206007015415155b15611470575060008181526001602052604080822060070180549083905590519091339183156108fc0291849190818181858888f1935050505061146c57600080fd5b5050565b600082815260016020819052604090912001546001600160a01b0316331480156114aa575060008281526001602052604090206008015415155b156101cd575060008181526001602052604080822060080180549083905590519091339183156108fc0291849190818181858888f1935050505061146c57600080fd5b6000818152600160205260409020600501548190600160a01b900460ff161561151557600080fd5b61151e82613752565b600082815260016020818152604080842081516101c08101835281546001600160a01b039081168252948201549094169284019290925260028201805491840191611568906151aa565b80601f0160208091040260200160405190810160405280929190818152602001828054611594906151aa565b80156115e15780601f106115b6576101008083540402835291602001916115e1565b820191906000526020600020905b8154815290600101906020018083116115c457829003601f168201915b505050505081526020016003820180546115fa906151aa565b80601f0160208091040260200160405190810160405280929190818152602001828054611626906151aa565b80156116735780601f1061164857610100808354040283529160200191611673565b820191906000526020600020905b81548152906001019060200180831161165657829003601f168201915b50505091835250506004828101546001600160a01b039081166020808501919091526005850154808316604080870191909152600160a01b90910460ff16151560608601526006860154608086015260078087015460a080880191909152600888015460c0880152600988015460e0880152600a880154610100880152600b880154610120880152600c9097015460000b61014090960195909552865191870151958701519051638961807160e01b8152938401949094528116602483015292831660448201529116606482015290915073__$a486789ff8c9d1035341fa2865e2dde439$__9063896180719060840160006040518083038186803b15801561177b57600080fd5b505af415801561178f573d6000803e3d6000fd5b505082516040516360fa41b960e01b8152600760048201526001600160a01b039091166024820181905292507f436cd2e07aa4cba8ae9d50f800c208d467149afb08b8724a312e2c301c336e82915073__$a486789ff8c9d1035341fa2865e2dde439$__906360fa41b990604401602060405180830381865af415801561181a573d6000803e3d6000fd5b505050506040513d601f19601f8201168201806040525081019061183e91906151e5565b60405190815260200160405180910390a260208101516040516360fa41b960e01b8152600760048201526001600160a01b0390911660248201819052907f436cd2e07aa4cba8ae9d50f800c208d467149afb08b8724a312e2c301c336e829073__$a486789ff8c9d1035341fa2865e2dde439$__906360fa41b990604401602060405180830381865af41580156118d9573d6000803e3d6000fd5b505050506040513d601f19601f820116820180604052508101906118fd91906151e5565b6040519081526020015b60405180910390a2505050565b6000818152600160205260409020600501548190600160a01b900460ff161561193c57600080fd5b61151e82613b75565b6000838152600160205260409020600501548390600160a01b900460ff161561196d57600080fd5b6000848152600160205260408120600c01546002910b1480156119c857506000848152600160205260409020600901546119a890603c6155d1565b6000858152600160205260409020600a01546119c491906155f0565b4210155b80156119ee57506000848152600160205260409020600401546001600160a01b03163314155b15611a91576000848152600660205260409081902060048082015492516356e024e560e11b81529081019190915260248101859052604481018490526001600160a01b03909116331415606482015273__$a35913077468e138cb65c110133d46955b$__9063adc049ca9060840160006040518083038186803b158015611a7457600080fd5b505af4158015611a88573d6000803e3d6000fd5b50505050611c7f565b6000848152600160205260409020600401546001600160a01b03163314611b18576040517f08c379a000000000000000000000000000000000000000000000000000000000815260206004820152600c60248201527f57726f6e6720706c617965720000000000000000000000000000000000000000604482015260640160405180910390fd5b6000848152600160205260408120600c0154900b15611b4b576000848152600160205260409020600c01805460ff191690555b6000848152600660205260409081902060048082015492516356e024e560e11b81529081019190915260248101859052604481018490526001600160a01b039091163314606482015273__$a35913077468e138cb65c110133d46955b$__9063adc049ca9060840160006040518083038186803b158015611bcb57600080fd5b505af4158015611bdf573d6000803e3d6000fd5b5050506000858152600160205260409020546001600160a01b03163314159050611c46576000848152600160208190526040909120908101546004820180546001600160a01b0319166001600160a01b039092169190911790556002600b90910155611c7f565b600084815260016020819052604090912080546004820180546001600160a01b0319166001600160a01b03909216919091179055600b01555b6040805184815260208101849052339186917f8c96aa96b948031932de222ce53642a37def495d79ab00b4ada2b95c07d26583910160405180910390a360008481526006602052604090819020905185917fa90ab0b2ea4f4aa7bc1fe53bb56968e4909efc42a5b919f4bde19e4fcf7412f1916113e591906153ac565b6000818152600160205260409020600501548190600160a01b900460ff1615611d2457600080fd5b600082815260016020818152604080842081516101c08101835281546001600160a01b039081168252948201549094169284019290925260028201805491840191611d6e906151aa565b80601f0160208091040260200160405190810160405280929190818152602001828054611d9a906151aa565b8015611de75780601f10611dbc57610100808354040283529160200191611de7565b820191906000526020600020905b815481529060010190602001808311611dca57829003601f168201915b50505050508152602001600382018054611e00906151aa565b80601f0160208091040260200160405190810160405280929190818152602001828054611e2c906151aa565b8015611e795780601f10611e4e57610100808354040283529160200191611e79565b820191906000526020600020905b815481529060010190602001808311611e5c57829003601f168201915b505050918352505060048201546001600160a01b03908116602083015260058301548082166040840152600160a01b900460ff161515606083015260068301546080830152600783015460a0830152600883015460c0830152600983015460e0830152600a830154610100830152600b830154610120830152600c9092015460000b610140909101528151919250163314801590611f2d575080602001516001600160a01b0316336001600160a01b031614155b611f3657600080fd5b6101a081015160000b611f4857600080fd5b80608001516001600160a01b0316336001600160a01b031614611f6a57600080fd5b42610160820181905260026101a0830181905260408051928352602083019190915284917f12756c8b9561cc3ee7eda20b88ecf6fa8a596ebe05a1d19be769e2dd39da1cde9101611907565b6000818152600160205260409020600501548190600160a01b900460ff1615611fde57600080fd5b61151e82613f38565b6000838152600160205260409020600501548390600160a01b900460ff161561200f57600080fd5b600084815260016020818152604080842081516101c08101835281546001600160a01b039081168252948201549094169284019290925260028201805491840191612059906151aa565b80601f0160208091040260200160405190810160405280929190818152602001828054612085906151aa565b80156120d25780601f106120a7576101008083540402835291602001916120d2565b820191906000526020600020905b8154815290600101906020018083116120b557829003601f168201915b505050505081526020016003820180546120eb906151aa565b80601f0160208091040260200160405190810160405280929190818152602001828054612117906151aa565b80156121645780601f1061213957610100808354040283529160200191612164565b820191906000526020600020905b81548152906001019060200180831161214757829003601f168201915b505050918352505060048201546001600160a01b03908116602083015260058301548082166040840152600160a01b900460ff161515606083015260068301546080830152600783015460a0830152600883015460c0830152600983015460e0830152600a830154610100830152600b830154610120830152600c9092015460000b610140909101528151919250163314801590612218575080602001516001600160a01b0316336001600160a01b031614155b1561222257600080fd5b61014081015161223390603c6155d1565b81610160015161224391906155f0565b42101561224f57600080fd5b80608001516001600160a01b0316336001600160a01b0316141561227257600080fd5b806101a0015160000b60021461228757600080fd5b612292858585611945565b600160c08201523360a0820181905281516001600160a01b031614156122d5576000858152600160205260408120600681018054600790920191909155556122f4565b6000858152600160205260408120600681018054600890920191909155555b8051602082015160a0830151604051638961807160e01b8152600760048201526001600160a01b039384166024820152918316604483015291909116606482015273__$a486789ff8c9d1035341fa2865e2dde439$__9063896180719060840160006040518083038186803b15801561236c57600080fd5b505af4158015612380573d6000803e3d6000fd5b505082516040516360fa41b960e01b8152600760048201526001600160a01b039091166024820181905292507f436cd2e07aa4cba8ae9d50f800c208d467149afb08b8724a312e2c301c336e82915073__$a486789ff8c9d1035341fa2865e2dde439$__906360fa41b990604401602060405180830381865af415801561240b573d6000803e3d6000fd5b505050506040513d601f19601f8201168201806040525081019061242f91906151e5565b60405190815260200160405180910390a260208101516040516360fa41b960e01b8152600760048201526001600160a01b0390911660248201819052907f436cd2e07aa4cba8ae9d50f800c208d467149afb08b8724a312e2c301c336e829073__$a486789ff8c9d1035341fa2865e2dde439$__906360fa41b990604401602060405180830381865af41580156124ca573d6000803e3d6000fd5b505050506040513d601f19601f820116820180604052508101906124ee91906151e5565b60405190815260200160405180910390a260405185907fdfbf0a97d8d3b796cd819f1c2fdebb01eabf975797feee4dc7c43b0794b7073f90600090a25050505050565b600080600080845160411461254c5760009350505050611227565b50505060208201516040830151604184015160ff16601b81101561257857612575601b82615608565b90505b6125858787838686610d0d565b979650505050505050565b6003546060906000905b8062195b9960ea1b146125cb57816125b18161562d565b6000928352600260205260409092205491925061259a9050565b5060008167ffffffffffffffff8111156125e7576125e7614d36565b604051908082528060200260200182016040528015612610578160200160208202803683370190505b5060035490915060005b8381101561266657818382815181106126355761263561523d565b602090810291909101810191909152600092835260029052604090912054908061265e8161562d565b91505061261a565b50909392505050565b6000818152600160205260409020600501548190600160a01b900460ff161561269757600080fd5b600082815260016020818152604080842081516101c08101835281546001600160a01b0390811682529482015490941692840192909252600282018054918401916126e1906151aa565b80601f016020809104026020016040519081016040528092919081815260200182805461270d906151aa565b801561275a5780601f1061272f5761010080835404028352916020019161275a565b820191906000526020600020905b81548152906001019060200180831161273d57829003601f168201915b50505050508152602001600382018054612773906151aa565b80601f016020809104026020016040519081016040528092919081815260200182805461279f906151aa565b80156127ec5780601f106127c1576101008083540402835291602001916127ec565b820191906000526020600020905b8154815290600101906020018083116127cf57829003601f168201915b505050918352505060048201546001600160a01b03908116602083015260058301548082166040840152600160a01b900460ff161515606083015260068301546080830152600783015460a0830152600883015460c0830152600983015460e0830152600a830154610100830152600b830154610120830152600c9092015460000b6101409091015281519192501633148015906128a0575080602001516001600160a01b0316336001600160a01b031614155b6128a957600080fd5b6101a081015160000b158015906128c95750806101a0015160000b600214155b6128d257600080fd5b806101a0015160000b600214801561291457506101408101516128f69060026155d1565b61290190603c6155d1565b81610160015161291191906155f0565b42105b61291d57600080fd5b80608001516001600160a01b0316336001600160a01b03161415612949576001196101a0820152612953565b6000196101a08201525b4261016082018190526101a082015160405185927f12756c8b9561cc3ee7eda20b88ecf6fa8a596ebe05a1d19be769e2dd39da1cde926119079291825260000b602082015260400190565b6129a882826140a0565b6000828152600660205260409020600401546001600160a01b0316612a22576000828152600660209081526040808320600490810180546001600160a01b03199081163317909155600193849052919093209182015492820180549091166001600160a01b0393909316929092179091556002600b909101555b600082815260016020818152604080842080840154815460068086529684902060040154959094529481015491516001600160a01b03958616959384169488947f4b1c5f85898b84f7392653411c2d5a277fd3fb774a6e72e3756b2d460ea5332b94612a9794600201938a9390921691615648565b60405180910390a45050565b6001600160a01b038116600090815260056020526040812054606091815b8015612b015781612ad18161562d565b6001600160a01b03871660009081526004602090815260408083209583529490529290922054919250612ac19050565b5060008167ffffffffffffffff811115612b1d57612b1d614d36565b604051908082528060200260200182016040528015612b46578160200160208202803683370190505b5090508260005b83811015612bae5781838281518110612b6857612b6861523d565b6020908102919091018101919091526001600160a01b03881660009081526004825260408082209482529390915291909120549080612ba68161562d565b915050612b4d565b509095945050505050565b60016020819052600091825260409091208054918101546002820180546001600160a01b03948516949092169291612bf0906151aa565b80601f0160208091040260200160405190810160405280929190818152602001828054612c1c906151aa565b8015612c695780601f10612c3e57610100808354040283529160200191612c69565b820191906000526020600020905b815481529060010190602001808311612c4c57829003601f168201915b505050505090806003018054612c7e906151aa565b80601f0160208091040260200160405190810160405280929190818152602001828054612caa906151aa565b8015612cf75780601f10612ccc57610100808354040283529160200191612cf7565b820191906000526020600020905b815481529060010190602001808311612cda57829003601f168201915b50505050600483015460058401546006850154600786015460088701546009880154600a890154600b8a0154600c909a015498996001600160a01b03978816999787169850600160a01b90960460ff1696949593949293919290919060000b8e565b600081815260016020818152604080842081516101c08101835281546001600160a01b039081168252948201549094169284019290925260028201805491840191612da3906151aa565b80601f0160208091040260200160405190810160405280929190818152602001828054612dcf906151aa565b8015612e1c5780601f10612df157610100808354040283529160200191612e1c565b820191906000526020600020905b815481529060010190602001808311612dff57829003601f168201915b50505050508152602001600382018054612e35906151aa565b80601f0160208091040260200160405190810160405280929190818152602001828054612e61906151aa565b8015612eae5780601f10612e8357610100808354040283529160200191612eae565b820191906000526020600020905b815481529060010190602001808311612e9157829003601f168201915b505050918352505060048201546001600160a01b0390811660208084019190915260058401548083166040850152600160a01b900460ff161515606084015260068401546080840152600784015460a0840152600884015460c0840152600984015460e0840152600a840154610100840152600b840154610120840152600c9093015460000b6101409092019190915290820151919250161580612f5357508060c001515b612f5c57600080fd5b80516001600160a01b03163314801590612f8c575080602001516001600160a01b0316336001600160a01b031614155b15612f9657600080fd5b8060c00151612fc2576000828152600160205260409020600501805460ff60a01b1916600160a01b1790555b60208101516001600160a01b03166130a35781600354141561300157600380546000908152600260205260408082205490925583815290812055613084565b6003545b8062195b9960ea1b1415801561302f575060008181526002602052604090205462195b9960ea1b14155b156130825760008181526002602052604090205483141561306e5760008381526002602052604080822080548484529183209190915584825255613082565b600090815260026020526040902054613005565b505b6000828152600160205260408120600681018054600790920191909155555b33600090815260056020526040902054828114156130f65733600081815260046020908152604080832085845280835281842054948452600583528184209490945560035483529290529081205561319f565b805b8015801590613127575033600090815260046020908152604080832084845290915290205462195b9960ea1b14155b1561319d5733600090815260046020908152604080832084845290915290205484141561317e573360009081526004602090815260408083208784529091528082208054848452918320919091558582525561319d565b33600090815260046020908152604080832093835292905220546130f8565b505b604051339084907f355481a0787ef046ee5e4c47a8cfd2b43e453bff08274f9dbba1a737218f423790600090a3505050565b6000818152600160205260409020600501548190600160a01b900460ff16156131f957600080fd5b600082815260016020818152604080842081516101c08101835281546001600160a01b039081168252948201549094169284019290925260028201805491840191613243906151aa565b80601f016020809104026020016040519081016040528092919081815260200182805461326f906151aa565b80156132bc5780601f10613291576101008083540402835291602001916132bc565b820191906000526020600020905b81548152906001019060200180831161329f57829003601f168201915b505050505081526020016003820180546132d5906151aa565b80601f0160208091040260200160405190810160405280929190818152602001828054613301906151aa565b801561334e5780601f106133235761010080835404028352916020019161334e565b820191906000526020600020905b81548152906001019060200180831161333157829003601f168201915b505050918352505060048201546001600160a01b03908116602083015260058301548082166040840152600160a01b900460ff161515606083015260068301546080830152600783015460a0830152600883015460c0830152600983015460e0830152600a830154610100830152600b830154610120830152600c9092015460000b610140909101528151919250163314801590613402575080602001516001600160a01b0316336001600160a01b031614155b61340b57600080fd5b6101a081015160000b61341d57600080fd5b80608001516001600160a01b0316336001600160a01b03161461343f57600080fd5b42610160820181905260016101a0830181905260408051928352602083019190915284917f12756c8b9561cc3ee7eda20b88ecf6fa8a596ebe05a1d19be769e2dd39da1cde9101611907565b6000805b60088110156135625760006134be866134b88460078111156134b3576134b3615722565b61423c565b876142aa565b90508060000b6000191461354f5760008682820b608081106134e2576134e261523d565b6020810490910154601f9091166101000a9004600090810b91506135068683615269565b60000b121561354d5760008561351c600c614327565b6135269190615269565b9050613539888460ff168985858b614347565b1561354b576001945050505050611227565b505b505b508061355a8161562d565b91505061348f565b5060005b600881101561362c57600060408051806040016040528060088152602001671f212e324e525f6160c01b81525083815181106135a4576135a461523d565b01602001516135b69060f81c876152ea565b6135c09190615738565b9050608881166136195760006135e98260000b600c8111156135e4576135e4615722565b614327565b90506135f56008614327565b60000b6136028683615269565b60000b14156136175760019350505050611227565b505b50806136248161562d565b915050613566565b506000949350505050565b6000600582101561364757600080fd5b6040516bffffffffffffffffffffffff193360601b16602082015243603482015260009060540160408051601f1981840301815291815281516020928301206000818152600184529190912060058101805460ff60a01b1916905560098101869055600c8101805460ff1916905580546001600160a01b0319163317815587519193506136dd9260029091019190880190614a4f565b50600081815260016020526040812060078101829055600801556137023460026155d1565b600082815260016020908152604080832060060193909355338252600581528282208054600483528484208685528352848420558490556003805460029092529290912055819055949350505050565b6000818152600160205260409020600501548190600160a01b900460ff161561377a57600080fd5b600082815260016020818152604080842081516101c08101835281546001600160a01b0390811682529482015490941692840192909252600282018054918401916137c4906151aa565b80601f01602080910402602001604051908101604052809291908181526020018280546137f0906151aa565b801561383d5780601f106138125761010080835404028352916020019161383d565b820191906000526020600020905b81548152906001019060200180831161382057829003601f168201915b50505050508152602001600382018054613856906151aa565b80601f0160208091040260200160405190810160405280929190818152602001828054613882906151aa565b80156138cf5780601f106138a4576101008083540402835291602001916138cf565b820191906000526020600020905b8154815290600101906020018083116138b257829003601f168201915b505050918352505060048201546001600160a01b03908116602083015260058301548082166040840152600160a01b900460ff161515606083015260068301546080830152600783015460a0830152600883015460c0830152600983015460e0830152600a830154610100830152600b830154610120830152600c9092015460000b610140909101528151919250163314801590613983575080602001516001600160a01b0316336001600160a01b031614155b61398c57600080fd5b6101a081015160000b1561399f57600080fd5b80608001516001600160a01b0316336001600160a01b031614613a6757806101a0015160000b60011914156101cd57600160c08201819052600084815260209190915260409020600601546139f69060029061578f565b6000848152600160205260409020600781019190915560060154613a1c9060029061578f565b60008481526001602052604080822060088101939093556006909201819055905184917fdfbf0a97d8d3b796cd819f1c2fdebb01eabf975797feee4dc7c43b0794b7073f91a2505050565b806101a0015160000b6000191415613aa157600160c08201819052600084815260209190915260409020600601546139f69060029061578f565b806101a0015160000b60011480613ac05750806101a0015160000b6002145b156101cd57600160c082015280516001600160a01b0316331415613b15576020808201516001600160a01b031660a0830152600084815260019091526040812060068101805460089092019190915555613b44565b80516001600160a01b031660a08201526000838152600160205260408120600681018054600790920191909155555b60405183907fdfbf0a97d8d3b796cd819f1c2fdebb01eabf975797feee4dc7c43b0794b7073f90600090a25b505050565b6000818152600160205260409020600501548190600160a01b900460ff1615613b9d57600080fd5b600082815260016020818152604080842081516101c08101835281546001600160a01b039081168252948201549094169284019290925260028201805491840191613be7906151aa565b80601f0160208091040260200160405190810160405280929190818152602001828054613c13906151aa565b8015613c605780601f10613c3557610100808354040283529160200191613c60565b820191906000526020600020905b815481529060010190602001808311613c4357829003601f168201915b50505050508152602001600382018054613c79906151aa565b80601f0160208091040260200160405190810160405280929190818152602001828054613ca5906151aa565b8015613cf25780601f10613cc757610100808354040283529160200191613cf2565b820191906000526020600020905b815481529060010190602001808311613cd557829003601f168201915b505050918352505060048201546001600160a01b03908116602083015260058301548082166040840152600160a01b900460ff161515606083015260068301546080830152600783015460a0830152600883015460c0830152600983015460e0830152600a830154610100830152600b830154610120830152600c9092015460000b610140909101528151919250163314801590613da6575080602001516001600160a01b0316336001600160a01b031614155b15613db057600080fd5b6101a081015160000b1580613dcd5750806101a0015160000b6002145b15613dd757600080fd5b610140810151613de890603c6155d1565b816101600151613df891906155f0565b421015613e0457600080fd5b80608001516001600160a01b0316336001600160a01b03161415613e5c57806101a0015160000b60011914156101cd57600160c08201819052600084815260209190915260409020600601546139f69060029061578f565b806101a0015160000b6000191415613e9657600160c08201819052600084815260209190915260409020600601546139f69060029061578f565b806101a0015160000b600114156101cd57600160c08201523360a0820181905281516001600160a01b03161415613eea57600083815260016020526040812060068101805460079092019190915555613b44565b60008381526001602052604081206006810180546008909201919091555560405183907fdfbf0a97d8d3b796cd819f1c2fdebb01eabf975797feee4dc7c43b0794b7073f90600090a2505050565b6000818152600160205260409020600501548190600160a01b900460ff1615613f6057600080fd5b6000828152600160205260409020600501546001600160a01b031615613f8557600080fd5b6000828152600160205260409020546001600160a01b0316331415613fee5760008281526001602081905260408220908101546005820180546001600160a01b0319166001600160a01b0390921691909117905560068101805460089092019190915555614053565b600082815260016020819052604090912001546001600160a01b03163314156101cd57600082815260016020526040812080546005820180546001600160a01b0319166001600160a01b03909216919091179055600681018054600790920191909155555b600082815260016020526040808220600501805460ff60a01b1916600160a01b1790555183917fdfbf0a97d8d3b796cd819f1c2fdebb01eabf975797feee4dc7c43b0794b7073f91a25050565b600082815260016020819052604090912001546001600160a01b0316156140c657600080fd5b60008281526001602052604090206006015434146140e357600080fd5b600082815260016020526040812060060180543492906141049084906155f0565b9091555050600082815260016020818152604090922090810180546001600160a01b03191633179055825161414192600390920191840190614a4f565b506000828152600160205260409020546001600160a01b03163314614191573360008181526005602081815260408084208054600484528286208987528452918520919091559390925290528290555b8160035414156141bb57506003805460009081526002602052604080822054909255918252812055565b6003545b8062195b9960ea1b141580156141e9575060008181526002602052604090205462195b9960ea1b14155b15613b70576000818152600260205260409020548314156142285760008381526002602052604080822080548484529183209190915584825255505050565b6000908152600260205260409020546141bf565b60006040518060400160405280600881526020017f30314151504f3f2f00000000000000000000000000000000000000000000000081525082600781111561428657614286615722565b815181106142965761429661523d565b0160200151610dc09060f81c603f196152ea565b6000806142b784846152ea565b60000b90505b6088811661431b576142cf6006614327565b60000b8582608081106142e4576142e461523d565b6020810490910154601f9091166101000a900460000b14614306579050611227565b614314600085900b826157a3565b90506142bd565b50600019949350505050565b600081600c81111561433b5761433b615722565b610dc0906005196157a3565b600080614354878761488e565b60000b9050600061436482614970565b6010148061437a575061437682614970565b6001145b159050614387600c614327565b60000b6143968760000b614970565b14156144f457866143a7838a6157a3565b14156143b857600192505050614884565b6143c389898661348b565b156143d357600092505050614884565b6143dd6000614327565b60000b8660000b141561445e578760041480156143fd57508460000b6000145b1561445e578660021480156144205750600061441a8a600761498e565b60000b12155b1561443057600192505050614884565b86600614801561444e575060006144488a600861498e565b60000b12155b1561445e57600192505050614884565b614468600c614327565b60000b8660000b14156144e95787607414801561448857508460000b6000145b156144e9578660721480156144ab575060006144a58a600561498e565b60000b12155b156144bb57600192505050614884565b8660761480156144d9575060006144d38a600661498e565b60000b12155b156144e957600192505050614884565b600092505050614884565b6144fe6009614327565b60000b61450d8760000b614970565b148061452f575061451e600b614327565b60000b61452d8760000b614970565b145b80614550575061453f600a614327565b60000b61454e8760000b614970565b145b15614615578015801561457957506145686009614327565b60000b6145778760000b614970565b145b806145a257508080156145a25750614591600a614327565b60000b6145a08760000b614970565b145b156145b257600092505050614884565b8760005b600881101561460857888214156145d4576001945050505050614884565b6145de84836157a3565b915060888216156145f6576000945050505050614884565b806146008161562d565b9150506145b6565b5060009350505050614884565b61461f6007614327565b60000b61462e8760000b614970565b14156147de5761463e6005614327565b60000b8660000b1480156146525750600082125b8061467657506146626007614327565b60000b8660000b1480156146765750600082135b1561468657600092505050614884565b8061474857600261469683614970565b10156146a757600092505050614884565b866146b2838a6157a3565b14156146da576146c26006614327565b60000b8560000b14156146da57600192505050614884565b86826146e6818b6157a3565b6146f091906157a3565b14156144e957600061470360108a61578f565b905080600114806147145750806006145b1561473c576147236006614327565b60000b8660000b141561473c5760019350505050614884565b50600092505050614884565b86614753838a6157a3565b14156144e9576147638686615269565b60000b6147d3576147746005614327565b60000b8660000b14801561479457508661478f8a600a61498e565b60000b145b806144d957506147a46007614327565b60000b8660000b1480156144d95750866147bf8a600961498e565b60000b14156144e957600192505050614884565b600192505050614884565b6147e86008614327565b60000b6147f78760000b614970565b141561487d5760005b600881101561473c578760408051806040016040528060088152602001671f212e324e525f6160c01b815250838151811061483d5761483d61523d565b016020015161484f9060f81d8c6157a3565b61485991906157e2565b141561486b5760019350505050614884565b806148758161562d565b915050614800565b6000925050505b9695505050505050565b60008183118160086148a86148a386886157e2565b614970565b10905060006148b8600886615821565b6148c3600888615821565b14905060006148d3600887615821565b6148de600889615821565b119050831561492c578115614902576148f7600061423c565b945050505050610dc0565b8215614912576148f7600661423c565b8015614922576148f7600761423c565b6148f7600161423c565b811561493c576148f7600461423c565b821561494c576148f7600261423c565b801561495c576148f7600561423c565b6148f7600361423c565b5050505092915050565b600080821261497d575090565b610dc082600019615835565b919050565b60008261499a836149c8565b608081106149aa576149aa61523d565b6020810490910154601f9091166101000a900460000b905092915050565b60006040518060400160405280600b81526020017f08097b0b384e4f3e3f3d4d00000000000000000000000000000000000000000081525082600a811115614a1257614a12615722565b81518110614a2257614a2261523d565b016020015160f81c92915050565b6040518061100001604052806080906020820280368337509192915050565b828054614a5b906151aa565b90600052602060002090601f016020900481019282614a7d5760008555614ac3565b82601f10614a9657805160ff1916838001178555614ac3565b82800160010185558215614ac3579182015b82811115614ac3578251825591602001919060010190614aa8565b50614acf929150614ad3565b5090565b5b80821115614acf5760008155600101614ad4565b600060208284031215614afa57600080fd5b5035919050565b803560ff8116811461498957600080fd5b60008060008060808587031215614b2857600080fd5b84359350614b3860208601614b01565b93969395505050506040820135916060013590565b6000815180845260005b81811015614b7357602081850181015186830182015201614b57565b81811115614b85576000602083870101525b50601f01601f19169290920160200192915050565b60208152614bb46020820183516001600160a01b03169052565b60006020830151614bd060408401826001600160a01b03169052565b5060408301516101c0806060850152614bed6101e0850183614b4d565b91506060850151601f19858403016080860152614c0a8382614b4d565b9250506080850151614c2760a08601826001600160a01b03169052565b5060a08501516001600160a01b03811660c08601525060c085015180151560e08601525060e085015161010085810191909152850151610120808601919091528501516101408086019190915285015161016080860191909152850151610180808601919091528501516101a080860191909152850151614cac8286018260000b9052565b5090949350505050565b80356001600160a01b038116811461498957600080fd5b600080600080600060a08688031215614ce557600080fd5b614cee86614cb6565b945060208601359350614d0360408701614b01565b94979396509394606081013594506080013592915050565b600060208284031215614d2d57600080fd5b61122782614cb6565b634e487b7160e01b600052604160045260246000fd5b8060000b8114614d5b57600080fd5b50565b600082601f830112614d6f57600080fd5b60405161100080820182811067ffffffffffffffff82111715614d9457614d94614d36565b60405283018185821115614da757600080fd5b845b82811015614dca578035614dbc81614d4c565b825260209182019101614da9565b509195945050505050565b600082601f830112614de657600080fd5b813567ffffffffffffffff80821115614e0157614e01614d36565b604051601f8301601f19908116603f01168101908282118183101715614e2957614e29614d36565b81604052838152866020858801011115614e4257600080fd5b836020870160208301376000602085830101528094505050505092915050565b60008060008060006110808688031215614e7b57600080fd5b85359450614e8c8760208801614d5e565b93506110208601359250611040860135915061106086013567ffffffffffffffff811115614eb957600080fd5b614ec588828901614dd5565b9150509295509295909350565b600080600060608486031215614ee757600080fd5b833567ffffffffffffffff811115614efe57600080fd5b614f0a86828701614dd5565b93505060208401358015158114614f2057600080fd5b929592945050506040919091013590565b611000810181836000805b6080811015614966578251820b845260209384019390920191600101614f3c565b60008060006110408486031215614f7357600080fd5b83359250614f848560208601614d5e565b9150614f936110208501614cb6565b90509250925092565b600080600060608486031215614fb157600080fd5b505081359360208301359350604090920135919050565b60008060408385031215614fdb57600080fd5b614fe483614cb6565b946020939093013593505050565b60008060006060848603121561500757600080fd5b61501084614cb6565b925060208401359150604084013567ffffffffffffffff81111561503357600080fd5b61503f86828701614dd5565b9150509250925092565b6020808252825182820181905260009190848201906040850190845b8181101561508157835183529284019291840191600101615065565b50909695505050505050565b600080604083850312156150a057600080fd5b82359150602083013567ffffffffffffffff8111156150be57600080fd5b6150ca85828601614dd5565b9150509250929050565b6001600160a01b038f811682528e1660208201526101c0604082015260006151006101c083018f614b4d565b8281036060840152615112818f614b4d565b91505061512a608083018d6001600160a01b03169052565b6001600160a01b038b1660a083015289151560c08301528860e0830152876101008301528661012083015285610140830152846101608301528361018083015261517a6101a083018460000b9052565b9f9e505050505050505050505050505050565b60006020828403121561519f57600080fd5b815161122781614d4c565b600181811c908216806151be57607f821691505b602082108114156151df57634e487b7160e01b600052602260045260246000fd5b50919050565b6000602082840312156151f757600080fd5b5051919050565b6000818482805b6080811015615226578251820b845260209384019390920191600101615205565b505050505061100081019190915261102001919050565b634e487b7160e01b600052603260045260246000fd5b634e487b7160e01b600052601160045260246000fd5b60008082810b84820b82811383831382607f048411828216161561528f5761528f615253565b607f19858412828116868305861216156152ab576152ab615253565b95851295838716858305871216156152c5576152c5615253565b84607f05861281881616156152dc576152dc615253565b505050910295945050505050565b60008160000b8360000b6000821282607f0382138115161561530e5761530e615253565b82607f1903821281161561532457615324615253565b50019392505050565b83815261104081016020808301856000805b608081101561535e578251820b8452928401929184019160010161533f565b5086810b61102087015250505050949350505050565b6080815260006153876080830187614b4d565b6001600160a01b03959095166020830152506040810192909252606090910152919050565b6110008101818360005b608080601f8301106153c857506155c8565b8254600081900b855260206153e78187018360081c60000b60000b9052565b60406153fd8188018460101c60000b60000b9052565b60606154138189018560181c60000b60000b9052565b83831c60000b8886015260a092506154358389018560281c60000b60000b9052565b60c061544b818a018660301c60000b60000b9052565b60e0615461818b018760381c60000b60000b9052565b85841c60000b6101008b0152604886901c60000b6101208b0152605086901c60000b6101408b0152605886901c60000b6101608b015285831c60000b6101808b0152606886901c60000b6101a08b0152607086901c60000b6101c08b0152607886901c60000b6101e08b015285871c60000b6102008b0152608886901c60000b6102208b0152609086901c60000b6102408b0152609886901c60000b6102608b015285851c60000b6102808b015260a886901c60000b6102a08b015260b086901c60000b6102c08b015260b886901c60000b6102e08b015285821c60000b6103008b015260c886901c60000b6103208b015260d086901c60000b6103408b015260d886901c60000b6103608b015285811c60000b6103808b0152505050505060e881901c60000b6103a086015260f081901c60000b6103c08601526155af6103e086018260f81d60000b9052565b50506104009290920191600191909101906020016153b6565b50505092915050565b60008160001904831182151516156155eb576155eb615253565b500290565b6000821982111561560357615603615253565b500190565b600060ff821660ff84168060ff0382111561562557615625615253565b019392505050565b600060001982141561564157615641615253565b5060010190565b60808152600080865481600182811c91508083168061566857607f831692505b602080841082141561568857634e487b7160e01b86526022600452602486fd5b6080880184905260a088018280156156a757600181146156b8576156e3565b60ff198716825282820197506156e3565b60008e81526020902060005b878110156156dd578154848201529086019084016156c4565b83019850505b50508786038189015250505050506156fb8187614b4d565b91505061571360408301856001600160a01b03169052565b82606083015295945050505050565b634e487b7160e01b600052602160045260246000fd5b600081810b83820b8281128015607f1983018412161561575a5761575a615253565b81607f01831381161561576f5761576f615253565b5090039392505050565b634e487b7160e01b600052601260045260246000fd5b60008261579e5761579e615779565b500490565b6000808212826001600160ff1b03038413811516156157c4576157c4615253565b82600160ff1b0384128116156157dc576157dc615253565b50500190565b600080831283600160ff1b0183128115161561580057615800615253565b836001600160ff1b0301831381161561581b5761581b615253565b50500390565b60008261583057615830615779565b500690565b60006001600160ff1b0360008413600084138583048511828216161561585d5761585d615253565b600160ff1b600087128682058812818416161561587c5761587c615253565b6000871292508782058712848416161561589857615898615253565b878505871281841616156158ae576158ae615253565b50505092909302939250505056fea2646970667358221220a8b48625a1577cac8560ee9e4934601e90ac4386c7eeca0cce11f976c48562c464736f6c634300080a0033",
    "linkReferences": {
        "contracts/ChessLogic.sol": {
            "ChessLogic": [
                {
                    "length": 20,
                    "start": 1917
                },
                {
                    "length": 20,
                    "start": 4137
                },
                {
                    "length": 20,
                    "start": 4427
                },
                {
                    "length": 20,
                    "start": 4994
                },
                {
                    "length": 20,
                    "start": 6863
                },
                {
                    "length": 20,
                    "start": 7206
                }
            ]
        },
        "contracts/ELO.sol": {
            "ELO": [
                {
                    "length": 20,
                    "start": 3570
                },
                {
                    "length": 20,
                    "start": 6102
                },
                {
                    "length": 20,
                    "start": 6256
                },
                {
                    "length": 20,
                    "start": 6447
                },
                {
                    "length": 20,
                    "start": 9159
                },
                {
                    "length": 20,
                    "start": 9313
                },
                {
                    "length": 20,
                    "start": 9504
                }
            ]
        }
    },
    "deployedLinkReferences": {
        "contracts/ChessLogic.sol": {
            "ChessLogic": [
                {
                    "length": 20,
                    "start": 1773
                },
                {
                    "length": 20,
                    "start": 3993
                },
                {
                    "length": 20,
                    "start": 4283
                },
                {
                    "length": 20,
                    "start": 4850
                },
                {
                    "length": 20,
                    "start": 6719
                },
                {
                    "length": 20,
                    "start": 7062
                }
            ]
        },
        "contracts/ELO.sol": {
            "ELO": [
                {
                    "length": 20,
                    "start": 3426
                },
                {
                    "length": 20,
                    "start": 5958
                },
                {
                    "length": 20,
                    "start": 6112
                },
                {
                    "length": 20,
                    "start": 6303
                },
                {
                    "length": 20,
                    "start": 9015
                },
                {
                    "length": 20,
                    "start": 9169
                },
                {
                    "length": 20,
                    "start": 9360
                }
            ]
        }
    }
}